:100000000C9462000C948A000C948A000C948A0070
:100010000C948A000C948A000C948A000C948A0038
:100020000C948A000C948A000C948A000C948A0028
:100030000C948A000C948A000C948A000C948A0018
:100040000C94500A0C948A000C94C00A0C949A0ADE
:100050000C948A000C948A000C948A000C948A00F8
:100060000C9431090C948A00000000002400270041
:100070002A0000000000250028002B0000000000DE
:1000800023002600290004040404040404040202DA
:100090000202020203030303030301020408102007
:1000A0004080010204081020010204081020000012
:1000B0000008000201000003040700000000000027
:1000C0000000F20A11241FBECFEFD8E0DEBFCDBF83
:1000D00023E0A0E9B1E001C01D92AF32B207E1F721
:1000E00011E0A0E0B1E0ECE8F3E202C005900D926F
:1000F000A039B107D9F710E0C2E6D0E004C02197DB
:10010000FE010E94CC0FC136D107C9F70E94970BA0
:100110000C94C4110C940000CF92DF92EF92FF92E6
:10012000CF93209118033091190320FD10920D03F5
:10013000A9014F715527452B29F0207E30931903D3
:100140002093180320911E0325FF03C02F7D2093C9
:100150001E03209118033091190334FB992790F95D
:10016000962736FF06C03F7B309319032093180370
:1001700091E0209118033091190331FD08C09923B3
:1001800009F449C0326030931903209318032FB744
:10019000F89440915302509154026091550270912D
:1001A00056022FBF20910E0330910F03DA01A21BDC
:1001B000B30B2091180330911903992309F486C0D9
:1001C00025FD65C09091140332FD08C0992331F0DC
:1001D000346030931903209318030FC09A171B063D
:1001E00019F010F091110DC0226230931903209381
:1001F0001803509311034093100350930F0340933F
:100200000E0320911803309119032F71332791E0C9
:10021000232B09F490E02091210330912203211532
:10022000310509F4C2C080911E0321FFBAC080616C
:1002300080931E0380911E0322FFB5C088608093C7
:100240001E03E3E036952795EA95E1F73093220304
:1002500020932103209118033091190325FF67C1D2
:1002600030683093190320931803209118033091BC
:10027000190333FD05C03860309319032093180328
:1002800080911E03806280931E03C1E091C037FD00
:10029000B8CF26FD0CC0E091160390E1E99FF00174
:1002A0001124AE17BF0708F4ACCF246492CFE091BD
:1002B000170327FFE091160390E1E99FF001112455
:1002C0002868AE17BF0708F084CF9BCF25FF19C061
:1002D000909114039A171B0611F008F041C026FDF7
:1002E00005C090910D039F5F90930D0337FD109211
:1002F0000D032F7D20613160309319032093180383
:100300002FC030FF15C037FD05C0206130931903A1
:100310002093180320911803309119033E773093EE
:1003200019032093180350930F0340930E0318C032
:1003300090910D03992339F1A901407C5527452B54
:10034000D9F440911503E0E14E9FA0011124A417B8
:10035000B50790F42091100330911103232B71F411
:10036000209118033091190332FF4BCF3B7F30931C
:1003700019032093180345CF2160BECF10921103BB
:1003800010921003EDCF31FFEBCF2F733D7F38601C
:100390003093190320931803109211031092100345
:1003A000C2CF8F7E45CF877F4ACF87FF11C0C0E085
:1003B000C92BE0911203F0911303309711F0C11192
:1003C00009958C2FCF91FF90EF90DF90CF900895FB
:1003D000E0911F032E2F2295207F259525952595A9
:1003E0002595022E000C330B482F082E000C550BC0
:1003F00024173507E1F2220F331F220F331F242B5E
:10040000352B220F331F41E656E164E979E404C03D
:1004100075956795579547952A95D2F74370E59559
:10042000E595E595E595E1504E0F4295407F459560
:10043000459545954595242F2295207F382F3F706F
:10044000232B20931F03207F09F4B1CF20911E039B
:10045000322F3370313009F45BC008F455C03230AC
:1004600009F45AC081E014160CF080E022FB332717
:1004700030F9831709F455C081E030911F033F70B4
:1004800030931F03C82E082E000CDD08EE08FF086D
:1004900040911A0350911B0360911C0370911D033E
:1004A0004C0D5D1D6E1D7F1D40931A0350931B0361
:1004B00060931C0370931D038130A9F52061209384
:1004C0001E038FB7F89440915302509154026091EB
:1004D0005502709156028FBF20910E0330910F0389
:1004E000FA01E21BF30B9F01E091200380911E03B0
:1004F00050930F0340930E03E2171306B1F0A8F0D8
:10050000886080931E03A6CE833009F050CFAACF17
:10051000882309F4A7CF4BCF8150823008F0A2CFB7
:1005200046CF8FEFAACF2F7ECACF877FEACF109218
:100530000D039BCE20910702260F3327331F213254
:100540003105ECF420912D02FC0190E080E0243094
:1005500069F082E00895A09107022191AC014B510E
:100560005E4FA40FB52FB11D2C930196861798F3FB
:1005700080910702680F6093070280E0089581E090
:100580000895089508950895E091DC018091DB01BC
:10059000E81730F4F0E0E554FE4F808190E00895D4
:1005A0008FEF9FEF08959091DC018091DB012FEF99
:1005B0003FEF981748F4E92FF0E0E554FE4F208113
:1005C00030E09F5F9093DC01C90108958091DB01C9
:1005D0009091DC01891B990B0895CF92DF92EF92E5
:1005E000FF920F931F93CF93DF937C01CB018A017E
:1005F0002091BA01222389F0EB016B01C40ED51EB4
:10060000CC15DD0569F06991D701ED91FC91019060
:10061000F081E02DC7010995F3CF642F0E949A0263
:10062000C801DF91CF911F910F91FF90EF90DF9064
:10063000CF900895CF93DF931F92CDB7DEB7698334
:100640002091BA012223F9F02091DD01203258F0E7
:1006500021E030E0FC013383228390E080E00F90C2
:10066000DF91CF9108958091DE01E82FF0E0E6560A
:10067000FE4F998190838F5F8093DE018093DD012F
:1006800081E090E0ECCF61E0CE0101960E949A02F9
:10069000F7CF833081F028F4813099F08230A9F0CF
:1006A00008958730A9F08830C9F08430B1F4809182
:1006B00080008F7D03C0809180008F7780938000C1
:1006C000089584B58F7784BD089584B58F7DFBCF61
:1006D0008091B0008F778093B00008958091B00032
:1006E0008F7DF9CF1F93CF93DF93282F30E0F9014F
:1006F000E255FF4F8491F901E656FF4FD491F9017D
:10070000EA57FF4FC491CC23A9F0162F81110E9404
:100710004903EC2FF0E0EE0FFF1FEE58FF4FA591BD
:10072000B4918FB7F894EC91111108C0D095DE23E5
:10073000DC938FBFDF91CF911F910895DE2BF8CF0F
:1007400010922D0281E080932F0210922E0261E020
:1007500082E10E94720361E083E10E947203E9EB8F
:10076000F0E080818E7F808380818D7F808388E42C
:100770008093B80085E48093BC000895CF93DF9305
:1007800091E09093E4018823B9F0C091B800D09132
:10079000BA008091BC008A7B8093BC0060E082E15B
:1007A0000E94720360E083E10E9472030E94A00332
:1007B000D093BA00C093B800DF91CF910895CF9342
:1007C000DF9390E0FC01E656FF4F24918A579F4F3C
:1007D000FC0184918823C9F090E0880F991FFC01E7
:1007E000E859FF4FA591B491FC01EE58FF4FC59118
:1007F000D49161110DC09FB7F8948C9120958223FC
:100800008C938881282328839FBFDF91CF910895FF
:10081000623051F49FB7F8943C91822F80958323E6
:100820008C93E8812E2BEFCF8FB7F894EC912E2B81
:100830002C938FBFEACF2091290330912A032817E8
:10084000390749F090932A0380932903682F8091F8
:1008500028030C94DF0308953FB7F8948091960124
:1008600090919701A0919801B091990126B5A89B0C
:1008700005C02F3F19F00196A11DB11D3FBFBA2F32
:10088000A92F982F8827BC01CD01620F711D811DF2
:10089000911D42E0660F771F881F991F4A95D1F777
:1008A00008958F929F92AF92BF92CF92DF92EF9274
:1008B000FF924B015C010E942C046B017C010E94A1
:1008C0002C046C197D098E099F09683E73408105CF
:1008D0009105A8F321E0821A9108A108B10888EED9
:1008E000C80E83E0D81EE11CF11C81149104A10400
:1008F000B10429F7FF90EF90DF90CF90BF90AF90B9
:100900009F908F900895AF92BF92CF92DF92EF9217
:10091000FF920F931F93CF93DF936C017B018B01A9
:10092000040F151FEB015E01AE18BF08C017D107F9
:1009300059F06991D601ED91FC910190F081E02D83
:10094000C6010995892B79F7C501DF91CF911F91D8
:100950000F91FF90EF90DF90CF90BF90AF900895F0
:10096000FC01448155816081718180E093E00C94A9
:100970008304FC01538D448D252F30E0842F90E0BB
:10098000821B930B541710F0CF960895019708958A
:10099000FC01918D828D981761F0A28DAE0FBF2F53
:1009A000B11D5D968C91928D9F5F9F73928F90E0A9
:1009B00008958FEF9FEF0895FC01918D828D981718
:1009C00031F0828DE80FF11D858D90E008958FEF55
:1009D0009FEF0895FC01918D228D892F90E0805C1E
:1009E0009F4F821B91098F739927089583E692E0A8
:1009F0000E94EA0421E0892B09F420E0822F089567
:100A000080E090E0892B29F00E94F60481110C947B
:100A100000000895FC01A48DA80FB92FB11DA35AA1
:100A2000BF4F2C91848D90E001968F739927848F0E
:100A3000A689B7892C93A089B1898C918370806431
:100A40008C93938D848D981306C00288F389E02DD2
:100A500080818F7D80830895EF92FF920F931F9383
:100A6000CF93DF93EC0181E0888F9B8D8C8D981361
:100A70001AC0E889F989808185FF15C09FB7F8946D
:100A8000EE89FF896083E889F989808183708064B9
:100A900080839FBF81E090E0DF91CF911F910F9104
:100AA000FF90EF900895F62E0B8D10E00F5F1F4F13
:100AB0000F731127E02E8C8D8E110CC00FB607FC22
:100AC000FACFE889F989808185FFF5CFCE010E94B0
:100AD0000A05F1CFEB8DEC0FFD2FF11DE35AFF4F0F
:100AE000F0829FB7F8940B8FEA89FB89808180623E
:100AF000CFCFCF93DF93EC01888D8823B9F0AA89FB
:100B0000BB89E889F9898C9185FD03C0808186FDC8
:100B10000DC00FB607FCF7CF8C9185FFF2CF808117
:100B200085FFEDCFCE010E940A05E9CFDF91CF917D
:100B30000895883058F429B130E0A90102C05595D4
:100B400047958A95E2F7CA01817008958E3028F49E
:100B500023B130E08850990BF0CF843128F426B1CE
:100B600030E08E50990BE9CF80E00895CF92DF926C
:100B7000EF92FF920F931F93CF93DF93FC01C481F9
:100B800021E02093BA01C09390011092DE011092EF
:100B9000DD018485682B87E592E00E941A03D091DD
:100BA000DD01D13208F092C00E942C046B017C015F
:100BB00080912D02811165C082E080932D0281E039
:100BC00080932F028FEF80932C0210925102D093CA
:100BD0005002AAE9B1E0E0E3F2E080E0D81385C07A
:100BE0001092520280915202CC0FC82BC093520235
:100BF00080912E02813009F07CC010922E020E945A
:100C00002C046B017C01809152028093BB00809187
:100C1000E0019091E101A091E201B091E301892B03
:100C20008A2B8B2B99F00E942C040091E0011091EB
:100C3000E1012091E2013091E3016C197D098E09F7
:100C40009F090617170728073907E0F18091BC00B4
:100C500083FDD9CF85EC8093BC000E942C046B01EE
:100C60007C0180912D02823009F445C080912C02D4
:100C70008F3F61F180912C02803241F180912C02F2
:100C800025C08091E0019091E101A091E201B09135
:100C9000E301892B8A2B8B2B09F48ACF0E942C0429
:100CA0000091E0011091E1012091E2013091E30116
:100CB0006C197D098E099F09061717072807390740
:100CC00008F076CF8091DF010E94BE031092DE0112
:100CD0001092DD011092BA01DF91CF911F910F9117
:100CE000FF90EF90DF90CF9008959D9191938F5F4B
:100CF00075CF85EEB0CF8091E0019091E101A09198
:100D0000E201B091E301892B8A2B8B2B09F4A9CF47
:100D10000E942C040091E0011091E1012091E20178
:100D20003091E3016C197D098E099F090617170799
:100D30002807390708F095CFC5CF089590E080E0E7
:100D40000895DF92EF92FF920F931F93CF93DF935B
:100D5000D0E0C0E0E12C01E010E02091280330E079
:100D6000F901E255FF4F8491F901E656FF4FF490E7
:100D7000F901EA57FF4FD490DD20A9F081110E94BC
:100D80004903ED2DF0E0EE0FFF1FE458FF4FA59152
:100D9000B491EC91FE2239F0C8010C2E01C0880FED
:100DA0000A94EAF7E82A61E0809127030E9472031F
:100DB00060E0809127030E9472032196C830D1051C
:100DC00009F0CBCF8E2DDF91CF911F910F91FF9026
:100DD000EF90DF900895CF93DF93D82FC8E06D2F69
:100DE0006170809128030E94720361E08091270363
:100DF0000E94720360E0809127030E947203D695DF
:100E0000C15069F7DF91CF910895EF92FF921F9340
:100E1000CF93DF93EC0181E090E00E941B0486E217
:100E2000E82E83E0F82E61E0F70180810E947203D2
:100E30008FEB0E94EB0690E080E00E941B040E9472
:100E4000A106982F929597701AE08F70919F800D50
:100E500011248D830E94A106982F929597708F7010
:100E6000919F800D11248C830E94A106982F92954A
:100E700093708F70919F800D11248B830E94A10627
:100E8000982F929593708F70919F800D11248A8373
:100E90000E94A10684FB992790F98F70919F800D85
:100EA000112489830E94A10687708E830E94A10667
:100EB000982F929597708F70919F800D1124888341
:100EC00060E0F7018081DF91CF911F91FF90EF905B
:100ED0000C9472030F931F93CF938C01C62F0E9423
:100EE000B6056C2F6460C8010E94B6056C2F6B7F3D
:100EF000C8010E94B60583EC90E00197F1F7CF910D
:100F00001F910F9108950F931F93CF93DF938C013F
:100F1000D62FC42F607F642B0E946A0780E1D89F80
:100F2000B00111246C2BC801DF91CF911F910F915B
:100F30000C946A07CF93DF93CDB7DEB728970FB62F
:100F4000F894DEBF0FBECDBF98E0ECE0F1E0DE012B
:100F5000119601900D929A95E1F7909108039817D8
:100F600008F48FEF90E0880F991F21E030E02C0FFC
:100F70003D1F820F931FFC016081606840E080E0AC
:100F800093E028960FB6F894DEBF0FBECDBFDF9179
:100F9000CF910C94830741E00E94830781E090E0A9
:100FA0000895FB0101900020E9F73197AF01461B3E
:100FB000570BDC01ED91FC910280F381E02D099447
:100FC00085ED8093BC008091E0019091E101A091BA
:100FD000E201B091E3010796A11DB11D23E0B69592
:100FE000A795979587952A95D1F72091BC0024FD68
:100FF00003C010922D0208954091E0015091E1014B
:101000006091E2017091E301452B462B472B69F378
:101010000097A105B10541F025E32A95F1F70000FD
:101020000197A109B109E1CF8091DF010C94BE03C2
:101030000F931F93CF93DF93EC01888199810097E1
:1010400059F02A813B812617370730F081E0DF9184
:10105000CF911F910F9108958B016F5F7F4F0E9479
:10106000F710009759F0998388831B830A832C819A
:101070003D81232B59F7FC011082E8CF80E0E7CFB8
:10108000CF93DF93EC0188819981009711F00E9442
:101090006E10198218821D821C821B821A82DF91B7
:1010A000CF9108950F931F93CF93DF93EC010C81A1
:1010B0001D810F5F1F4FB8010E941808882391F00F
:1010C000288139818C819D8168E871E0820F931FAE
:1010D0000E94BD111D830C83CE01DF91CF911F9122
:1010E0000F910895CE010E944008F6CFEF92FF9233
:1010F0000F931F93CF93DF93EC01FB01E080F1800E
:10110000E114F10411F10481158101151105A9F013
:101110008C819D81080F191FB801CE010E9418080B
:10112000882399F0288139818C819D81B701820FB4
:10113000931F0E94BD111D830C83CE01DF91CF91BF
:101140001F910F91FF90EF900895CE010E944008EB
:10115000F4CFEF92FF920F931F93CF93DF93EC01A5
:101160007B018A01BA010E94180881110BC0CE01CF
:101170000E944008CE01DF91CF911F910F91FF9007
:10118000EF9008951D830C83B701888199810E9497
:10119000BD11F0CFFB0101900020E9F73197AF01BD
:1011A000461B570B0C94A9080F931F93CF93DF9303
:1011B000CDB7DEB729970FB6F894DEBF0FBECDBF0F
:1011C0008C01862FF80111821082138212821582FF
:1011D00014824AE0BE016F5F7F4F90E00E94550F7E
:1011E000BE016F5F7F4FC8010E94CA0829960FB6E3
:1011F000F894DEBF0FBECDBFDF91CF911F910F914D
:101200000895CF93DF93EC01FB018617970749F010
:10121000608171816115710541F0448155810E94A1
:10122000A908CE01DF91CF9108950E944008F9CF1F
:10123000FC01118210821382128215821482FB013A
:1012400001900020E9F73197AF01461B570B0C9432
:10125000A908FC0180819181009711F00C946E1017
:1012600008951F920F920FB60F9211242F933F9360
:101270004F935F936F937F938F939F93AF93BF939E
:10128000EF93FF938091B900887F803609F44AC0BC
:10129000F0F5883209F4A7C018F5803109F49BC035
:1012A000B8F4882309F4F9C0883009F494C0FF9198
:1012B000EF91BF91AF919F918F917F916F915F91CE
:1012C0004F913F912F910F900FBE0F901F90189547
:1012D000883109F488C0803251F780932C0214C001
:1012E000803409F49DC040F48033B9F38833F9F6B3
:1012F00080932C0285ECB0C0803509F485C0883518
:1013000009F496C0883499F60E94E007D0CF883956
:1013100009F48CC038F5883729F050F4883611F07C
:10132000803729F683E080932D0210922B0257C05C
:10133000883809F47BC0803919F0803809F0B7CFBC
:1013400080912B02803208F071C0E0912B0281E085
:101350008E0F80932B028091BB00F0E0E55FFD4F84
:1013600080833DC0803B39F0E0F4803A09F479C0D5
:10137000883A09F09CCF84E080932D0210920802F5
:1013800010920702E0910502F09106020995809102
:10139000070281110FC081E0809307021092E501DE
:1013A00009C0803C09F4A6CF883C09F4A3CF883B50
:1013B00009F07DCFE091080281E08E0F8093080252
:1013C000F0E0EB51FE4F80818093BB0090910802CA
:1013D0008091070229C0809152028093BB0085EC66
:1013E0008093BC0064CF9091510280915002981775
:1013F00058F5E091510281E08E0F80935102F0E0A8
:10140000E05DFD4F8081E9CFE091510281E08E0FD8
:10141000809351028091BB00F0E0E05DFD4F80833E
:1014200090915102809150029817C8F285E8D8CF68
:10143000E091510281E08E0F809351028091BB00B8
:10144000F0E0E05DFD4F808380912F0281115CCF41
:1014500081E080932E0284EA8093BC0010922D02DA
:1014600026CF85EC8093BC0010922D0280912B0238
:10147000803230F4E0912B02F0E0E55FFD4F108206
:1014800060912B0270E0E0910902F0910A028BE07A
:1014900092E0099510922B020ACF10922C0234CFC1
:1014A0001F920F920FB60F9211242F933F938F9399
:1014B0009F93AF93BF938091530290915402A09158
:1014C0005502B09156023091950123E0230F2D373C
:1014D00058F50196A11DB11D2093950180935302EB
:1014E00090935402A0935502B093560280919601B6
:1014F00090919701A0919801B09199010196A11D39
:10150000B11D8093960190939701A0939801B09399
:101510009901BF91AF919F918F913F912F910F9022
:101520000FBE0F901F90189526E8230F0296A11D5D
:10153000B11DD2CF1F920F920FB60F9211242F938D
:101540003F934F935F936F937F938F939F93AF934B
:10155000BF93EF93FF9383E692E00E940A05FF9109
:10156000EF91BF91AF919F918F917F916F915F911B
:101570004F913F912F910F900FBE0F901F90189594
:101580001F920F920FB60F9211242F938F939F9358
:10159000EF93FF93E0917302F09174028081E091E8
:1015A0007902F0917A0282FD1BC0908180917C02C9
:1015B0008F5F8F7320917D02821741F0E0917C0252
:1015C000F0E0ED59FD4F958F80937C02FF91EF91F4
:1015D0009F918F912F910F900FBE0F901F90189594
:1015E0008081F4CFEF92FF920F931F93CF93DF93FD
:1015F000E7E5F2E01382128288EE93E0A0E0B0E02B
:1016000084839583A683B78328E131E031832083E7
:10161000E3E6F2E01382128284839583A683B78384
:101620008AE291E09183808385EC90E095878487BE
:1016300084EC90E09787868780EC90E0918B808B9C
:1016400081EC90E0938B828B82EC90E0958B848B85
:1016500086EC90E0978B868B118E128E138E148EF3
:10166000E0E0F3E0138212828CE391E091838083C7
:10167000118687E2848380E1828782E083871486F3
:10168000CDE0D3E01A8219821C821B821E821D8249
:1016900082E38F838FE1888785E289878CE0F82E4B
:1016A000FA861C861B861D861E861F86188A198A46
:1016B0000FE113E0F80110828EE18B8B1D8A1C8AEA
:1016C00088E08E8B89E08F8B8AE0888F60E088E0ED
:1016D0000E94DF0360E08F890E94DF0362E0888D53
:1016E0000E94DF038B859C8590619C878B878E8908
:1016F0000E949905E82E8F890E949905880F8E29EE
:10170000982F9F70F8018081807F892B8083E6E28B
:10171000F3E0F0828DE081838BE082831482138278
:10172000DF91CF911F910F91FF90EF900895CF938C
:10173000DF93CDB7DEB7EF970FB6F894DEBF0FBEDD
:10174000CDBF789484B5826084BD84B5816084BD4A
:1017500085B5826085BD85B5816085BD80916E004F
:10176000816080936E001092810080918100826080
:1017700080938100809181008160809381008091BD
:1017800080008160809380008091B10084608093AC
:10179000B1008091B00081608093B00080917A00A8
:1017A000846080937A0080917A00826080937A00CE
:1017B00080917A00816080937A0080917A008068BD
:1017C00080937A001092C100E0917302F09174024C
:1017D00082E08083E0916F02F09170021082E091CC
:1017E0007102F09172028FEC808310927B02E09183
:1017F0007702F091780286E08083E0917502F091A3
:101800007602808180618083E0917502F09176029A
:10181000808188608083E0917502F09176028081FA
:1018200080688083E0917502F091760280818F7DDF
:1018300080831092DC011092DB011092DE01109285
:10184000DD010E94A00381EC92E090930602809358
:10185000050282EC92E090930A02809309021092B2
:10186000050380910B03823018F098E090930503F4
:101870008093080362E370E080E090E00E945104EE
:1018800060910C0380E093E00E94B60568EE73E07F
:1018900080E090E00E94510460E380E093E00E94C9
:1018A0006A070BE416E4C8010197F1F760E380E0F2
:1018B00093E00E946A07C8010197F1F760E380E0B6
:1018C00093E00E946A0783E592E00197F1F760E2F6
:1018D00080E093E00E946A0760910503606240E047
:1018E00080E093E00E94830784E08093060340E059
:1018F0006CE080E093E00E94830740E061E080E0DC
:1019000093E00E9483078BE39FE10197F1F78091B9
:101910000903882319F080E00E949A0782E08093EF
:10192000070340E066E080E093E00E94830740E028
:1019300062E080E093E00E9483078BE39FE10197E0
:10194000F1F761E0809126030E94DF0361E080915E
:1019500027030E94DF0360912903809128030E94DE
:10196000DF0360E0809126030E94720360E08091B3
:1019700027030E94720361E08FE00E94DF0361E0B1
:101980008EE00E94DF03809118039091190390610B
:1019900090931903809318038FE18093150382E3DA
:1019A0008093140385E2809316038CE080931703E1
:1019B00080911E03887F80931E038EE18093200315
:1019C00010921A0310921B0310921C0310921D0315
:1019D0008E010F5F1F4F780101E010E07E2C6F2C0D
:1019E000C8010E947F0FF70181937F010F5F1F4F96
:1019F00007301105A9F729813A8180910001909162
:101A00000101281739070CF0ABC064E471E083E6EC
:101A100092E00E94D10765E571E083E692E00E94C2
:101A2000D10790E0E92E91E0F92E01E010E0F701F6
:101A3000D1907F01C8010E947F0FD81621F06D2D33
:101A4000C8010E94870F0F5F1F4F0730110579F7FC
:101A500081E090E00E941B0461E0809126030E94D7
:101A600072038EE80E94EB0680E00E94EB0660E0C5
:101A7000809126030E94720381E090E00E941B0483
:101A800061E0809126030E9472038EEB0E94EB06B8
:101A900080E00E94EB0683E10E94EB0689E10E9450
:101AA000EB0685E10E94EB0689E00E94EB0687E0E9
:101AB0000E94EB0683E20E94EB0680E80E94EB06A0
:101AC00060E0809126030E9472037E01F8E2EF0E2F
:101AD000F11C6E0102E2C00ED11C5E011CE1A10EE0
:101AE000B11C80E0882E80E0982E80912503909193
:101AF0001E0397FF4BC00E949905682F8FEF0E942D
:101B00008C00CE0108960E94050787E0FE013896FA
:101B1000DE011F9601900D928A95E1F71A8967E51B
:101B200071E0CE01CA960E94180967E571E0CE0106
:101B3000C4960E9418098DEE810F8330B8F560E0DD
:101B40008FE00E94720360E08EE00E94720366E7FD
:101B500071E0CE01CA960E94CA0866E771E046C0ED
:101B600068E571E083E692E00E94D10765E571E0E7
:101B700083E692E00E94D10786E0E72DF62DA0E0F3
:101B8000B1E001900D928A95E1F762CF0E9499052C
:101B9000082F809123030E949905182F8091240318
:101BA0000E949905880F602F812BA9CF8FEF810F9D
:101BB000833060F089EF810F843040F082EF810F35
:101BC000843020F01551133008F059C160E08FE0E7
:101BD0000E94720361E08EE00E94720366E771E08A
:101BE000CE01CA960E94CA0869E771E0CE01C49688
:101BF0000E94CA082FB7F894809153029091540222
:101C0000A0915502B09156022FBF40919101509181
:101C1000920160919301709194018C019D01041BCC
:101C2000150B260B370BB901A801483E534061053F
:101C3000710508F410C18093910190939201A093D3
:101C40009301B0939401CE0108960E94050787E0A6
:101C5000FE013896A72DB62D01900D928A95E1F7D9
:101C60005C800D811E8167E571E0CE018E960E9439
:101C70001809652DC7010E94D408602FC6010E9473
:101C8000D408612FC5010E94D4082AE0251508F464
:101C900001C16DE771E0CE0108960E941809B701F5
:101CA000CE0108960E947608382E492E552453946A
:101CB0001F8A1E8A198E188E1B8E1A8EBE01625DB7
:101CC0007F4FCE0146960E940109632D742DCE01EF
:101CD00046960E9476080E945208BC01CE018E965C
:101CE0000E940109CE0146960E942909552021F043
:101CF000CE0108960E9429090B3008F0CFC06DE78D
:101D000071E0CE0108960E941809B601CE0108962E
:101D10000E9476082C0101E01F8A1E8A198E188EF7
:101D20001B8E1A8EBE01625D7F4FCE0146960E94C9
:101D30000109B201CE0146960E9476080E9452081F
:101D4000BC01CE018E960E940109CE0146960E94EA
:101D50002909002321F0CE0108960E9429091B3091
:101D600008F09FC06DE771E0CE0108960E94180947
:101D7000B501CE0108960E947608582E092F11E071
:101D80001F8A1E8A198E188E1B8E1A8EBE01625DE6
:101D90007F4FCE0146960E940109652D702FCE011E
:101DA00046960E947608BC01CE018E960E940109DB
:101DB000CE0146960E942909112321F0CE010896F2
:101DC0000E942909C5010E942909C6010E9429090A
:101DD000C7010E94290980E00E949A07CE018E96D1
:101DE0000E94B0046FE771E080E093E00E94D107A9
:101DF00081E00E949A0765E871E0CE0108960E9492
:101E00001809BE01665C7F4FCE0108960E947608D5
:101E10000E94B004CE0108960E94290962E871E090
:101E200080E093E00E94D1076AE871E0CE01089655
:101E30000E941809BE016C5C7F4FCE0108960E947B
:101E400076080E94B004CE0108960E942909CE01AE
:101E50008E960E942909CE01C4960E942909CE01BE
:101E6000CA960E9429098114910409F43ECE0E9469
:101E7000F604882309F435CE0E94000032CE61E0DA
:101E80008FE00E94720360E08EE00E94720369E7B7
:101E900071E05FCE512C3E2C4F2C0ACF00E0260182
:101EA0003BCF10E05A2C0B2D6BCFBB27FB015527E6
:101EB000AA27880F991FAA1FA41710F0A41B8395A7
:101EC0005051B9F7A05DAA3308F0A95DA19300971E
:101ED00079F7B111B1931192CB010C946F0FDC0122
:101EE000FC01672F71917723E1F7329704C07C9151
:101EF0006D9370836291AE17BF07C8F30895F99987
:101F0000FECF92BD81BDF89A992780B50895262FFE
:101F1000F999FECF1FBA92BD81BD20BD0FB6F894CE
:101F2000FA9AF99A0FBE019608952F923F924F9216
:101F30005F926F927F928F929F92AF92BF92CF9259
:101F4000DF92EF92FF920F931F93CF93DF93CDB762
:101F5000DEB7CA1BDB0B0FB6F894DEBF0FBECDBFDA
:101F600009942A88398848885F846E847D848C84AB
:101F70009B84AA84B984C884DF80EE80FD800C81B4
:101F80001B81AA81B981CE0FD11D0FB6F894DEBF97
:101F90000FBECDBFED010895EE0FFF1F0590F49128
:101FA000E02D09940F931F93CF93DF938230910517
:101FB00010F482E090E0E0912D03F0912E0330E0E8
:101FC00020E0B0E0A0E0309799F42115310509F444
:101FD0004AC0281B390B24303105D8F58A819B81F2
:101FE0006115710589F1FB0193838283FE0111C0A4
:101FF000408151810281138148175907E0F0481749
:10200000590799F4109761F012960C931297139652
:102010001C933296CF01DF91CF911F910F910895BC
:1020200000932D0310932E03F4CF2115310551F0A9
:102030004217530738F0A901DB019A01BD01DF0106
:10204000F801C1CFEF01F9CF90932E0380932D03B8
:10205000CDCFFE01E20FF31F8193919322503109FE
:1020600039832883D7CF20912B0330912C03232B46
:1020700041F4209108013091090130932C03209301
:102080002B0320910601309107012115310541F400
:102090002DB73EB740910A0150910B01241B350B1F
:1020A000E0912B03F0912C03E217F307A0F42E1B11
:1020B0003F0B2817390778F0AC014E5F5F4F2417AC
:1020C000350748F04E0F5F1F50932C0340932B03AE
:1020D000819391939FCFF0E0E0E09CCFCF93DF938B
:1020E0000097E9F0FC01329713821282A0912D0330
:1020F000B0912E03ED0130E020E01097A1F4208193
:102100003181820F931F20912B0330912C032817CC
:10211000390709F061C0F0932C03E0932B03DF91A2
:10212000CF910895EA01CE17DF07E8F54A815B8178
:102130009E0141155105B1F7E901FB83EA834991FD
:102140005991C40FD51FEC17FD0761F4808191816F
:102150000296840F951FE901998388838281938178
:102160009B838A83F0E0E0E012968D919C91139717
:102170000097B9F52D913C911197CD010296820FF0
:10218000931F20912B0330912C032817390739F620
:10219000309751F510922E0310922D03B0932C031B
:1021A000A0932B03BCCFD383C28340815181840F82
:1021B000951FC817D90761F44E5F5F4F88819981D9
:1021C000480F591F518340838A819B819383828367
:1021D0002115310509F0B0CFF0932E03E0932D03C4
:1021E0009ECFFD01DC01C0CF13821282D7CFB0E0B9
:1021F000A0E0EDEFF0E10C94970F8C01009751F403
:10220000CB010E94D20F8C01C801CDB7DEB7E0E14F
:102210000C94B30FFC01E60FF71F9C01225031090B
:10222000E217F30708F49DC0D901CD91DC91119715
:10223000C617D70798F0C530D10530F3CE01049703
:102240008617970708F3C61BD70B2297C193D19324
:102250006D937C93CF010E946E10D6CF5B01AC1AB8
:10226000BD0A4C018C0E9D1EA0912D03B0912E0332
:10227000512C412CF12CE12C109731F580912B033E
:1022800090912C038815990509F05CC046165706F5
:1022900008F058C08091060190910701009741F421
:1022A0008DB79EB740910A0150910B01841B950B8D
:1022B000E817F90708F055C0F0932C03E0932B03BF
:1022C000F90171836083A0CF8D919C911197129633
:1022D0006C90129713967C901397A815B90559F531
:1022E0006C0142E0C40ED11CCA14DB0420F1AC0125
:1022F0004A195B09DA011296159780F0628273829F
:1023000051834083D9016D937C93E114F10471F002
:10231000D7011396FC93EE93129776CF22968C0FEB
:102320009D1FF90191838083F301EFCFF0932E037A
:10233000E0932D0369CF4816590608F42C017D015E
:10234000D3019ACFCB010E94D20F7C01009749F0B4
:10235000AE01B8010E94B411C8010E946E1087013D
:1023600053CF10E000E050CFFB01DC0102C0019030
:102370000D9241505040D8F70895FB01DC010190C7
:0C2380000D920020E1F70895F894FFCFC3
:10238C0001000000C84100002F0380000000400045
:10239C0014005400000000001A03ED029E06C30254
:1023AC00E602D302C402000000002C058304B90429
:1023BC007905EA04C804DC0400000000CB078304A0
:1023CC009E069D0653657474696E67732075706400
:1023DC0061746564000D0A0053657474696E6773EB
:1023EC002072656365697665642066726F6D204541
:1023FC004550524F4D004F4E004F46460030002086
:10240C002020202000524C313A00524C323A00002D
:00000001FF
