:100000000C9462000C948A000C948A000C948A0070
:100010000C948A000C948A000C948A000C948A0038
:100020000C948A000C948A000C948A000C948A0028
:100030000C948A000C948A000C948A000C948A0018
:100040000C94D20A0C948A000C94420B0C941C0B56
:100050000C948A000C948A000C948A000C948A00F8
:100060000C94B3090C948A000000000024002700BF
:100070002A0000000000250028002B0000000000DE
:1000800023002600290004040404040404040202DA
:100090000202020203030303030301020408102007
:1000A0004080010204081020010204081020000012
:1000B0000008000201000003040700000000000027
:1000C0000000740B11241FBECFEFD8E0DEBFCDBF00
:1000D00023E0AAEEB1E001C01D92A938B207E1F712
:1000E00011E0A0E0B1E0E6E9F5E202C005900D9272
:1000F000AA3EB107D9F710E0C2E6D0E004C02197CC
:10010000FE010E94D110C136D107C9F70E94190C17
:100110000C94C9120C940000CF92DF92EF92FF92E0
:10012000CF93209172033091730320FD10926703E7
:10013000A9014F715527452B29F0207E3093730379
:10014000209372032091780325FF03C02F7D209315
:100150007803209172033091730334FB992790F94F
:10016000962736FF06C03F7B3093730320937203BC
:1001700091E0209172033091730331FD08C09923FF
:1001800009F449C0326030937303209372032FB790
:10019000F8944091AD025091AE026091AF0270911F
:1001A000B0022FBF2091680330916903DA01A21BCE
:1001B000B30B2091720330917303992309F486C025
:1001C00025FD65C090916E0332FD08C0992331F082
:1001D000346030937303209372030FC09A171B0689
:1001E00019F010F091110DC0226230937303209327
:1001F000720350936B0340936A03509369034093D7
:10020000680320917203309173032F71332791E0BB
:10021000232B09F490E020917B0330917C0321157E
:10022000310509F4C2C08091780321FFBAC0806112
:10023000809378038091780322FFB5C08860809313
:100240007803E3E036952795EA95E1F730937C0350
:1002500020937B03209172033091730325FF67C1C4
:1002600030683093730320937203209172033091AE
:10027000730333FD05C0386030937303209372031A
:1002800080917803806280937803C1E091C037FD4C
:10029000B8CF26FD0CC0E091700390E1E99FF0011A
:1002A0001124AE17BF0708F4ACCF246492CFE091BD
:1002B000710327FFE091700390E1E99FF0011124A1
:1002C0002868AE17BF0708F084CF9BCF25FF19C061
:1002D00090916E039A171B0611F008F041C026FD9D
:1002E00005C0909167039F5F9093670337FD10925D
:1002F00067032F7D20613160309373032093720375
:100300002FC030FF15C037FD05C020613093730347
:100310002093720320917203309173033E773093E0
:10032000730320937203509369034093680318C0CA
:1003300090916703992339F1A901407C5527452BFA
:10034000D9F440916F03E0E14E9FA0011124A4175E
:10035000B50790F420916A0330916B03232B71F45D
:10036000209172033091730332FF4BCF3B7F309368
:1003700073032093720345CF2160BECF10926B03AD
:1003800010926A03EDCF31FFEBCF2F733D7F3860C2
:10039000309373032093720310926B0310926A03DD
:1003A000C2CF8F7E45CF877F4ACF87FF11C0C0E085
:1003B000C92BE0916C03F0916D03309711F0C111DE
:1003C00009958C2FCF91FF90EF90DF90CF900895FB
:1003D000E09179032E2F2295207F2595259525954F
:1003E0002595022E000C330B482F082E000C550BC0
:1003F00024173507E1F2220F331F220F331F242B5E
:10040000352B220F331F41E656E164E979E404C03D
:1004100075956795579547952A95D2F74370E59559
:10042000E595E595E595E1504E0F4295407F459560
:10043000459545954595242F2295207F382F3F706F
:10044000232B20937903207F09F4B1CF20917803E7
:10045000322F3370313009F45BC008F455C03230AC
:1004600009F45AC081E014160CF080E022FB332717
:1004700030F9831709F455C081E0309179033F705A
:1004800030937903C82E082E000CDD08EE08FF0813
:1004900040917403509175036091760370917703D6
:1004A0004C0D5D1D6E1D7F1D4093740350937503AD
:1004B00060937603709377038130A9F520612093D0
:1004C00078038FB7F8944091AD025091AE026091DD
:1004D000AF027091B0028FBF209168033091690321
:1004E000FA01E21BF30B9F01E0917A0380917803FC
:1004F0005093690340936803E2171306B1F0A8F024
:10050000886080937803A6CE833009F050CFAACFBD
:10051000882309F4A7CF4BCF8150823008F0A2CFB7
:1005200046CF8FEFAACF2F7ECACF877FEACF109218
:1005300067039BCE20916102260F3327331F2132A0
:100540003105ECF420918702FC0190E080E024303A
:1005500069F082E00895A09161022191AC01415CB3
:100560005D4FA40FB52FB11D2C930196861798F3FC
:1005700080916102680F6093610280E0089581E0DC
:100580000895089508950895E09136028091350206
:10059000E81730F4F0E0EB5EFD4F808190E00895C5
:1005A0008FEF9FEF089590913602809135022FEFE3
:1005B0003FEF981748F4E92FF0E0EB5EFD4F208104
:1005C00030E09F5F90933602C90108958091350213
:1005D00090913602891B990B0895CF92DF92EF928A
:1005E000FF920F931F93CF93DF937C01CB018A017E
:1005F00020911402222389F0EB016B01C40ED51E59
:10060000CC15DD0569F06991D701ED91FC91019060
:10061000F081E02DC7010995F3CF642F0E949A0263
:10062000C801DF91CF911F910F91FF90EF90DF9064
:10063000CF900895CF93DF931F92CDB7DEB7698334
:10064000209114022223F9F020913702203258F031
:1006500021E030E0FC013383228390E080E00F90C2
:10066000DF91CF91089580913802E82FF0E0EC50AF
:10067000FE4F998190838F5F809338028093370279
:1006800081E090E0ECCF61E0CE0101960E949A02F9
:10069000F7CF833081F028F4813099F08230A9F0CF
:1006A00008958730A9F08830C9F08430B1F4809182
:1006B00080008F7D03C0809180008F7780938000C1
:1006C000089584B58F7784BD089584B58F7DFBCF61
:1006D0008091B0008F778093B00008958091B00032
:1006E0008F7DF9CF1F93CF93DF93282F30E0F9014F
:1006F000E255FF4F8491F901E656FF4FD491F9017D
:10070000EA57FF4FC491CC23A9F0162F81110E9404
:100710004903EC2FF0E0EE0FFF1FEE58FF4FA591BD
:10072000B4918FB7F894EC91111108C0D095DE23E5
:10073000DC938FBFDF91CF911F910895DE2BF8CF0F
:100740001092870281E0809389021092880261E012
:1007500082E10E94720361E083E10E947203E9EB8F
:10076000F0E080818E7F808380818D7F808388E42C
:100770008093B80085E48093BC000895CF93DF9305
:1007800091E090933E028823B9F0C091B800D091D7
:10079000BA008091BC008A7B8093BC0060E082E15B
:1007A0000E94720360E083E10E9472030E94A00332
:1007B000D093BA00C093B800DF91CF910895CF9342
:1007C000DF9390E0FC01E656FF4F24918A579F4F3C
:1007D000FC0184918823C9F090E0880F991FFC01E7
:1007E000E859FF4FA591B491FC01EE58FF4FC59118
:1007F000D49161110DC09FB7F8948C9120958223FC
:100800008C938881282328839FBFDF91CF910895FF
:10081000623051F49FB7F8943C91822F80958323E6
:100820008C93E8812E2BEFCF8FB7F894EC912E2B81
:100830002C938FBFEACF3FB7F8948091F00190914D
:10084000F101A091F201B091F30126B5A89B05C07A
:100850002F3F19F00196A11DB11D3FBFBA2FA92F3F
:10086000982F8827BC01CD01620F711D811D911D3C
:1008700042E0660F771F881F991F4A95D1F70895A8
:100880008F929F92AF92BF92CF92DF92EF92FF92A0
:100890004B015C010E941B046B017C010E941B0444
:1008A0006C197D098E099F09683E73408105910589
:1008B000A8F321E0821A9108A108B10888EEC80EB9
:1008C00083E0D81EE11CF11C81149104A104B10441
:1008D00029F7FF90EF90DF90CF90BF90AF909F905F
:1008E0008F900895AF92BF92CF92DF92EF92FF92D6
:1008F0000F931F93CF93DF936C017B018B01040F48
:10090000151FEB015E01AE18BF08C017D10759F0E3
:100910006991D601ED91FC910190F081E02DC60125
:100920000995892B79F7C501DF91CF911F910F911F
:10093000FF90EF90DF90CF90BF90AF900895FC01B3
:1009400044815581608171818AE593E00C94720441
:10095000FC01538D448D252F30E0842F90E0821BC5
:10096000930B541710F0CF96089501970895FC014A
:10097000918D828D981761F0A28DAE0FBF2FB11DA2
:100980005D968C91928D9F5F9F73928F90E00895FA
:100990008FEF9FEF0895FC01918D828D981731F0B4
:1009A000828DE80FF11D858D90E008958FEF9FEF08
:1009B0000895FC01918D228D892F90E0805C9F4FDE
:1009C000821B91098F73992708958DEB92E00E9405
:1009D000D90421E0892B09F420E0822F089580E0DA
:1009E00090E0892B29F00E94E50481110C9400000D
:1009F0000895FC01A48DA80FB92FB11DA35ABF4FB4
:100A00002C91848D90E001968F739927848FA6890D
:100A1000B7892C93A089B1898C91837080648C9361
:100A2000938D848D981306C00288F389E02D808110
:100A30008F7D80830895EF92FF920F931F93CF9342
:100A4000DF93EC0181E0888F9B8D8C8D98131AC009
:100A5000E889F989808185FF15C09FB7F894EE89F0
:100A6000FF896083E889F98980818370806480834D
:100A70009FBF81E090E0DF91CF911F910F91FF9098
:100A8000EF900895F62E0B8D10E00F5F1F4F0F7340
:100A90001127E02E8C8D8E110CC00FB607FCFACFFB
:100AA000E889F989808185FFF5CFCE010E94F9049C
:100AB000F1CFEB8DEC0FFD2FF11DE35AFF4FF082CC
:100AC0009FB7F8940B8FEA89FB8980818062CFCF32
:100AD000CF93DF93EC01888D8823B9F0AA89BB8975
:100AE000E889F9898C9185FD03C0808186FD0DC060
:100AF0000FB607FCF7CF8C9185FFF2CF808185FF81
:100B0000EDCFCE010E94F904E9CFDF91CF91089596
:100B1000883058F429B130E0A90102C055954795B5
:100B20008A95E2F7CA01817008958E3028F423B1C6
:100B300030E08850990BF0CF843128F426B130E0B2
:100B40008E50990BE9CF80E00895CF92DF92EF921B
:100B5000FF920F931F93CF93DF93FC01C48121E099
:100B600020931402C093EA011092380210923702C7
:100B70008485682B81EB92E00E941A03D0913702A2
:100B8000D13208F092C00E941B046B017C0180915D
:100B90008702811165C082E08093870281E08093A3
:100BA00089028FEF809386021092AB02D093AA0243
:100BB000A4EFB1E0EAE8F2E080E0D81385C010923B
:100BC000AC028091AC02CC0FC82BC093AC028091D8
:100BD0008802813009F07CC0109288020E941B04B8
:100BE0006B017C018091AC028093BB0080913A0242
:100BF00090913B02A0913C02B0913D02892B8A2B3F
:100C00008B2B99F00E941B0400913A0210913B0239
:100C100020913C0230913D026C197D098E099F099B
:100C20000617170728073907E0F18091BC0083FDFC
:100C3000D9CF85EC8093BC000E941B046B017C0122
:100C400080918702823009F445C0809186028F3FEF
:100C500061F180918602803241F18091860225C047
:100C600080913A0290913B02A0913C02B0913D02EA
:100C7000892B8A2B8B2B09F48ACF0E941B040091AD
:100C80003A0210913B0220913C0230913D026C19D6
:100C90007D098E099F09061717072807390708F0ED
:100CA00076CF809139020E94BE03109238021092D2
:100CB000370210921402DF91CF911F910F91FF9094
:100CC000EF90DF90CF9008959D9191938F5F75CFB6
:100CD00085EEB0CF80913A0290913B02A0913C0208
:100CE000B0913D02892B8A2B8B2B09F4A9CF0E944E
:100CF0001B0400913A0210913B0220913C0230917A
:100D00003D026C197D098E099F09061717072807F0
:100D1000390708F095CFC5CF089590E080E0089599
:100D2000DF92EF92FF920F931F93CF93DF93D0E068
:100D3000C0E0E12C01E010E02091820330E0F901F5
:100D4000E255FF4F8491F901E656FF4FF490F90107
:100D5000EA57FF4FD490DD20A9F081110E9449038A
:100D6000ED2DF0E0EE0FFF1FE458FF4FA591B49179
:100D7000EC91FE2239F0C8010C2E01C0880F0A94B4
:100D8000EAF7E82A61E0809181030E94720360E043
:100D9000809181030E9472032196C830D10509F029
:100DA000CBCF8E2DDF91CF911F910F91FF90EF90C0
:100DB000DF9008950F931F93CF93DF93EC01809101
:100DC000830390918403019759F081E090E0909320
:100DD00084038093830361E0809182030E94DF0398
:100DE00061E0809180030E94720318E00FEB602F96
:100DF0006170809182030E94720361E0809181039F
:100E00000E94720360E0809181030E947203069544
:100E1000115069F78091830390918403892B49F0E5
:100E2000109284031092830360E0809182030E94F9
:100E3000DF030E949006982F929597701AE08F70AA
:100E4000919F800D11248D830E949006982F92957A
:100E500097708F70919F800D11248C830E94900653
:100E6000982F929593708F70919F800D11248B8392
:100E70000E949006982F929593708F70919F800D8D
:100E800011248A830E94900684FB992790F98F7021
:100E9000919F800D112489830E94900687708E8314
:100EA0000E949006982F929597708F70919F800D59
:100EB0001124888360E080918003DF91CF911F919E
:100EC0000F910C9472030F931F93CF938C01C62F35
:100ED0000E94A5056C2F6460C8010E94A5056C2FB7
:100EE0006B7FC8010E94A50583EC90E00197F1F7A4
:100EF000CF911F910F9108950F931F93CF93DF937D
:100F00008C01D62FC42F607F642B0E94630780E181
:100F1000D89FB00111246C2BC801DF91CF911F9194
:100F20000F910C946307CF93DF93CDB7DEB728976B
:100F30000FB6F894DEBF0FBECDBF98E0ECE0F1E055
:100F4000DE01119601900D929A95E1F7909162035E
:100F5000981708F48FEF90E0880F991F21E030E098
:100F60002C0F3D1F820F931FFC016081606840E0E1
:100F70008AE593E028960FB6F894DEBF0FBECDBF8A
:100F8000DF91CF910C947C0741E00E947C0781E0C7
:100F900090E00895FB0101900020E9F73197AF013F
:100FA000461B570BDC01ED91FC910280F381E02D93
:100FB00009948F929F92AF92BF920F931F93CF93FA
:100FC000DF93CDB7DEB7A1970FB6F894DEBF0FBEA3
:100FD000CDBF19A2423008F44AE08E010F5D1F4FC9
:100FE000842E912CB12CA12CA50194010E94AF104C
:100FF000E62FB901CA01EA3004F5E05DD801EE93AD
:101000008D01232B242B252B79F790E080E010977E
:1010100029F0BD018DEB92E00E94CA07A1960FB6A0
:10102000F894DEBF0FBECDBFDF91CF911F910F911E
:10103000BF90AF909F908F900895E95CDFCFCF92E3
:10104000DF92EF92FF92CF93DF936B017C016DE211
:101050008DEB92E00E941B05EC0166277727CB0100
:101060006C197D098E099F094AE00E94D9078C0FEF
:101070009D1FDF91CF91FF90EF90DF90CF9008956B
:101080008F3F980729F46FEF7FEFCB010C941F0877
:10109000BC01990F880B990B4AE00C94D907CF93A8
:1010A000DF93BC018DEB92E00E94CA07EC0164E47F
:1010B00071E08DEB92E00E94CA078C0F9D1FDF91BB
:1010C000CF91089585ED8093BC0080913A02909174
:1010D0003B02A0913C02B0913D020796A11DB11DBB
:1010E00023E0B695A795979587952A95D1F72091F6
:1010F000BC0024FD03C010928702089540913A027B
:1011000050913B0260913C0270913D02452B462B71
:10111000472B69F30097A105B10541F025E32A9516
:10112000F1F700000197A109B109E1CF80913902DF
:101130000C94BE030F931F93CF93DF93EC01888130
:101140009981009759F02A813B812617370730F0A3
:1011500081E0DF91CF911F910F9108958B016F5F17
:101160007F4F0E94FC11009759F0998388831B835D
:101170000A832C813D81232B59F7FC011082E8CF93
:1011800080E0E7CFCF93DF93EC01888199810097CE
:1011900011F00E947311198218821D821C821B8219
:1011A0001A82DF91CF9108950F931F93CF93DF930E
:1011B000EC010C811D810F5F1F4FB8010E949A083E
:1011C000882391F0288139818C819D8162EE71E0C4
:1011D000820F931F0E94C2121D830C83CE01DF91E8
:1011E000CF911F910F910895CE010E94C208F6CFB2
:1011F000EF92FF920F931F93CF93DF93EC01FB01CC
:10120000E080F180E114F10411F1048115810115F0
:101210001105A9F08C819D81080F191FB801CE011D
:101220000E949A08882399F0288139818C819D81B8
:10123000B701820F931F0E94C2121D830C83CE013F
:10124000DF91CF911F910F91FF90EF900895CE0104
:101250000E94C208F4CFEF92FF920F931F93CF9397
:10126000DF93EC017B018A01BA010E949A08811187
:101270000BC0CE010E94C208CE01DF91CF911F9119
:101280000F91FF90EF9008951D830C83B701888123
:1012900099810E94C212F0CFFB0101900020E9F772
:1012A0003197AF01461B570B0C942B090F931F93DB
:1012B000CF93DF93CDB7DEB729970FB6F894DEBF93
:1012C0000FBECDBF8C01862FF801118210821382D0
:1012D0001282158214824AE0BE016F5F7F4F90E058
:1012E0000E943810BE016F5F7F4FC8010E944C09F9
:1012F00029960FB6F894DEBF0FBECDBFDF91CF9118
:101300001F910F910895CF93DF93EC01FB01861796
:10131000970749F0608171816115710541F0448141
:1013200055810E942B09CE01DF91CF9108950E9433
:10133000C208F9CFFC011182108213821282158239
:101340001482FB0101900020E9F73197AF01461BA1
:10135000570B0C942B09FC0180819181009711F0AF
:101360000C94731108951F920F920FB60F921124CF
:101370002F933F934F935F936F937F938F939F939D
:10138000AF93BF93EF93FF938091B900887F80362E
:1013900009F44AC0F0F5883209F4A7C018F5803185
:1013A00009F49BC0B8F4882309F4F9C0883009F423
:1013B00094C0FF91EF91BF91AF919F918F917F91D9
:1013C0006F915F914F913F912F910F900FBE0F90B2
:1013D0001F901895883109F488C0803251F78093A6
:1013E000860214C0803409F49DC040F48033B9F300
:1013F0008833F9F68093860285ECB0C0803509F415
:1014000085C0883509F496C0883499F60E94620830
:10141000D0CF883909F48CC038F5883729F050F4DA
:10142000883611F0803729F683E080938702109286
:10143000850257C0883809F47BC0803919F080389C
:1014400009F0B7CF80918502803208F071C0E09139
:10145000850281E08E0F809385028091BB00F0E0D1
:10146000EB59FD4F80833DC0803B39F0E0F4803A7A
:1014700009F479C0883A09F09CCF84E08093870210
:101480001092620210926102E0915F02F09160029C
:1014900009958091610281110FC081E08093610202
:1014A00010923F0209C0803C09F4A6CF883C09F4A1
:1014B000A3CF883B09F07DCFE091620281E08E0FDF
:1014C00080936202F0E0E15CFD4F80818093BB007D
:1014D000909162028091610229C08091AC02809358
:1014E000BB0085EC8093BC0064CF9091AB028091EF
:1014F000AA02981758F5E091AB0281E08E0F809315
:10150000AB02F0E0E657FD4F8081E9CFE091AB02FE
:1015100081E08E0F8093AB028091BB00F0E0E65734
:10152000FD4F80839091AB028091AA029817C8F278
:1015300085E8D8CFE091AB0281E08E0F8093AB02BB
:101540008091BB00F0E0E657FD4F808380918902D7
:1015500081115CCF81E08093880284EA8093BC0093
:101560001092870226CF85EC8093BC0010928702F0
:1015700080918502803230F4E0918502F0E0EB59F1
:10158000FD4F10826091850270E0E0916302F0915E
:10159000640285E692E00995109285020ACF1092C6
:1015A000860234CF1F920F920FB60F9211242F9301
:1015B0003F938F939F93AF93BF938091AD02909190
:1015C000AE02A091AF02B091B0023091EF0123E0E2
:1015D000230F2D3758F50196A11DB11D2093EF0162
:1015E0008093AD029093AE02A093AF02B093B0028D
:1015F0008091F0019091F101A091F201B091F3017D
:101600000196A11DB11D8093F0019093F101A0936B
:10161000F201B093F301BF91AF919F918F913F91F0
:101620002F910F900FBE0F901F90189526E8230F53
:101630000296A11DB11DD2CF1F920F920FB60F922D
:1016400011242F933F934F935F936F937F938F93C7
:101650009F93AF93BF93EF93FF938DEB92E00E9424
:10166000F904FF91EF91BF91AF919F918F917F917D
:101670006F915F914F913F912F910F900FBE0F90FF
:101680001F9018951F920F920FB60F9211242F934F
:101690008F939F93EF93FF93E091CD02F091CE0251
:1016A0008081E091D302F091D40282FD1BC0908131
:1016B0008091D6028F5F8F732091D702821741F0FD
:1016C000E091D602F0E0E354FD4F958F8093D6026F
:1016D000FF91EF919F918F912F910F900FBE0F90DF
:1016E0001F9018958081F4CFEF92FF920F931F9374
:1016F000CF93DF93E1EBF2E01382128288EE93E066
:10170000A0E0B0E084839583A683B78328E131E02D
:1017100031832083EDEBF2E0138212828483958380
:10172000A683B7838AE291E09183808385EC90E081
:101730009587848784EC90E09787868780EC90E09B
:10174000918B808B81EC90E0938B828B82EC90E08C
:10175000958B848B86EC90E0978B868B118E128E06
:10176000138E148EEAE5F3E0138212828CE391E08B
:1017700091838083118687E2848380E1828782E07F
:1017800083871486C7E6D3E01A8219821C821B82E3
:101790001E821D8282E38F838FE1888785E289879D
:1017A0008CE0F82EFA861C861B861D861E861F86F8
:1017B000188A198A09E713E0F80110828EE18B8BF1
:1017C0001D8A1C8A88E08E8B89E08F8B8AE0888F47
:1017D00060E088E00E94DF0360E08F890E94DF0301
:1017E00062E0888D0E94DF038B859C8590619C87D9
:1017F0008B878E890E948805E82E8F890E94880534
:10180000880F8E29982F9F70F8018081807F892B07
:101810008083E0E8F3E0F0828DE081838BE08283D7
:1018200014821382DF91CF911F910F91FF90EF905F
:101830000895CF93DF93CDB7DEB7EF970FB6F89447
:10184000DEBF0FBECDBF789484B5826084BD84B501
:10185000816084BD85B5826085BD85B5816085BDAB
:1018600080916E00816080936E0010928100809163
:1018700081008260809381008091810081608093EB
:101880008100809180008160809380008091B10010
:1018900084608093B1008091B00081608093B0003B
:1018A00080917A00846080937A0080917A008260CF
:1018B00080937A0080917A00816080937A00809191
:1018C0007A00806880937A001092C100E091CD0286
:1018D000F091CE0282E08083E091C902F091CA02C9
:1018E0001082E091CB02F091CC028FEC80831092B9
:1018F000D502E091D102F091D20286E08083E0919E
:10190000CF02F091D002808180618083E091CF028C
:10191000F091D002808188608083E091CF02F091C5
:10192000D002808180688083E091CF02F091D00264
:1019300080818F7D80831092360210923502109242
:101940003802109237020E94A00381EC92E090933B
:10195000600280935F0282EC92E090936402809335
:10196000630210925F0380916503823018F098E063
:1019700090935F038093620362E370E080E090E005
:101980000E944004609166038AE593E00E94A505E9
:1019900068EE73E080E090E00E94400460E38AE536
:1019A00093E00E9463070BE416E4C8010197F1F786
:1019B00060E38AE593E00E946307C8010197F1F7AD
:1019C00060E38AE593E00E94630783E592E0019774
:1019D000F1F760E28AE593E00E94630760915F039C
:1019E000606240E08AE593E00E947C0784E0809397
:1019F000600340E06CE08AE593E00E947C0740E0F1
:101A000061E08AE593E00E947C078BE39FE1019708
:101A1000F1F780916303882319F080E00E94930717
:101A200082E08093610340E066E08AE593E00E94F3
:101A30007C0740E062E08AE593E00E947C078BE34C
:101A40009FE10197F1F761E0809180030E94DF033D
:101A500061E0809181030E94DF03609183038091A4
:101A600082030E94DF0360E0809180030E94720382
:101A700060E0809181030E94720361E08FE00E9428
:101A8000DF0361E08EE00E94DF038091720390919A
:101A90007303906190937303809372038FE180933B
:101AA0006F0382E380936E0385E2809370038CE082
:101AB0008093710380917803887F809378038EE10F
:101AC00080937A0310927403109275031092760338
:101AD000109277038E010F5F1F4F780101E010E035
:101AE0007E2C6F2CC8010E946210F70181937F0148
:101AF0000F5F1F4F07301105A9F729813A818091A7
:101B0000000190910101281739070CF00EC187E4FC
:101B100091E00E944F0890E0E92E91E0F92E01E05B
:101B200010E0F701D1907F01C8010E946210D81621
:101B300021F06D2DC8010E946A100F5F1F4F073002
:101B4000110579F77E01F8E2EF0EF11C6E0102E259
:101B5000C00ED11C5E011CE1A10EB11C80E0882EDC
:101B600080E0982E80917F039091780397FFEBC0DF
:101B70000E948805682F8FEF0E948C008091780367
:101B800085FF52C066E771E08DEB92E00E94CA07C4
:101B90008091780384FFE7C081E0082E000C990B48
:101BA0000E94400861E871E08DEB92E00E94CA0754
:101BB0008091780383FB882780F990E00E94400899
:101BC00069E871E08DEB92E00E94CA078091720390
:101BD00085FB882780F990E00E94400861E971E068
:101BE0008DEB92E00E94CA076091740370917503B7
:101BF000809176039091770397FFB7C00E941F08EA
:101C00006CE971E08DEB92E00E94CA076091670376
:101C100070E090E080E04AE00E94D90764E471E05F
:101C20008DEB92E00E94CA078091780384FD0CC07E
:101C300085FF0AC0809172039091730397FD04C0E1
:101C400086EA91E00E944F08809178038073803388
:101C500051F4809172039091730397FD04C08BEA55
:101C600091E00E944F088091780384FD0CC085FFAD
:101C70000AC0809172039091730397FF04C081EBB7
:101C800091E00E944F08809178038073803351F473
:101C9000809172039091730397FF04C08AEB91E0E7
:101CA0000E944F088091720381FF04C084EC91E090
:101CB0000E944F0880917203909173038075917018
:101CC000409721F48AEC91E00E944F08CE010896DB
:101CD0000E94DA0687E0FE013896DE011F96019029
:101CE0000D928A95E1F71A8966E471E0CE01CA96F1
:101CF0000E949A0966E471E0CE01C4960E949A0996
:101D00008DEE810F8330A8F560E08FE00E947203B2
:101D100060E08EE00E94720360ED71E0CE01CA9631
:101D20000E944C0960ED71E044C088E591E00E949A
:101D30004F0886E0E72DF62DA0E0B1E001900D926E
:101D40008A95E1F7FFCE0E948805082F80917D03D8
:101D50000E948805182F80917E030E948805880FB5
:101D6000602F812B09CF8FEF18CF4AE00E94D9074F
:101D700047CF8FEF810F833060F089EF810F843080
:101D800040F082EF810F843020F01551133008F0BD
:101D900059C160E08FE00E94720361E08EE00E9412
:101DA000720360ED71E0CE01CA960E944C0963EDAA
:101DB00071E0CE01C4960E944C092FB7F89480912F
:101DC000AD029091AE02A091AF02B091B0022FBFD0
:101DD0004091EB015091EC016091ED017091EE01A9
:101DE0008C019D01041B150B260B370BB901A801B3
:101DF000483E53406105710508F410C18093EB0122
:101E00009093EC01A093ED01B093EE01CE01089602
:101E10000E94DA0687E0FE013896A72DB62D0190C4
:101E20000D928A95E1F75C800D811E8166E471E078
:101E3000CE018E960E949A09652DC7010E9456090F
:101E4000602FC6010E945609612FC5010E945609E4
:101E50002AE0251508F401C167ED71E0CE0108966E
:101E60000E949A09B701CE0108960E94F808382E00
:101E7000492E552453941F8A1E8A198E188E1B8E44
:101E80001A8EBE01625D7F4FCE0146960E94830985
:101E9000632D742DCE0146960E94F8080E94D40846
:101EA000BC01CE018E960E948309CE0146960E9407
:101EB000AB09552021F0CE0108960E94AB090B30EA
:101EC00008F0CFC067ED71E0CE0108960E949A0934
:101ED000B601CE0108960E94F8082C0101E01F8A85
:101EE0001E8A198E188E1B8E1A8EBE01625D7F4F60
:101EF000CE0146960E948309B201CE0146960E9409
:101F0000F8080E94D408BC01CE018E960E94830975
:101F1000CE0146960E94AB09002321F0CE0108961F
:101F20000E94AB091B3008F09FC067ED71E0CE0145
:101F300008960E949A09B501CE0108960E94F808F9
:101F4000582E092F11E01F8A1E8A198E188E1B8E9B
:101F50001A8EBE01625D7F4FCE0146960E948309B4
:101F6000652D702FCE0146960E94F808BC01CE0167
:101F70008E960E948309CE0146960E94AB091123DA
:101F800021F0CE0108960E94AB09C5010E94AB0961
:101F9000C6010E94AB09C7010E94AB0980E00E9404
:101FA0009307CE018E960E949F0469ED71E08AE549
:101FB00093E00E94CA0781E00E9493076FED71E0F1
:101FC000CE0108960E949A09BE01665C7F4FCE0141
:101FD00008960E94F8080E949F04CE0108960E946D
:101FE000AB096CED71E08AE593E00E94CA0764EEEC
:101FF00071E0CE0108960E949A09BE016C5C7F4F89
:10200000CE0108960E94F8080E949F04CE0108960F
:102010000E94AB09CE018E960E94AB09CE01C496F8
:102020000E94AB09CE01CA960E94AB0981149104AB
:1020300009F498CD0E94E504882309F48FCD0E940D
:1020400000008CCD61E08FE00E94720360E08EE0C2
:102050000E94720363ED71E061CE512C3E2C4F2C37
:102060000ACF00E026013BCF10E05A2C0B2D6BCF9E
:10207000BB27FB015527AA27880F991FAA1FA41762
:1020800010F0A41B83955051B9F7A05DAA3308F056
:10209000A95DA193009779F7B111B1931192CB018A
:1020A0000C945210DC01FC01672F71917723E1F74A
:1020B000329704C07C916D9370836291AE17BF0715
:1020C000C8F30895F999FECF92BD81BDF89A99277A
:1020D00080B50895262FF999FECF1FBA92BD81BD14
:1020E00020BD0FB6F894FA9AF99A0FBE019608959A
:1020F0002F923F924F925F926F927F928F929F9218
:10210000AF92BF92CF92DF92EF92FF920F931F9305
:10211000CF93DF93CDB7DEB7CA1BDB0B0FB6F894B6
:10212000DEBF0FBECDBF09942A88398848885F84F6
:102130006E847D848C849B84AA84B984C884DF8067
:10214000EE80FD800C811B81AA81B981CE0FD11D4B
:102150000FB6F894DEBF0FBECDBFED010895A1E22A
:102160001A2EAA1BBB1BFD010DC0AA1FBB1FEE1F11
:10217000FF1FA217B307E407F50720F0A21BB30B5C
:10218000E40BF50B661F771F881F991F1A9469F7D8
:1021900060957095809590959B01AC01BD01CF0134
:1021A0000895EE0FFF1F0590F491E02D09940F9311
:1021B0001F93CF93DF938230910510F482E090E07B
:1021C000E0918703F091880330E020E0B0E0A0E0E8
:1021D000309799F42115310509F44AC0281B390BB1
:1021E00024303105D8F58A819B816115710589F10B
:1021F000FB0193838283FE0111C0408151810281E2
:10220000138148175907E0F04817590799F41097B8
:1022100061F012960C93129713961C933296CF018D
:10222000DF91CF911F910F91089500938703109331
:102230008803F4CF2115310551F04217530738F0C8
:10224000A901DB019A01BD01DF01F801C1CFEF0156
:10225000F9CF9093880380938703CDCFFE01E20FDF
:10226000F31F819391932250310939832883D7CF6B
:102270002091850330918603232B41F4209108019E
:102280003091090130938603209385032091060144
:10229000309107012115310541F42DB73EB740912A
:1022A0000A0150910B01241B350BE0918503F0913D
:1022B0008603E217F307A0F42E1B3F0B28173907FC
:1022C00078F0AC014E5F5F4F2417350748F04E0F92
:1022D0005F1F5093860340938503819391939FCF13
:1022E000F0E0E0E09CCFCF93DF930097E9F0FC01B2
:1022F000329713821282A0918703B0918803ED0177
:1023000030E020E01097A1F420813181820F931FEB
:1023100020918503309186032817390709F061C0A1
:10232000F0938603E0938503DF91CF910895EA014E
:10233000CE17DF07E8F54A815B819E014115510503
:10234000B1F7E901FB83EA8349915991C40FD51F85
:10235000EC17FD0761F4808191810296840F951F2F
:10236000E90199838883828193819B838A83F0E04A
:10237000E0E012968D919C9113970097B9F52D91FD
:102380003C911197CD010296820F931F20918503F6
:10239000309186032817390739F6309751F5109296
:1023A000880310928703B0938603A0938503BCCF64
:1023B000D383C28340815181840F951FC817D907E9
:1023C00061F44E5F5F4F88819981480F591F518397
:1023D00040838A819B81938382832115310509F093
:1023E000B0CFF0938803E09387039ECFFD01DC011B
:1023F000C0CF13821282D7CFB0E0A0E0E2E0F2E1DA
:102400000C947A108C01009751F4CB010E94D710E4
:102410008C01C801CDB7DEB7E0E10C949610FC0149
:10242000E60FF71F9C0122503109E217F30708F469
:102430009DC0D901CD91DC911197C617D70798F0AF
:10244000C530D10530F3CE0104978617970708F3FE
:10245000C61BD70B2297C193D1936D937C93CF0169
:102460000E947311D6CF5B01AC1ABD0A4C018C0ED1
:102470009D1EA0918703B0918803512C412CF12C13
:10248000E12C109731F58091850390918603881592
:10249000990509F05CC04616570608F058C08091AF
:1024A000060190910701009741F48DB79EB74091C6
:1024B0000A0150910B01841B950BE817F90708F0EE
:1024C00055C0F0938603E0938503F901718360831F
:1024D000A0CF8D919C91119712966C9012971396A4
:1024E0007C901397A815B90559F56C0142E0C40E0C
:1024F000D11CCA14DB0420F1AC014A195B09DA01D2
:102500001296159780F06282738251834083D901BD
:102510006D937C93E114F10471F0D7011396FC9351
:10252000EE93129776CF22968C0F9D1FF90191831F
:102530008083F301EFCFF0938803E093870369CFA3
:102540004816590608F42C017D01D3019ACFCB011E
:102550000E94D7107C01009749F0AE01B8010E949B
:10256000B912C8010E947311870153CF10E000E037
:1025700050CFFB01DC0102C001900D924150504050
:10258000D8F70895FB01DC0101900D920020E1F7DE
:062590000895F894FFCF4E
:1025960001000000C84100008903800000004000DF
:1025A60014005400000000001A03ED028D06C30259
:1025B600E602D302C402000000001B057204A80450
:1025C6006805D904B704CB0400000000C4077204F0
:1025D6008D068C060D0A0053657474696E67732048
:1025E600757064617465640053657474696E6773AD
:1025F6002072656365697665642066726F6D204535
:102606004550524F4D007475726E3A2064697220BF
:10261600002C206661737420002C20686F6C642087
:10262600002C20636F756E74657220002C20636C1D
:1026360069636B7320006C65667400726967687401
:10264600006C656674486F6C6400726967687448EC
:102656006F6C6400707265737300636C69636B0002
:102666004F4E004F464600300020202020200052CA
:0A2676004C313A00524C323A000099
:00000001FF
