:100000000C9463000C948B000C948B000C948B006C
:100010000C948B000C948B000C948B000C948B0034
:100020000C948B000C948B000C948B000C948B0024
:100030000C948B000C948B000C948B000C948B0014
:100040000C94D20D0C948B000C94420E0C941C0E4C
:100050000C948B000C948B000C948B000C948B00F4
:100060000C94B30C0C948B000000000024002700BB
:100070002A0000000000250028002B0000000000DE
:1000800023002600290004040404040404040202DA
:100090000202020203030303030301020408102007
:1000A0004080010204081020010204081020000012
:1000B0000008000201000003040700000000000027
:1000C0000000740E781211241FBECFEFD8E0DEBFFF
:1000D000CDBF24E0A8E8B2E001C01D92AF33B20763
:1000E000E1F712E0A0E0B1E0EAE6FAE202C0059032
:1000F0000D92A838B107D9F710E0C2E6D0E004C0ED
:100100002197FE010E943013C136D107C9F70E9422
:100110002F0F0C9428150C94000080912E048073EE
:10012000803339F4809129048095881F8827881F9F
:10013000089580E0089580912E0484FD09C085FF14
:1001400007C0809129048095881F8827881F0895FB
:1001500080E0089520910B03260F3327331F2132AF
:100160003105ECF420913103FC0190E080E0243073
:1001700069F082E00895A0910B032191AC014751F1
:100180005D4FA40FB52FB11D2C930196861798F3E0
:1001900080910B03680F60930B0380E0089581E06A
:1001A0000895089508950895E091E0028091DF0296
:1001B000E81730F4F0E0E154FD4F808190E00895BD
:1001C0008FEF9FEF08959091E0028091DF022FEF73
:1001D0003FEF981748F4E92FF0E0E154FD4F2081FC
:1001E00030E09F5F9093E002C90108958091DF02A3
:1001F0009091E002891B990B0895CF92DF92EF92C4
:10020000FF920F931F93CF93DF937C01CB018A0161
:100210002091BE02222389F0EB016B01C40ED51E92
:10022000CC15DD0569F06991D701ED91FC91019044
:10023000F081E02DC7010995F3CF642F0E94AA0039
:10024000C801DF91CF911F910F91FF90EF90DF9048
:10025000CF900895CF93DF931F92CDB7DEB7698318
:100260002091BE022223F9F02091E102203258F0C1
:1002700021E030E0FC013383228390E080E00F90A6
:10028000DF91CF9108958091E202E82FF0E0E256ED
:10029000FD4F998190838F5F8093E2028093E1020A
:1002A00081E090E0ECCF61E0CE0101960E94AA00CF
:1002B000F7CF833081F028F4813099F08230A9F0B3
:1002C00008958730A9F08830C9F08430B1F4809166
:1002D00080008F7D03C0809180008F7780938000A5
:1002E000089584B58F7784BD089584B58F7DFBCF45
:1002F0008091B0008F778093B00008958091B00016
:100300008F7DF9CF1F93CF93DF93282F30E0F90132
:10031000E255FF4F8491F901E656FF4FD491F90160
:10032000EA57FF4FC491CC23A9F0162F81110E94E8
:100330005901EC2FF0E0EE0FFF1FEE58FF4FA59193
:10034000B4918FB7F894EC91111108C0D095DE23C9
:10035000DC938FBFDF91CF911F910895DE2BF8CFF3
:100360001092310381E0809333031092320361E0F5
:1003700082E10E94820161E083E10E948201E9EB57
:10038000F0E080818E7F808380818D7F808388E410
:100390008093B80085E48093BC000895CF93DF93E9
:1003A00091E09093E8028823B9F0C091B800D09111
:1003B000BA008091BC008A7B8093BC0060E082E13F
:1003C0000E94820160E083E10E9482010E94B001EC
:1003D000D093BA00C093B800DF91CF910895CF9326
:1003E000DF9390E0FC01E656FF4F24918A579F4F20
:1003F000FC0184918823C9F090E0880F991FFC01CB
:10040000E859FF4FA591B491FC01EE58FF4FC591FB
:10041000D49161110DC09FB7F8948C9120958223DF
:100420008C938881282328839FBFDF91CF910895E3
:10043000623051F49FB7F8943C91822F80958323CA
:100440008C93E8812E2BEFCF8FB7F894EC912E2B65
:100450002C938FBFEACF2091390430913A042817AA
:10046000390749F090933A0480933904682F8091BA
:1004700038040C94EF0108953FB7F89480919A02E4
:1004800090919B02A0919C02B0919D0226B5A89BE1
:1004900005C02F3F19F00196A11DB11D3FBFBA2F16
:1004A000A92F982F8827BC01CD01620F711D811DD6
:1004B000911D42E0660F771F881F991F4A95D1F75B
:1004C00008958F929F92AF92BF92CF92DF92EF9258
:1004D000FF924B015C010E943C026B017C010E9477
:1004E0003C026C197D098E099F09683E73408105A5
:1004F0009105A8F321E0821A9108A108B10888EEBD
:10050000C80E83E0D81EE11CF11C81149104A104E3
:10051000B10429F7FF90EF90DF90CF90BF90AF909C
:100520009F908F9008952FB7F894609196027091E4
:10053000970280919802909199022FBF08950F938E
:100540001F93CF93DF93C82F8091280490912904A3
:1005500080FD10921D049C012F713327232B29F05D
:10056000807E909329048093280480912E0485FF37
:1005700003C08F7D80932E048091280490912904DC
:1005800094FBDD27D0F9D62796FF06C09F7B90937A
:10059000290480932804D1E08091280490912904B3
:1005A00091FD08C0DD2309F440C0926090932904B6
:1005B000809328040E94930220911E0430911F040E
:1005C000FB01E21BF30B2091280430912904DD2369
:1005D00009F485C025FD64C04091240432FD08C0A3
:1005E000442331F0346030932904209328040FC051
:1005F0004E171F0619F010F041110DC02262309302
:10060000290420932804709321046093200470939C
:100610001F0460931E0480912804909129048F7117
:100620009927D1E0892B09F4D0E080913104909191
:100630003204009709F4C2C020912E0481FFBAC091
:10064000206120932E0420912E0482FFB5C02860E3
:1006500020932E0453E0969587955A95E1F7909351
:10066000320480933104809128049091290485FFFD
:100670005EC1906890932904809328048091280497
:100680009091290493FD05C098609093290480936C
:10069000280480912E04806280932E0461E091C032
:1006A00037FDB9CF26FD0CC040912604A0E14A9F3A
:1006B000A0011124E417F50708F4ADCF246493CF0B
:1006C0004091270427FF40912604A0E14A9FA00102
:1006D00011242868E417F50708F085CF9CCF25FF83
:1006E00019C0809124048E171F0611F008F041C034
:1006F00026FD05C080911D048F5F80931D0437FD8A
:1007000010921D042F7D20613160309329042093C5
:1007100028042FC030FF15C037FD05C0206130937D
:1007200029042093280420912804309129043E773D
:10073000309329042093280470931F0460931E04AF
:1007400018C040911D04442339F1C901807C9927C8
:10075000892BD9F48091250440E1849FC0011124A4
:10076000E817F90790F48091200490912104892BD7
:1007700071F4809128049091290492FF4CCF9B7FC3
:10078000909329048093280446CF2160BECF109215
:10079000210410922004EDCF31FFEBCF2F733D7F6A
:1007A0003860309329042093280410922104109279
:1007B0002004C2CF2F7E45CF277F4ACFC7FF10C06E
:1007C00060E0D62BE0912204F0912304309711F0E1
:1007D000D11109958D2FDF91CF911F910F91089520
:1007E00080912F04282F2295207F259525952595EA
:1007F0002595022E000C330B4C2F0C2E000C550BA4
:1008000024173507E9F2220F331F220F331F242B41
:10081000352B220F331F41E656E164E979E404C029
:1008200075956795579547952A95D2F743708595A5
:100830008595859585958150480F4295407F4595D2
:10084000459545954595842F8295807F9C2F9F7077
:10085000892B80932F04807F09F4B2CF80912E04DE
:10086000982F9370913009F453C008F44DC0923022
:1008700009F452C091E014160CF090E082FB22279C
:1008800020F9921709F44DC091E020912F042F70A8
:1008900020932F04092F092E000C110B220B330B70
:1008A00040912A0450912B0460912C0470912D04E6
:1008B000400F511F621F731F40932A0450932B0453
:1008C00060932C0470932D04913069F580618093BE
:1008D0002E040E94930220911E0430911F04AB014C
:1008E000421B530B9A014091300450912E04709397
:1008F0001F0460931E04852F42171306B1F0A8F061
:10090000886080932E04AFCEC33009F059CFB2CFA8
:10091000CC2309F4AFCF54CFC150C23008F0AACFD6
:100920004FCF9FEFB2CF8F7ED2CF877FEACF10928B
:100930001D04A4CEAF92BF92CF92DF92EF92FF92AE
:100940000F931F93CF93DF936C017B018B01040FF7
:10095000151FEB015E01AE18BF08C017D10759F093
:100960006991D601ED91FC910190F081E02DC601D5
:100970000995892B79F7C501DF91CF911F910F91CF
:10098000FF90EF90DF90CF90BF90AF900895FC0163
:10099000538D448D252F30E0842F90E0821B930BE4
:1009A000541710F0CF96089501970895FC01918D8A
:1009B000828D981761F0A28DAE0FBF2FB11D5D968D
:1009C0008C91928D9F5F9F73928F90E008958FEF2F
:1009D0009FEF0895FC01918D828D981731F0828DE3
:1009E000E80FF11D858D90E008958FEF9FEF08953A
:1009F000FC01918D228D892F90E0805C9F4F821B9E
:100A000091098F739927089583E693E00E94F80473
:100A100021E0892B09F420E0822F089580E090E006
:100A2000892B29F00E94040581110C94000008957F
:100A3000FC01A48DA80FB92FB11DA35ABF4F2C9153
:100A4000848D90E001968F739927848FA689B7894A
:100A50002C93A089B1898C91837080648C93938D41
:100A6000848D981306C00288F389E02D80818F7DE4
:100A700080830895EF92FF920F931F93CF93DF939C
:100A8000EC0181E0888F9B8D8C8D98131AC0E889CA
:100A9000F989808185FF15C09FB7F894EE89FF8999
:100AA0006083E889F98980818370806480839FBF37
:100AB00081E090E0DF91CF911F910F91FF90EF9037
:100AC0000895F62E0B8D10E00F5F1F4F0F73112747
:100AD000E02E8C8D8E110CC00FB607FCFACFE88982
:100AE000F989808185FFF5CFCE010E941805F1CFED
:100AF000EB8DEC0FFD2FF11DE35AFF4FF0829FB7F6
:100B0000F8940B8FEA89FB8980818062CFCFCF93E5
:100B1000DF93EC01888D8823B9F0AA89BB89E88925
:100B2000F9898C9185FD03C0808186FD0DC00FB6CB
:100B300007FCF7CF8C9185FFF2CF808185FFEDCF49
:100B4000CE010E941805E9CFDF91CF91089588303A
:100B500058F429B130E0A90102C0559547958A950E
:100B6000E2F7CA01817008958E3028F423B130E095
:100B70008850990BF0CF843128F426B130E08E50A4
:100B8000990BE9CF80E00895CF92DF92EF92FF9228
:100B90000F931F93CF93DF93FC01C48121E0209337
:100BA000BE02C0938C021092E2021092E102848590
:100BB000682B87E593E00E942A01D091E102D132AF
:100BC00008F092C00E943C026B017C0180913103CD
:100BD000811165C082E08093310381E0809333030B
:100BE0008FEF8093300310925503D0935403AEE9F6
:100BF000B2E0E4E3F3E080E0D81385C0109256033E
:100C000080915603CC0FC82BC093560380913203BA
:100C1000813009F07CC0109232030E943C026B01CB
:100C20007C01809156038093BB008091E4029091F7
:100C3000E502A091E602B091E702892B8A2B8B2B6B
:100C400099F00E943C020091E4021091E50220918B
:100C5000E6023091E7026C197D098E099F0906179B
:100C6000170728073907E0F18091BC0083FDD9CF31
:100C700085EC8093BC000E943C026B017C0180915A
:100C80003103823009F445C0809130038F3F61F118
:100C900080913003803241F18091300325C08091F2
:100CA000E4029091E502A091E602B091E702892B5F
:100CB0008A2B8B2B09F48ACF0E943C020091E4021C
:100CC0001091E5022091E6023091E7026C197D094E
:100CD0008E099F09061717072807390708F076CFEE
:100CE0008091E3020E94CE011092E2021092E10292
:100CF0001092BE02DF91CF911F910F91FF90EF9064
:100D0000DF90CF9008959D9191938F5F75CF85EE81
:100D1000B0CF8091E4029091E502A091E602B091FB
:100D2000E702892B8A2B8B2B09F4A9CF0E943C0266
:100D30000091E4021091E5022091E6023091E70271
:100D40006C197D098E099F090617170728073907AF
:100D500008F095CFC5CF089590E080E00895892BE5
:100D600029F46CE872E090E080E00895609117014A
:100D7000709118018091190190911A010895DF92E4
:100D8000EF92FF920F931F93CF93DF93D0E0C0E0D9
:100D9000E12C01E010E02091380430E0F901E25547
:100DA000FF4F8491F901E656FF4FF490F901EA579D
:100DB000FF4FD490DD20A9F081110E945901ED2D43
:100DC000F0E0EE0FFF1FE458FF4FA591B491EC91B6
:100DD000FE2239F0C8010C2E01C0880F0A94EAF7F0
:100DE000E82A61E0809137040E94820160E08091EE
:100DF00037040E9482012196C830D10509F0CBCF7B
:100E00008E2DDF91CF911F910F91FF90EF90DF908A
:100E10000895CF93DF93D82FC8E06D2F6170809134
:100E200038040E94820161E0809137040E948201AF
:100E300060E0809137040E948201D695C15069F725
:100E4000DF91CF910895EF92FF921F93CF93DF939D
:100E5000EC0181E090E00E942B0286E3E82E84E022
:100E6000F82E61E0F70180810E9482018FEB0E94E1
:100E7000090790E080E00E942B020E94BF06982F95
:100E8000929597701AE08F70919F800D11248D8339
:100E90000E94BF06982F929597708F70919F800D3A
:100EA00011248C830E94BF06982F929593708F70A7
:100EB000919F800D11248B830E94BF06982F9295DD
:100EC00093708F70919F800D11248A830E94BF06BA
:100ED00084FB992790F98F70919F800D112489834D
:100EE0000E94BF0687708E830E94BF06982F92953E
:100EF00097708F70919F800D1124888360E0F701B7
:100F00008081DF91CF911F91FF90EF900C9482012F
:100F10000F931F93CF938C01C62F0E94C4056C2F93
:100F20006460C8010E94C4056C2F6B7FC8010E94D9
:100F3000C40583EC90E00197F1F7CF911F910F91D9
:100F400008950F931F93CF93DF938C01D62FC42F57
:100F5000607F642B0E94880780E1D89FB001112434
:100F60006C2BC801DF91CF911F910F910C948807D2
:100F7000CF93DF93CDB7DEB728970FB6F894DEBFD7
:100F80000FBECDBF98E0EBE1F1E0DE0111960190DC
:100F90000D929A95E1F790911804961708F46FEF67
:100FA000262F30E0220F331F41E050E04C0F5D1F31
:100FB000240F351FF9016081680F606840E080E10F
:100FC00094E028960FB6F894DEBF0FBECDBFDF9138
:100FD000CF910C94A10740E061E080E194E00E9491
:100FE000A1078BE39FE10197F1F780911904882312
:100FF00021F060E080E00C94B807089541E00E9481
:10100000A10781E090E00895FB0101900020E9F73D
:101010003197AF01461B570BDC01ED91FC9102802B
:10102000F381E02D09948F929F92AF92BF920F931C
:101030001F93CF93DF93CDB7DEB7A1970FB6F89488
:10104000DEBF0FBECDBF19A2423008F44AE08E01C8
:101050000F5D1F4F842E912CB12CA12CA501940162
:101060000E940E13E62FB901CA01EA3004F5E05DD3
:10107000D801EE938D01232B242B252B79F790E0BB
:1010800080E0109729F0BD0180E194E00E940408FF
:10109000A1960FB6F894DEBF0FBECDBFDF91CF9102
:1010A0001F910F91BF90AF909F908F900895E95C32
:1010B000DFCFCF93DF93FC01448155816081718143
:1010C00083E693E00E949A04EC016BE571E083E60D
:1010D00093E00E9404088C0F9D1FDF91CF9108952B
:1010E000CF93DF93BC0183E693E00E940408EC01F8
:1010F0006BE571E083E693E00E9404088C0F9D1F6E
:10110000DF91CF91089560E081E00E94B80767E623
:1011100071E080E194E00E9404088091280490919D
:10112000290480759170409741F4109292021092B8
:10113000910210929302109294020895CF93DF933C
:1011400060E081E00E94B8076EE571E080E194E024
:101150000E94040880912804909129048075917060
:10116000409709F05EC0C0910E01D0910D0181E061
:1011700090E00E942B0261E0809136040E9482017F
:101180008EE80E94090780E00E94090760E08091D4
:1011900036040E94820181E090E00E942B0261E00F
:1011A000809136040E9482018EEB0E94090780E044
:1011B0000E9409078C2F6CE30E940213892FCAE05A
:1011C0006C2F0E9402138295807F890F0E9409076D
:1011D0008D2F68E10E940213892F6C2F0E94021349
:1011E0008295807F890F0E94090785E10E94090787
:1011F00089E00E94090787E00E94090783E20E94B4
:10120000090780E80E94090760E0809136040E9487
:101210008201109292021092910210929302109207
:101220009402DF91CF91089560E081E00E94B807B9
:101230006CE671E080E194E00E94040861E081E0E6
:101240000E94B80760910E0170E090E080E04AE0F3
:101250000E941308809192028823B1F00E949B00A3
:10126000882339F080910E01882319F081508093F2
:101270000E010E948D00882339F080910E018C337D
:1012800018F48F5F80930E01089560E081E00E9462
:10129000B8076BE771E080E194E00E94040861E028
:1012A00081E00E94B80760910D0170E090E080E05D
:1012B0004AE00E941308809192028823B1F00E94B4
:1012C0009B00882339F080910D01882319F081500B
:1012D00080930D010E948D00882339F080910D01CB
:1012E000883118F48F5F80930D01089560E081E0EC
:1012F0000E94B80768E871E080E194E00C9404086B
:1013000060E081E00E94B80769E971E080E194E063
:101310000C94040860E081E00E94B8076AEA71E07A
:1013200080E194E00C94040885ED8093BC008091EA
:10133000E4029091E502A091E602B091E7020796DF
:10134000A11DB11D23E0B695A795979587952A9580
:10135000D1F72091BC0024FD03C010923103089501
:101360004091E4025091E5026091E6027091E7023B
:10137000452B462B472B69F30097A105B10541F09A
:1013800025E32A95F1F700000197A109B109E1CF02
:101390008091E3020C94CE010F931F93CF93DF93C0
:1013A000EC0188819981009759F02A813B812617A9
:1013B000370730F081E0DF91CF911F910F910895B1
:1013C0008B016F5F7F4F0E945B14009759F09983E8
:1013D00088831B830A832C813D81232B59F7FC01D1
:1013E0001082E8CF80E0E7CFCF93DF93EC018881D4
:1013F0009981009711F00E94D213198218821D82E0
:101400001C821B821A82DF91CF9108950F931F9344
:10141000CF93DF93EC010C811D810F5F1F4FB8014B
:101420000E94CC09882391F0288139818C819D818B
:1014300068EB71E0820F931F0E9421151D830C83BE
:10144000CE01DF91CF911F910F910895CE010E949F
:10145000F409F6CFEF92FF920F931F93CF93DF9390
:10146000EC01FB01E080F180E114F10411F1048151
:10147000158101151105A9F08C819D81080F191F97
:10148000B801CE010E94CC09882399F028813981C6
:101490008C819D81B701820F931F0E9421151D83AE
:1014A0000C83CE01DF91CF911F910F91FF90EF90B0
:1014B0000895CE010E94F409F4CFEF92FF920F93AA
:1014C0001F93CF93DF93EC017B018A01BA010E9445
:1014D000CC0981110BC0CE010E94F409CE01DF912D
:1014E000CF911F910F91FF90EF9008951D830C8372
:1014F000B701888199810E942115F0CFEF92FF9268
:101500000F931F93CF93DF93CDB7DEB762970FB6DC
:10151000F894DEBF0FBECDBF8C01CB01F801118264
:10152000108213821282158214824AE09E012F5F7C
:101530003F4F7901B9010E948012F701019000200C
:10154000E9F73197AF014E195F09B701C8010E9451
:101550005D0A62960FB6F894DEBF0FBECDBFDF9175
:10156000CF911F910F91FF90EF900895EF92FF920E
:101570000F931F93CF93DF93CDB7DEB729970FB6A5
:10158000F894DEBF0FBECDBF8C01862FF80111820B
:10159000108213821282158214824AE09E012F5F0C
:1015A0003F4F7901B90190E00E948B12F701019041
:1015B0000020E9F73197AF014E195F09B701C80163
:1015C0000E945D0A29960FB6F894DEBF0FBECDBF0C
:1015D000DF91CF911F910F91FF90EF900895CF93DE
:1015E000DF93EC01FB018617970749F06081718159
:1015F0006115710541F0448155810E945D0ACE015B
:10160000DF91CF9108950E94F409F9CFFC01118276
:10161000108213821282158214820C94EF0AFC014C
:101620001182108213821282158214826115710553
:1016300051F0FB0101900020E9F73197AF01461B03
:10164000570B0C945D0A0895FC01808191810097ED
:1016500011F00C94D21308957F928F929F92AF92C3
:10166000BF92CF92DF92EF92FF920F931F93CF938F
:10167000DF93CDB7DEB7AD970FB6F894DEBF0FBEE0
:10168000CDBF0E949302009188021091890220919F
:101690008A0230918B026B017C01C01AD10AE20AE6
:1016A000F30A970186010C3211402105310508F437
:1016B00046C1609388027093890280938A02909356
:1016C0008B02CE0101960E94230787E0FE0131962E
:1016D000DE01199601900D928A95E1F79C84AD8404
:1016E000BE846DE571E0CE0188960E940F0B7E01ED
:1016F00082E2E80EF11C692DC7010E94B60A6E0154
:10170000ECE1CE0ED11C6A2DC6010E94B60A8E01F4
:101710000A5E1F4F6B2DC8010E94B60AF9E0F91549
:1017200008F4FEC061EC71E0CE0101960E940F0B3F
:10173000B701CE0101960E942A0A782E892E99249B
:101740009394BE01685D7F4FCE0140960E94060BC8
:10175000672D782DCE0140960E942A0A0E94060A23
:10176000BC01CE0188960E94EF0ACE0140960E94ED
:10177000240B992021F0CE0101960E94240B49E010
:101780004A1508F4D1C061EC71E0CE0101960E94C7
:101790000F0BB601CE0101960E942A0A4C01AA2421
:1017A000A394BE01685D7F4FCE0140960E94060B58
:1017B000B401CE0140960E942A0A0E94060ABC018A
:1017C000CE0188960E94EF0ACE0140960E94240B1B
:1017D000AA2021F0CE0101960E94240B89E08B15EE
:1017E00008F4A5C061EC71E0CE0101960E940F0BD8
:1017F000B801CE0101960E942A0A982EA92EBB2478
:10180000B394BE01685D7F4FCE0140960E94060BE7
:10181000692D7A2DCE0140960E942A0ABC01CE0184
:1018200088960E94EF0ACE0140960E94240BBB20AE
:1018300021F0CE0101960E94240BC8010E94240BC6
:10184000C6010E94240BC7010E94240B60E080E0C7
:101850000E94B8074CA55DA568A579A580E194E034
:101860000E949A0463EC71E080E194E00E94040815
:1018700061E080E00E94B807D12CC12C80910C015E
:101880008C151D0409F00CF456C0E0900F01F09087
:101890001001C60123E0880F991F2A95E1F7E80E91
:1018A000F91EB701CE0101960E94060BF701868151
:1018B0008F83878188876DEB71E0882311F06AEB55
:1018C00071E0C8010E940F0BBE016F5F7F4FCE0118
:1018D00040960E94060BCE0140960E94060AB8016F
:1018E0000E942A0AFC01448155816081718180E156
:1018F00094E00E949A04CE0140960E94240B66EC6C
:1019000071E080E194E00E940408C8010E94240B69
:10191000CE0101960E94240BFFEFCF1ADF0AAECF53
:10192000912C7E2C8F2C0DCFA12C46013ACFB12CBF
:10193000902EA12E66CFCE0188960E94240BAD96E4
:101940000FB6F894DEBF0FBECDBFDF91CF911F91D0
:101950000F91FF90EF90DF90CF90BF90AF909F904E
:101960008F907F9008951F920F920FB60F921124BF
:101970002F933F934F935F936F937F938F939F9397
:10198000AF93BF93EF93FF938091B900887F803628
:1019900009F44AC0F0F5883209F4A7C018F580317F
:1019A00009F49BC0B8F4882309F4F9C0883009F41D
:1019B00094C0FF91EF91BF91AF919F918F917F91D3
:1019C0006F915F914F913F912F910F900FBE0F90AC
:1019D0001F901895883109F488C0803251F78093A0
:1019E000300314C0803409F49DC040F48033B9F34F
:1019F0008833F9F68093300385ECB0C0803509F464
:101A000085C0883509F496C0883499F60E949409F7
:101A1000D0CF883909F48CC038F5883729F050F4D4
:101A2000883611F0803729F683E0809331031092D5
:101A30002F0357C0883809F47BC0803919F08038EB
:101A400009F0B7CF80912F03803208F071C0E09188
:101A50002F0381E08E0F80932F038091BB00F0E075
:101A6000E15FFC4F80833DC0803B39F0E0F4803A79
:101A700009F479C0883A09F09CCF84E0809331035F
:101A800010920C0310920B03E0910903F0910A03EA
:101A9000099580910B0381110FC081E080930B03A6
:101AA0001092E90209C0803C09F4A6CF883C09F4F1
:101AB000A3CF883B09F07DCFE0910C0381E08E0F2E
:101AC00080930C03F0E0E751FD4F80818093BB00D1
:101AD00090910C0380910B0329C080915603809351
:101AE000BB0085EC8093BC0064CF9091550380913E
:101AF0005403981758F5E091550381E08E0F8093B9
:101B00005503F0E0EC5CFC4F8081E9CFE091550398
:101B100081E08E0F809355038091BB00F0E0EC5C78
:101B2000FC4F808390915503809154039817C8F21D
:101B300085E8D8CFE091550381E08E0F809355035F
:101B40008091BB00F0E0EC5CFC4F8083809133031C
:101B500081115CCF81E08093320384EA8093BC00E2
:101B60001092310326CF85EC8093BC001092310394
:101B700080912F03803230F4E0912F03F0E0E15F99
:101B8000FC4F108260912F0370E0E0910D03F09103
:101B90000E038FE093E0099510922F030ACF109265
:101BA000300334CF1F920F920FB60F9211242F9350
:101BB0003F938F939F93AF93BF93809196029091A1
:101BC0009702A0919802B09199023091950223E07A
:101BD000230F2D3758F50196A11DB11D20939502B5
:101BE0008093960290939702A0939802B0939902E3
:101BF00080919A0290919B02A0919C02B0919D02CB
:101C00000196A11DB11D80939A0290939B02A0930F
:101C10009C02B0939D02BF91AF919F918F913F9194
:101C20002F910F900FBE0F901F90189526E8230F4D
:101C30000296A11DB11DD2CF1F920F920FB60F9227
:101C400011242F933F934F935F936F937F938F93C1
:101C50009F93AF93BF93EF93FF9383E693E00E942C
:101C60001805FF91EF91BF91AF919F918F917F9157
:101C70006F915F914F913F912F910F900FBE0F90F9
:101C80001F9018951F920F920FB60F9211242F9349
:101C90008F939F93EF93FF93E0917303F0917403FD
:101CA0008081E0917903F0917A0382FD1BC09081DD
:101CB00080917C038F5F8F7320917D03821741F0A9
:101CC000E0917C03F0E0ED59FC4F958F80937C030D
:101CD000FF91EF919F918F912F910F900FBE0F90D9
:101CE0001F9018958081F4CFEF92FF920F931F936E
:101CF000CF93DF93E7E5F3E01382128288EE93E05F
:101D0000A0E0B0E084839583A683B7832FE231E01F
:101D100031832083E3E6F3E0138212828483958388
:101D2000A683B78381E491E09183808385EC90E082
:101D30009587848784EC90E09787868780EC90E095
:101D4000918B808B81EC90E0938B828B82EC90E086
:101D5000958B848B86EC90E0978B868B118E128E00
:101D6000138E148E69EC71E080E094E00E940F0BFA
:101D7000C0E0D4E08FE08E831F826DEC71E088E0DC
:101D800094E00E940F0B8EE08E871F8682E0809386
:101D90000C01E0E1F4E01382128223E531E03183AB
:101DA0002083118697E2948390E19287838714863B
:101DB000CDE1D4E01A8219821C821B821E821D8210
:101DC00082E38F838FE1888785E289878CE0F82E14
:101DD000FA861C861B861D861E861F86188A198A0F
:101DE0000FE214E0F80110828EE18B8B1D8A1C8AB1
:101DF00088E08E8B89E08F8B8AE0888F60E088E0B6
:101E00000E94EF0160E08F890E94EF0162E0888DFF
:101E10000E94EF018B859C8590619C878B878E89C2
:101E20000E94A705E82E8F890E94A705880F8E299A
:101E3000982F9F70F8018081807F892B8083E6E353
:101E4000F4E0F0828DE081838BE082831482138240
:101E5000DF91CF911F910F91FF90EF900895CF9355
:101E6000DF93CDB7DEB766970FB6F894DEBF0FBE2F
:101E7000CDBF789484B5826084BD84B5816084BD13
:101E800085B5826085BD85B5816085BD80916E0018
:101E9000816080936E001092810080918100826049
:101EA0008093810080918100816080938100809186
:101EB00080008160809380008091B1008460809375
:101EC000B1008091B00081608093B00080917A0071
:101ED000846080937A0080917A00826080937A0097
:101EE00080917A00816080937A0080917A00806886
:101EF00080937A001092C100E0917303F091740313
:101F000082E08083E0916F03F09170031082E09192
:101F10007103F09172038FEC808310927B03E09148
:101F20007703F091780386E08083E0917503F09168
:101F30007603808180618083E0917503F091760360
:101F4000808188608083E0917503F09176038081C1
:101F500080688083E0917503F091760380818F7DA6
:101F600080831092E0021092DF021092E20210923F
:101F7000E1020E94B00181ED90E090930A0380930A
:101F8000090382ED90E090930E0380930D0310926D
:101F9000150480911B04823018F098E0909315048A
:101FA0008093180462E370E080E090E00E94610298
:101FB00060911C0480E194E00E94C40568EE73E027
:101FC00080E090E00E94610260E380E194E00E9482
:101FD00088070BE416E4C8010197F1F760E380E19C
:101FE00094E00E948807C8010197F1F760E380E15F
:101FF00094E00E94880783E592E00197F1F760E2A0
:1020000080E194E00E94880760911504606240E0DE
:1020100080E194E00E94A10784E08093160440E0F0
:102020006CE080E194E00E94A1070E94EB0782E04F
:102030008093170440E066E080E194E00E94A107ED
:1020400040E062E080E194E00E94A1078BE39FE121
:102050000197F1F761E0809136040E94EF0161E0A1
:10206000809137040E94EF01609139048091380417
:102070000E94EF0160E0809136040E94820160E0DE
:10208000809137040E94820161E08FE00E94EF019D
:1020900061E08EE00E94EF01809128049091290474
:1020A000906190932904809328048FE18093250404
:1020B00082E38093240485E28093260486E0809363
:1020C000270480912E04887F80932E048EE18093D4
:1020D000300410922A0410922B0410922C041092B7
:1020E0002D04AE014F5F5F4F6A01EE24E394F12CA3
:1020F000142F0D2DC7010E94B512D6018D936D01CD
:10210000BFEFEB1AFB0AEAE0EE16F10499F729811A
:102110003A818091080190910901281739070CF044
:1021200056C181ED91E00E94700882EE91E00E941C
:10213000700878E0C72E71E0D72EEE24E394F12CDE
:10214000D601BD906D01C7010E94B512B81621F0ED
:102150006B2DC7010E94BD12BFEFEB1AFB0AEAE02C
:10216000EE16F10469F7DD24D39450E0A52E50E07B
:10217000B52ECC24C39468E0762E809135049091DE
:102180002E0497FF32C10E94A705682F8FEF0E948F
:102190009F028090280490902904F0E58F22F1E0BE
:1021A0009F22F090930280919102882309F42DC11F
:1021B00040E18416910429F4809192028D25809348
:1021C00092028F2D90E00E94AF062091940230E0A1
:1021D000220F331FC901860F971FDC01ED91FC917F
:1021E000099580919202811120C00E949B00882352
:1021F00039F080919402882319F0815080939402E1
:102200008091930290E00E94AF06F82E0E948D000C
:10221000882359F090919402EF2DE150FF0B9E1707
:102220001F061CF49F5F9093940280912E0485FDFD
:1022300009C080912804909129048075917040977D
:1022400009F085C00E94EB0770921C0460E080E1F9
:1022500094E00E94C4050E94930260938D027093E3
:102260008E0280938F029093900260919302812F4F
:10227000902F0E94B60A69E172E0CE0141960E9459
:102280000F0B612F702FCE0141960E942A0A0E94E7
:102290005908CE0141960E94240B812F902F0E9455
:1022A000240B60919402812F902F0E94B60A66E35E
:1022B00072E0CE0141960E940F0B612F702FCE016C
:1022C00041960E942A0A0E945908CE0141960E9416
:1022D000240B812F902F0E94240B6091920270E0BA
:1022E000812F902F0E947E0A62E572E0CE01419616
:1022F0000E940F0B612F702FCE0141960E942A0A77
:102300000E945908CE0141960E94240B812F902FE4
:102310000E94240B6091910270E0812F902F0E9407
:102320007E0A6FE672E0CE0141960E940F0B612F8C
:10233000702FCE0141960E942A0A0E945908CE01B0
:1023400041960E94240B812F902F0E94240B0E9403
:10235000930220918D0230918E0240918F02509114
:1023600090021B012C01221A330A440A550AA201C9
:102370009101283833414105510578F060938D0271
:1023800070938E0280938F029093900210921C049F
:1023900060E080E194E00E94C405812F902F0E94AC
:1023A000230787E0E12FF02FDE011A9601900D92AE
:1023B0008A95E1F78D859DEE980FE0910F01F091E0
:1023C0001001933008F04CC0D782D7865AC08BEFEB
:1023D00091E00E94700889E0E12FF02FA8E0B1E0C1
:1023E00001900D928A95E1F7BECE0E94A705E82ED6
:1023F000809133040E94A705F82E809134040E9436
:10240000A705880F6E2D8F29C2CE0E949B008823BE
:1024100029F0FF2019F0FA94F09293020E948D00A7
:10242000882339F080919302833018F48F5F809372
:102430009302E0909302F12CC7010E94AF06F0E1F5
:102440008F16910419F48111C0929102F701EE0FD9
:10245000FF1FED5DFE4F0190F081E02D0995E5CE67
:102460009FEF980F933058F099EF980F943038F011
:1024700092EF980F943018F08551833058F5D78239
:102480001786912C812C80910C018815190421F15B
:102490001CF1C40123E0880F991F2A95E1F7E09011
:1024A0000F01F0901001E80EF91EB701812F902F57
:1024B0000E94060BF70186818F83678168876D25EF
:1024C0000E948201812F902F0E94240BFFEF8F1A10
:1024D0009F0AD9CF178279CFA114B10409F44DCE48
:1024E0000E940405882309F448CE0E94000045CECE
:1024F00088E094E00E94240B80E094E00C94240B8C
:10250000BB274A3031F4992322F4BDE2909581959E
:102510009F4F0C948C12BB27FB015527AA27880FCD
:10252000991FAA1FA41710F0A41B83955051B9F747
:10253000A05DAA3308F0A95DA193009779F7B111C6
:10254000B1931192CB010C94A512DC01FC01672F11
:1025500071917723E1F7329704C07C916D9370837A
:102560006291AE17BF07C8F30895F999FECF92BDE7
:1025700081BDF89A992780B50895262FF999FECF45
:102580001FBA92BD81BD20BD0FB6F894FA9AF99A90
:102590000FBE019608952F923F924F925F926F92D5
:1025A0007F928F929F92AF92BF92CF92DF92EF92E3
:1025B000FF920F931F93CF93DF93CDB7DEB7CA1B64
:1025C000DB0B0FB6F894DEBF0FBECDBF09942A888F
:1025D000398848885F846E847D848C849B84AA8437
:1025E000B984C884DF80EE80FD800C811B81AA81C4
:1025F000B981CE0FD11D0FB6F894DEBF0FBECDBF8F
:10260000ED010895991B79E004C0991F961708F011
:10261000961B881F7A95C9F780950895A1E21A2E16
:10262000AA1BBB1BFD010DC0AA1FBB1FEE1FFF1F76
:10263000A217B307E407F50720F0A21BB30BE40BC6
:10264000F50B661F771F881F991F1A9469F760950D
:102650007095809590959B01AC01BD01CF010895C7
:10266000EE0FFF1F0590F491E02D09940F931F9337
:10267000CF93DF938230910510F482E090E0E091F7
:102680003D04F0913E0430E020E0B0E0A0E030975F
:1026900099F42115310509F44AC0281B390B24305F
:1026A0003105D8F58A819B816115710589F1FB019E
:1026B00093838283FE0111C0408151810281138185
:1026C00048175907E0F04817590799F4109761F037
:1026D00012960C93129713961C933296CF01DF91AA
:1026E000CF911F910F91089500933D0410933E04E4
:1026F000F4CF2115310551F04217530738F0A901E5
:10270000DB019A01BD01DF01F801C1CFEF01F9CF73
:1027100090933E0480933D04CDCFFE01E20FF31F62
:10272000819391932250310939832883D7CF209107
:102730003B0430913C04232B41F420911301309150
:10274000140130933C0420933B04209111013091FB
:1027500012012115310541F42DB73EB74091150105
:1027600050911601241B350BE0913B04F0913C0481
:10277000E217F307A0F42E1B3F0B2817390778F058
:10278000AC014E5F5F4F2417350748F04E0F5F1FB7
:1027900050933C0440933B04819391939FCFF0E08E
:1027A000E0E09CCFCF93DF930097E9F0FC013297F4
:1027B00013821282A0913D04B0913E04ED0130E0FD
:1027C00020E01097A1F420813181820F931F209186
:1027D0003B0430913C042817390709F061C0F0939D
:1027E0003C04E0933B04DF91CF910895EA01CE17BA
:1027F000DF07E8F54A815B819E0141155105B1F77C
:10280000E901FB83EA8349915991C40FD51FEC1765
:10281000FD0761F4808191810296840F951FE90183
:1028200099838883828193819B838A83F0E0E0E0AF
:1028300012968D919C9113970097B9F52D913C912B
:102840001197CD010296820F931F20913B04309186
:102850003C042817390739F6309751F510923E0499
:1028600010923D04B0933C04A0933B04BCCFD383AF
:10287000C28340815181840F951FC817D90761F425
:102880004E5F5F4F88819981480F591F5183408364
:102890008A819B81938382832115310509F0B0CF12
:1028A000F0933E04E0933D049ECFFD01DC01C0CFD8
:1028B00013821282D7CFB0E0A0E0E1E6F4E10C94FD
:1028C000CD128C01009751F4CB010E9436138C017C
:1028D000C801CDB7DEB7E0E10C94E912FC01E60FC8
:1028E000F71F9C0122503109E217F30708F49DC03D
:1028F000D901CD91DC911197C617D70798F0C53053
:10290000D10530F3CE0104978617970708F3C61B4D
:10291000D70B2297C193D1936D937C93CF010E94E3
:10292000D213D6CF5B01AC1ABD0A4C018C0E9D1E92
:10293000A0913D04B0913E04512C412CF12CE12C8E
:10294000109731F580913B0490913C0488159905CE
:1029500009F05CC04616570608F058C08091110176
:1029600090911201009741F48DB79EB740911501E7
:1029700050911601841B950BE817F90708F055C014
:10298000F0933C04E0933B04F90171836083A0CF92
:102990008D919C91119712966C90129713967C9042
:1029A0001397A815B90559F56C0142E0C40ED11C66
:1029B000CA14DB0420F1AC014A195B09DA01129652
:1029C000159780F06282738251834083D9016D93A1
:1029D0007C93E114F10471F0D7011396FC93EE930C
:1029E000129776CF22968C0F9D1FF90191838083D9
:1029F000F301EFCFF0933E04E0933D0469CF481616
:102A0000590608F42C017D01D3019ACFCB010E9415
:102A100036137C01009749F0AE01B8010E941815E9
:102A2000C8010E94D213870153CF10E000E050CFBD
:102A3000FB01DC0102C001900D9241505040D8F7DB
:102A40000895FB01DC0101900D920020E1F708954B
:102A500010E0C2E6D0E004C0FE010E9430132196CF
:0A2A6000C336D107C9F7F894FFCF81
:102A6A00450914099E0883080500000000010100B9
:102A7A000400003F0480000001040000004000142C
:102A8A000054002C0B8A0980097609000000002AEC
:102A9A0001FD00AC06D300F600E300D400000000FC
:102AAA00003A059A04C7048705F804D604EA040024
:102ABA00000000FE079A04AC06AB060D0A0053613B
:102ACA00766520616E642045786974004D696E757B
:102ADA0074652073657474696E6700486F75722037
:102AEA0073657474696E670052656C61792032206F
:102AFA0053657474696E67730052656C617920312D
:102B0A002053657474696E67730054696D65205348
:102B1A00657474696E6773003A004F4E004F4646FB
:102B2A00003000202020202000524C3100524C322C
:102B3A000053657474696E67732075706461746597
:102B4A00640053657474696E677320736176656493
:102B5A0020746F20454550524F4D00536574746977
:102B6A006E67732072656365697665642066726F45
:102B7A006D20454550524F4D006D656E7553657415
:102B8A0074696E67732E6D61696E4D656E75496EF7
:102B9A006465783A20006D656E7553657474696E64
:102BAA0067732E7375624D656E75496E6465783A02
:102BBA0020006D656E7553657474696E67732E694E
:102BCA00735375624D656E75456469743A20006D7C
:102BDA00656E7553657474696E67732E6973537580
:082BEA00624D656E753A200092
:00000001FF
