:100000000C9463000C948B000C948B000C948B006C
:100010000C948B000C948B000C948B000C948B0034
:100020000C948B000C948B000C948B000C948B0024
:100030000C948B000C948B000C948B000C948B0014
:100040000C94EF0D0C948B000C945F0E0C94390EF5
:100050000C948B000C948B000C948B000C948B00F4
:100060000C94D00C0C948B0000000000240027009E
:100070002A0000000000250028002B0000000000DE
:1000800023002600290004040404040404040202DA
:100090000202020203030303030301020408102007
:1000A0004080010204081020010204081020000012
:1000B0000008000201000003040700000000000027
:1000C0000000910EA31211241FBECFEFD8E0DEBFB7
:1000D000CDBF24E0A6E8B2E001C01D92AD33B20767
:1000E000E1F712E0A0E0B1E0E0ECFAE202C0059036
:1000F0000D92A638B107D9F710E0C2E6D0E004C0EF
:100100002197FE010E945B13C136D107C9F70E94F7
:100110004C0F0C9453150C94000080912C048073A8
:10012000803339F4809127048095881F8827881FA1
:10013000089580E0089580912C0484FD09C085FF16
:1001400007C0809127048095881F8827881F0895FD
:1001500080E0089520910903260F3327331F2132B1
:100160003105ECF420912F03FC0190E080E0243075
:1001700069F082E00895A09109032191AC014951F1
:100180005D4FA40FB52FB11D2C930196861798F3E0
:1001900080910903680F6093090380E0089581E06E
:1001A0000895089508950895E091DE028091DD029A
:1001B000E81730F4F0E0E354FD4F808190E00895BB
:1001C0008FEF9FEF08959091DE028091DD022FEF77
:1001D0003FEF981748F4E92FF0E0E354FD4F2081FA
:1001E00030E09F5F9093DE02C90108958091DD02A7
:1001F0009091DE02891B990B0895CF92DF92EF92C6
:10020000FF920F931F93CF93DF937C01CB018A0161
:100210002091BC02222389F0EB016B01C40ED51E94
:10022000CC15DD0569F06991D701ED91FC91019044
:10023000F081E02DC7010995F3CF642F0E94AA0039
:10024000C801DF91CF911F910F91FF90EF90DF9048
:10025000CF900895CF93DF931F92CDB7DEB7698318
:100260002091BC022223F9F02091DF02203258F0C5
:1002700021E030E0FC013383228390E080E00F90A6
:10028000DF91CF9108958091E002E82FF0E0E456ED
:10029000FD4F998190838F5F8093E0028093DF020E
:1002A00081E090E0ECCF61E0CE0101960E94AA00CF
:1002B000F7CF833081F028F4813099F08230A9F0B3
:1002C00008958730A9F08830C9F08430B1F4809166
:1002D00080008F7D03C0809180008F7780938000A5
:1002E000089584B58F7784BD089584B58F7DFBCF45
:1002F0008091B0008F778093B00008958091B00016
:100300008F7DF9CF1F93CF93DF93282F30E0F90132
:10031000E255FF4F8491F901E656FF4FD491F90160
:10032000EA57FF4FC491CC23A9F0162F81110E94E8
:100330005901EC2FF0E0EE0FFF1FEE58FF4FA59193
:10034000B4918FB7F894EC91111108C0D095DE23C9
:10035000DC938FBFDF91CF911F910895DE2BF8CFF3
:1003600010922F0381E0809331031092300361E0FB
:1003700082E10E94820161E083E10E948201E9EB57
:10038000F0E080818E7F808380818D7F808388E410
:100390008093B80085E48093BC000895CF93DF93E9
:1003A00091E09093E6028823B9F0C091B800D09113
:1003B000BA008091BC008A7B8093BC0060E082E13F
:1003C0000E94820160E083E10E9482010E94B001EC
:1003D000D093BA00C093B800DF91CF910895CF9326
:1003E000DF9390E0FC01E656FF4F24918A579F4F20
:1003F000FC0184918823C9F090E0880F991FFC01CB
:10040000E859FF4FA591B491FC01EE58FF4FC591FB
:10041000D49161110DC09FB7F8948C9120958223DF
:100420008C938881282328839FBFDF91CF910895E3
:10043000623051F49FB7F8943C91822F80958323CA
:100440008C93E8812E2BEFCF8FB7F894EC912E2B65
:100450002C938FBFEACF20913704309138042817AE
:10046000390749F09093380480933704682F8091BE
:1004700036040C94EF0108953FB7F89480919802E8
:1004800090919902A0919A02B0919B0226B5A89BE7
:1004900005C02F3F19F00196A11DB11D3FBFBA2F16
:1004A000A92F982F8827BC01CD01620F711D811DD6
:1004B000911D42E0660F771F881F991F4A95D1F75B
:1004C00008958F929F92AF92BF92CF92DF92EF9258
:1004D000FF924B015C010E943C026B017C010E9477
:1004E0003C026C197D098E099F09683E73408105A5
:1004F0009105A8F321E0821A9108A108B10888EEBD
:10050000C80E83E0D81EE11CF11C81149104A104E3
:10051000B10429F7FF90EF90DF90CF90BF90AF909C
:100520009F908F9008952FB7F894609194027091E6
:10053000950280919602909197022FBF08950F9394
:100540001F93CF93DF93C82F8091260490912704A7
:1005500080FD10921B049C012F713327232B29F05F
:10056000807E909327048093260480912C0485FF3D
:1005700003C08F7D80932C048091260490912704E2
:1005800094FBDD27D0F9D62796FF06C09F7B90937A
:10059000270480932604D1E08091260490912704BB
:1005A00091FD08C0DD2309F440C0926090932704B8
:1005B000809326040E94930220911C0430911D0414
:1005C000FB01E21BF30B2091260430912704DD236D
:1005D00009F485C025FD64C04091220432FD08C0A5
:1005E000442331F0346030932704209326040FC055
:1005F0004E171F0619F010F041110DC02262309302
:1006000027042093260470931F0460931E047093A4
:100610001D0460931C0480912604909127048F711F
:100620009927D1E0892B09F4D0E080912F04909193
:100630003004009709F4C2C020912C0481FFBAC095
:10064000206120932C0420912C0482FFB5C02860E7
:1006500020932C0453E0969587955A95E1F7909353
:10066000300480932F04809126049091270485FF05
:100670005EC190689093270480932604809126049D
:100680009091270493FD05C0986090932704809370
:10069000260480912C04806280932C0461E091C038
:1006A00037FDB9CF26FD0CC040912404A0E14A9F3C
:1006B000A0011124E417F50708F4ADCF246493CF0B
:1006C0004091250427FF40912404A0E14A9FA00106
:1006D00011242868E417F50708F085CF9CCF25FF83
:1006E00019C0809122048E171F0611F008F041C036
:1006F00026FD05C080911B048F5F80931B0437FD8E
:1007000010921B042F7D20613160309327042093C9
:1007100026042FC030FF15C037FD05C0206130937F
:1007200027042093260420912604309127043E7745
:10073000309327042093260470931D0460931C04B7
:1007400018C040911B04442339F1C901807C9927CA
:10075000892BD9F48091230440E1849FC0011124A6
:10076000E817F90790F480911E0490911F04892BDB
:1007700071F4809126049091270492FF4CCF9B7FC7
:10078000909327048093260446CF2160BECF109219
:100790001F0410921E04EDCF31FFEBCF2F733D7F6E
:1007A0003860309327042093260410921F0410927F
:1007B0001E04C2CF2F7E45CF277F4ACFC7FF10C070
:1007C00060E0D62BE0912004F0912104309711F0E5
:1007D000D11109958D2FDF91CF911F910F91089520
:1007E00080912D04282F2295207F259525952595EC
:1007F0002595022E000C330B4C2F0C2E000C550BA4
:1008000024173507E9F2220F331F220F331F242B41
:10081000352B220F331F41E656E164E979E404C029
:1008200075956795579547952A95D2F743708595A5
:100830008595859585958150480F4295407F4595D2
:10084000459545954595842F8295807F9C2F9F7077
:10085000892B80932D04807F09F4B2CF80912C04E2
:10086000982F9370913009F453C008F44DC0923022
:1008700009F452C091E014160CF090E082FB22279C
:1008800020F9921709F44DC091E020912D042F70AA
:1008900020932D04092F092E000C110B220B330B72
:1008A000409128045091290460912A0470912B04EE
:1008B000400F511F621F731F409328045093290457
:1008C00060932A0470932B04913069F580618093C2
:1008D0002C040E94930220911C0430911D04AB0152
:1008E000421B530B9A0140912E0450912C0470939B
:1008F0001D0460931C04852F42171306B1F0A8F065
:10090000886080932C04AFCEC33009F059CFB2CFAA
:10091000CC2309F4AFCF54CFC150C23008F0AACFD6
:100920004FCF9FEFB2CF8F7ED2CF877FEACF10928B
:100930001B04A4CEAF92BF92CF92DF92EF92FF92B0
:100940000F931F93CF93DF936C017B018B01040FF7
:10095000151FEB015E01AE18BF08C017D10759F093
:100960006991D601ED91FC910190F081E02DC601D5
:100970000995892B79F7C501DF91CF911F910F91CF
:10098000FF90EF90DF90CF90BF90AF900895FC0163
:10099000538D448D252F30E0842F90E0821B930BE4
:1009A000541710F0CF96089501970895FC01918D8A
:1009B000828D981761F0A28DAE0FBF2FB11D5D968D
:1009C0008C91928D9F5F9F73928F90E008958FEF2F
:1009D0009FEF0895FC01918D828D981731F0828DE3
:1009E000E80FF11D858D90E008958FEF9FEF08953A
:1009F000FC01918D228D892F90E0805C9F4F821B9E
:100A000091098F739927089581E693E00E94F80475
:100A100021E0892B09F420E0822F089580E090E006
:100A2000892B29F00E94040581110C94000008957F
:100A3000FC01A48DA80FB92FB11DA35ABF4F2C9153
:100A4000848D90E001968F739927848FA689B7894A
:100A50002C93A089B1898C91837080648C93938D41
:100A6000848D981306C00288F389E02D80818F7DE4
:100A700080830895EF92FF920F931F93CF93DF939C
:100A8000EC0181E0888F9B8D8C8D98131AC0E889CA
:100A9000F989808185FF15C09FB7F894EE89FF8999
:100AA0006083E889F98980818370806480839FBF37
:100AB00081E090E0DF91CF911F910F91FF90EF9037
:100AC0000895F62E0B8D10E00F5F1F4F0F73112747
:100AD000E02E8C8D8E110CC00FB607FCFACFE88982
:100AE000F989808185FFF5CFCE010E941805F1CFED
:100AF000EB8DEC0FFD2FF11DE35AFF4FF0829FB7F6
:100B0000F8940B8FEA89FB8980818062CFCFCF93E5
:100B1000DF93EC01888D8823B9F0AA89BB89E88925
:100B2000F9898C9185FD03C0808186FD0DC00FB6CB
:100B300007FCF7CF8C9185FFF2CF808185FFEDCF49
:100B4000CE010E941805E9CFDF91CF91089588303A
:100B500058F429B130E0A90102C0559547958A950E
:100B6000E2F7CA01817008958E3028F423B130E095
:100B70008850990BF0CF843128F426B130E08E50A4
:100B8000990BE9CF80E00895CF92DF92EF92FF9228
:100B90000F931F93CF93DF93FC01C48121E0209337
:100BA000BC02C0938A021092E0021092DF02848598
:100BB000682B85E593E00E942A01D091DF02D132B3
:100BC00008F092C00E943C026B017C0180912F03CF
:100BD000811165C082E080932F0381E0809331030F
:100BE0008FEF80932E0310925303D0935203ACE9FE
:100BF000B2E0E2E3F3E080E0D81385C01092540342
:100C000080915403CC0FC82BC093540380913003C0
:100C1000813009F07CC0109230030E943C026B01CD
:100C20007C01809154038093BB008091E2029091FB
:100C3000E302A091E402B091E502892B8A2B8B2B71
:100C400099F00E943C020091E2021091E30220918F
:100C5000E4023091E5026C197D098E099F0906179F
:100C6000170728073907E0F18091BC0083FDD9CF31
:100C700085EC8093BC000E943C026B017C0180915A
:100C80002F03823009F445C080912E038F3F61F11C
:100C900080912E03803241F180912E0325C08091F6
:100CA000E2029091E302A091E402B091E502892B67
:100CB0008A2B8B2B09F48ACF0E943C020091E2021E
:100CC0001091E3022091E4023091E5026C197D0954
:100CD0008E099F09061717072807390708F076CFEE
:100CE0008091E1020E94CE011092E0021092DF0298
:100CF0001092BC02DF91CF911F910F91FF90EF9066
:100D0000DF90CF9008959D9191938F5F75CF85EE81
:100D1000B0CF8091E2029091E302A091E402B09101
:100D2000E502892B8A2B8B2B09F4A9CF0E943C0268
:100D30000091E2021091E3022091E4023091E50279
:100D40006C197D098E099F090617170728073907AF
:100D500008F095CFC5CF089590E080E00895019701
:100D600021F060E070E0CB01089560911501709171
:100D7000160180911701909118010895DF92EF926A
:100D8000FF920F931F93CF93DF93D0E0C0E0E12C4D
:100D900001E010E02091360430E0F901E255FF4F08
:100DA0008491F901E656FF4FF490F901EA57FF4F9D
:100DB000D490DD20A9F081110E945901ED2DF0E0C1
:100DC000EE0FFF1FE458FF4FA591B491EC91FE2266
:100DD00039F0C8010C2E01C0880F0A94EAF7E82AFE
:100DE00061E0809135040E94820160E080913504C9
:100DF0000E9482012196C830D10509F0CBCF8E2DFB
:100E0000DF91CF911F910F91FF90EF90DF900895A8
:100E1000CF93DF93D82FC8E06D2F61708091360497
:100E20000E94820161E0809135040E94820160E0AD
:100E3000809135040E948201D695C15069F7DF91F7
:100E4000CF9108959F92AF92BF92CF92DF92EF928F
:100E5000FF920F931F93CF93DF9300D000D000D069
:100E60001F92CDB7DEB781E090E00E942B0284E3B1
:100E7000C82E84E0D82E61E0F60180810E948201B4
:100E80008FEB0E94080790E080E00E942B020E94F6
:100E9000BE06982F929597702AE0E22E8F70182F39
:100EA0009E9D100D11240E94BE06982F929597705A
:100EB0008F70082F9E9D000D11240E94BE06982F52
:100EC000929593708F70A82E9E9DA00C11240E9465
:100ED000BE06982F929593708F70B82E9E9DB00C81
:100EE00011240E94BE0684FB992790F98F70F82E7A
:100EF0009E9DF00C11240E94BE06982E0E94BE06F4
:100F0000982F929597708F709E9D800D1124E82EDA
:100F100060E0F60180810E94820197014B2D5A2DDD
:100F2000B801892D877090E027960FB6F894DEBF40
:100F30000FBECDBFDF91CF911F910F91FF90EF902A
:100F4000DF90CF90BF90AF909F9008950F931F9325
:100F5000CF938C01C62F0E94C4056C2F6460C8011A
:100F60000E94C4056C2F6B7FC8010E94C40583ECEE
:100F700090E00197F1F7CF911F910F9108950F9392
:100F80001F93CF93DF938C01D62FC42F607F642BE8
:100F90000E94A60780E1D89FB00111246C2BC801E4
:100FA000DF91CF911F910F910C94A607CF93DF9300
:100FB000CDB7DEB728970FB6F894DEBF0FBECDBF12
:100FC00098E0E9E1F1E0DE01119601900D929A9529
:100FD000E1F790911604961708F46FEF262F30E092
:100FE000220F331F41E050E04C0F5D1F240F351FCF
:100FF000F9016081680F606840E08EE094E0289617
:101000000FB6F894DEBF0FBECDBFDF91CF910C9429
:10101000BF0740E061E08EE094E00E94BF078BE3F1
:101020009FE10197F1F780911704882321F060E098
:1010300080E00C94D607089541E00E94BF0781E04C
:1010400090E00895FB0101900020E9F73197AF018E
:10105000461B570BDC01ED91FC910280F381E02DE2
:1010600009948F929F92AF92BF920F931F93CF9349
:10107000DF93CDB7DEB7A1970FB6F894DEBF0FBEF2
:10108000CDBF19A2423008F44AE08E010F5D1F4F18
:10109000842E912CB12CA12CA50194010E9439130E
:1010A000E62FB901CA01EA3004F5E05DD801EE93FC
:1010B0008D01232B242B252B79F790E080E01097CE
:1010C00029F0BD018EE094E00E942208A1960FB69F
:1010D000F894DEBF0FBECDBFDF91CF911F910F916E
:1010E000BF90AF909F908F900895E95CDFCFCF9332
:1010F000DF93BC0181E693E00E942208EC0169E5E0
:1011000071E081E693E00E9422088C0F9D1FDF9121
:10111000CF910895CF93DF93FC0144815581608185
:10112000718181E693E00E949A04EC0169E571E027
:1011300081E693E00E9422088C0F9D1FDF91CF91E2
:10114000089560E081E00E94D60765E671E08EE0D8
:1011500094E00E94220880912604909127048075D3
:101160009170409741F41092900210928F02109269
:101170009102109292020895CF93DF9360E081E094
:101180000E94D6076CE571E08EE094E00E94220890
:10119000809126049091270480759170409709F002
:1011A0005EC0C0910C01D0910B0181E090E00E94E3
:1011B0002B0261E0809134040E9482018EE80E943B
:1011C000080780E00E94080760E0809134040E94D4
:1011D000820181E090E00E942B0261E08091340462
:1011E0000E9482018EEB0E94080780E00E9408079F
:1011F0008C2F6CE30E942D13892FCAE06C2F0E9464
:101200002D138295807F890F0E9408078D2F68E13A
:101210000E942D13892F6C2F0E942D138295807FA1
:10122000890F0E94080785E10E94080789E00E9453
:10123000080787E00E94080783E20E94080780E809
:101240000E94080760E0809134040E94820110929D
:10125000900210928F021092910210929202DF91EE
:10126000CF91089560E081E00E94D6076AE671E0C0
:101270008EE094E00E94220861E081E00E94D6079F
:1012800060910C0170E090E080E04AE00E9431083B
:10129000809190028823B1F00E949B00882339F04E
:1012A00080910C01882319F0815080930C010E94D9
:1012B0008D00882339F080910C018C3318F48F5FF6
:1012C00080930C01089560E081E00E94D60769E7F1
:1012D00071E08EE094E00E94220861E081E00E94CB
:1012E000D60760910B0170E090E080E04AE00E9438
:1012F0003108809190028823B1F00E949B008823DE
:1013000039F080910B01882319F0815080930B01F3
:101310000E948D00882339F080910B01883118F4E8
:101320008F5F80930B01089560E081E00E94D607F3
:1013300066E871E08EE094E00C94220860E081E0C1
:101340000E94D60767E971E08EE094E00C942208D1
:1013500060E081E00E94D60768EA71E08EE094E0E8
:101360000C94220885ED8093BC008091E20290915C
:10137000E302A091E402B091E5020796A11DB11D20
:1013800023E0B695A795979587952A95D1F7209153
:10139000BC0024FD03C010922F0308954091E20287
:1013A0005091E3026091E4027091E502452B462BD7
:1013B000472B69F30097A105B10541F025E32A9574
:1013C000F1F700000197A109B109E1CF8091E10295
:1013D0000C94CE010F931F93CF93DF93EC01888180
:1013E0009981009759F02A813B812617370730F001
:1013F00081E0DF91CF911F910F9108958B016F5F75
:101400007F4F0E948614009759F0998388831B832D
:101410000A832C813D81232B59F7FC011082E8CFF0
:1014200080E0E7CFCF93DF93EC018881998100972B
:1014300011F00E94FD13198218821D821C821B82EA
:101440001A82DF91CF9108950F931F93CF93DF936B
:10145000EC010C811D810F5F1F4FB8010E94EA094A
:10146000882391F0288139818C819D8166EB71E020
:10147000820F931F0E944C151D830C83CE01DF91B8
:10148000CF911F910F910895CE010E94120AF6CFBD
:10149000EF92FF920F931F93CF93DF93EC01FB0129
:1014A000E080F180E114F10411F10481158101154E
:1014B0001105A9F08C819D81080F191FB801CE017B
:1014C0000E94EA09882399F0288139818C819D81C5
:1014D000B701820F931F0E944C151D830C83CE0110
:1014E000DF91CF911F910F91FF90EF900895CE0162
:1014F0000E94120AF4CFEF92FF920F931F93CF93A3
:10150000DF93EC017B018A01BA010E94EA09811193
:101510000BC0CE010E94120ACE01DF91CF911F9124
:101520000F91FF90EF9008951D830C83B701888180
:1015300099810E944C15F0CFEF92FF920F931F9369
:10154000CF93DF93CDB7DEB762970FB6F894DEBFC7
:101550000FBECDBF8C01CB01F80111821082138226
:101560001282158214824AE09E012F5F3F4F79015B
:10157000B9010E94AB12F70101900020E9F7319701
:10158000AF014E195F09B701C8010E947B0A62963C
:101590000FB6F894DEBF0FBECDBFDF91CF911F9184
:1015A0000F91FF90EF900895EF92FF920F931F938A
:1015B000CF93DF93CDB7DEB729970FB6F894DEBF90
:1015C0000FBECDBF8C01862FF801118210821382CD
:1015D0001282158214824AE09E012F5F3F4F7901EB
:1015E000B90190E00E94B612F70101900020E9F7DE
:1015F0003197AF014E195F09B701C8010E947B0AFC
:1016000029960FB6F894DEBF0FBECDBFDF91CF9104
:101610001F910F91FF90EF900895CF93DF93EC010E
:10162000FB018617970749F060817181611571058B
:1016300041F0448155810E947B0ACE01DF91CF9118
:1016400008950E94120AF9CFFC01118210821382C0
:101650001282158214820C940D0BFC0111821082EF
:1016600013821282158214826115710551F0FB01FB
:1016700001900020E9F73197AF01461B570B0C94FE
:101680007B0A0895FC0180819181009711F00C94F0
:10169000FD1308957F928F929F92AF92BF92CF9247
:1016A000DF92EF92FF920F931F93CF93DF93CDB70B
:1016B000DEB7AC970FB6F894DEBF0FBECDBF0E9469
:1016C0009302009186021091870220918802309146
:1016D00089026B017C01C01AD10AE20AF30A970160
:1016E00086010C3211402105310508F445C1609393
:1016F00086027093870280938802909389020E94E9
:101700002207952E5B0129833A834B835C836D838B
:10171000BE828F836BE571E0CE0187960E942D0B10
:101720008E010F5D1F4F692DC8010E94D40A7E01F2
:101730008BE1E80EF11C6A2DC7010E94D40A6E01EC
:10174000E5E1CE0ED11C6B2DC6010E94D40AF9E052
:10175000F91508F402C16FEB71E0CE0109960E9401
:101760002D0BB801CE0109960E94480A782E892EC9
:1017700099249394BE01695D7F4FCE010F960E941C
:10178000240B672D782DCE010F960E94480A0E94E7
:10179000240ABC01CE0187960E940D0BCE010F9644
:1017A0000E94420B992021F0CE0109960E94420B23
:1017B00049E04A1508F4D5C06FEB71E0CE010996F7
:1017C0000E942D0BB701CE0109960E94480A4C01D8
:1017D000AA24A394BE01695D7F4FCE010F960E949B
:1017E000240BB401CE010F960E94480A0E94240ADD
:1017F000BC01CE0187960E940D0BCE010F960E9470
:10180000420BAA2021F0CE0109960E94420B89E0EA
:101810008B1508F4A9C06FEB71E0CE0109960E9408
:101820002D0BB601CE0109960E94480A982EA92ECA
:10183000BB24B394BE01695D7F4FCE010F960E9419
:10184000240B692D7A2DCE010F960E94480ABC0107
:10185000CE0187960E940D0BCE010F960E94420B7F
:10186000BB2021F0CE0109960E94420BC6010E94C6
:10187000420BC7010E94420BC8010E94420B60E06C
:1018800080E00E94D6074BA55CA56FA178A58EE0ED
:1018900094E00E949A0461EC71E08EE094E00E9472
:1018A000220861E080E00E94D607F12CE12C8091B3
:1018B0000A018E151F0409F00CF45AC000910D01A5
:1018C00010910E01C70123E0880F991F2A95E1F7B7
:1018D000080F191FB801CE0101960E94240BF801D0
:1018E00086818F83878188876BEB71E0882311F075
:1018F00068EB71E0CE010F960E942D0BBE016F5F69
:101900007F4FCE0109960E94240BCE0109960E94BA
:10191000240ABE01615F7F4F0E94480AFC01448196
:101920005581608171818EE094E00E949A04CE011D
:1019300009960E94420B64EC71E08EE094E00E94F4
:101940002208CE010F960E94420BCE0101960E9402
:10195000420BFFEFEF1AFF0AAACF912C702E812EB7
:1019600009CFA12C470136CFB12C9C2CAD2C62CFD6
:10197000CE0187960E94420BAC960FB6F894DEBF5C
:101980000FBECDBFDF91CF911F910F91FF90EF90D0
:10199000DF90CF90BF90AF909F908F907F900895F1
:1019A0001F920F920FB60F9211242F933F934F93D4
:1019B0005F936F937F938F939F93AF93BF93EF93B7
:1019C000FF938091B900887F803609F44AC0F0F512
:1019D000883209F4A7C018F5803109F49BC0B8F427
:1019E000882309F4F9C0883009F494C0FF91EF917D
:1019F000BF91AF919F918F917F916F915F914F9127
:101A00003F912F910F900FBE0F901F901895883126
:101A100009F488C0803251F780932E0314C08034BB
:101A200009F49DC040F48033B9F38833F9F680930C
:101A30002E0385ECB0C0803509F485C0883509F4E3
:101A400096C0883499F60E94B209D0CF883909F43B
:101A50008CC038F5883729F050F4883611F080377B
:101A600029F683E080932F0310922D0357C0883806
:101A700009F47BC0803919F0803809F0B7CF809124
:101A80002D03803208F071C0E0912D0381E08E0FAC
:101A900080932D038091BB00F0E0E35FFC4F8083D7
:101AA0003DC0803B39F0E0F4803A09F479C0883ACF
:101AB00009F09CCF84E080932F0310920A031092C8
:101AC0000903E0910703F091080309958091090348
:101AD00081110FC081E0809309031092E70209C0D1
:101AE000803C09F4A6CF883C09F4A3CF883B09F0D9
:101AF0007DCFE0910A0381E08E0F80930A03F0E02E
:101B0000E951FD4F80818093BB0090910A03809141
:101B1000090329C0809154038093BB0085EC809316
:101B2000BC0064CF9091530380915203981758F5ED
:101B3000E091530381E08E0F80935303F0E0EE5C5D
:101B4000FC4F8081E9CFE091530381E08E0F8093B9
:101B500053038091BB00F0E0EE5CFC4F80839091DA
:101B60005303809152039817C8F285E8D8CFE091CB
:101B7000530381E08E0F809353038091BB00F0E00C
:101B8000EE5CFC4F80838091310381115CCF81E05A
:101B90008093300384EA8093BC0010922F0326CFF9
:101BA00085EC8093BC0010922F0380912D0380322E
:101BB00030F4E0912D03F0E0E35FFC4F1082609180
:101BC0002D0370E0E0910B03F0910C038DE093E0A6
:101BD000099510922D030ACF10922E0334CF1F9235
:101BE0000F920FB60F9211242F933F938F939F93D1
:101BF000AF93BF938091940290919502A091960229
:101C0000B09197023091930223E0230F2D3758F5BE
:101C10000196A11DB11D209393028093940290938D
:101C20009502A0939602B0939702809198029091AA
:101C30009902A0919A02B0919B020196A11DB11D3B
:101C40008093980290939902A0939A02B0939B027A
:101C5000BF91AF919F918F913F912F910F900FBEA8
:101C60000F901F90189526E8230F0296A11DB11D15
:101C7000D2CF1F920F920FB60F9211242F933F9342
:101C80004F935F936F937F938F939F93AF93BF9384
:101C9000EF93FF9381E693E00E941805FF91EF9187
:101CA000BF91AF919F918F917F916F915F914F9174
:101CB0003F912F910F900FBE0F901F9018951F927C
:101CC0000F920FB60F9211242F938F939F93EF9340
:101CD000FF93E0917103F09172038081E0917703AB
:101CE000F091780382FD1BC0908180917A038F5F11
:101CF0008F7320917B03821741F0E0917A03F0E02B
:101D0000EF59FC4F958F80937A03FF91EF919F914C
:101D10008F912F910F900FBE0F901F90189580817B
:101D2000F4CFEF92FF920F931F93CF93DF93E5E5EC
:101D3000F3E01382128288EE93E0A0E0B0E08483A7
:101D40009583A683B7832DE231E031832083E1E6DA
:101D5000F3E01382128284839583A683B7838FE393
:101D600091E09183808385EC90E09587848784EC73
:101D700090E09787868780EC90E0918B808B81EC58
:101D800090E0938B828B82EC90E0958B848B86EC39
:101D900090E0978B868B118E128E138E148E67ECCB
:101DA00071E08EEF93E00E942D0BCEEFD3E08FE039
:101DB0008E831F826BEC71E086E094E00E942D0B15
:101DC0008EE08E871F8682E080930A01EEE0F4E0C9
:101DD0001382128221E531E031832083118697E25C
:101DE000948390E1928783871486CBE1D4E01A82B2
:101DF00019821C821B821E821D8282E38F838FE1E7
:101E0000888785E289878CE0F82EFA861C861B86F7
:101E10001D861E861F86188A198A0DE214E0F801B5
:101E200010828EE18B8B1D8A1C8A88E08E8B89E064
:101E30008F8B8AE0888F60E088E00E94EF0160E08D
:101E40008F890E94EF0162E0888D0E94EF018B85EF
:101E50009C8590619C878B878E890E94A705E82EC0
:101E60008F890E94A705880F8E29982F9F70F801EF
:101E70008081807F892B8083E4E3F4E0F0828DE031
:101E800081838BE0828314821382DF91CF911F9133
:101E90000F91FF90EF900895CF93DF93CDB7DEB70A
:101EA0002F970FB6F894DEBF0FBECDBF789484B5E0
:101EB000826084BD84B5816084BD85B5826085BD46
:101EC00085B5816085BD80916E00816080936E00D4
:101ED00010928100809181008260809381008091C6
:101EE0008100816080938100809180008160809377
:101EF00080008091B10084608093B1008091B00037
:101F000081608093B00080917A00846080937A0031
:101F100080917A00826080937A0080917A0081605B
:101F200080937A0080917A00806880937A00109282
:101F3000C100E0917103F091720382E08083E0912F
:101F40006D03F0916E031082E0916F03F0917003C6
:101F50008FEC808310927903E0917503F091760302
:101F600086E08083E0917303F09174038081806147
:101F70008083E0917303F091740380818860808393
:101F8000E0917303F0917403808180688083E09115
:101F90007303F091740380818F7D80831092DE0241
:101FA0001092DD021092E0021092DF020E94B00156
:101FB00081ED90E0909308038093070382ED90E019
:101FC00090930C0380930B031092130480911904D7
:101FD000823018F098E0909313048093160462E323
:101FE00070E080E090E00E94610260911A048EE04F
:101FF00094E00E94C40568EE73E080E090E00E94E7
:10200000610260E38EE094E00E94A6070BE416E410
:10201000C8010197F1F760E38EE094E00E94A60703
:10202000C8010197F1F760E38EE094E00E94A607F3
:1020300083E592E00197F1F760E28EE094E00E9480
:10204000A60760911304606240E08EE094E00E9475
:10205000BF0784E08093140440E06CE08EE094E0DD
:102060000E94BF070E94090882E08093150440E0A7
:1020700066E08EE094E00E94BF0740E062E08EE000
:1020800094E00E94BF078BE39FE10197F1F761E0C5
:10209000809134040E94EF0161E0809135040E9438
:1020A000EF0160913704809136040E94EF0160E0F7
:1020B000809134040E94820160E0809135040E9486
:1020C000820161E08FE00E94EF0161E08EE00E94FA
:1020D000EF0180912604909127049061909327044A
:1020E000809326048FE18093230482E3809322046B
:1020F00085E28093240486E08093250480912C045B
:10210000887F80932C0410922E0410922804109241
:10211000290410922A0410922B049E012F5F3F4F36
:102120006901EE24E394F12C122F0D2DC7010E94BA
:10213000E012D6018D936D01BFEFEB1AFB0AE8E0C8
:10214000EE16F10499F729813A8180910801909166
:102150000901281739070CF04EC18FEC91E00E945D
:10216000770880EE91E00E94770878E0C72E71E052
:10217000D72EEE24E394F12CD601BD906D01C7015A
:102180000E94E012B81621F06B2DC7010E94E812E0
:10219000BFEFEB1AFB0AE8E0EE16F10469F7FF2443
:1021A000F39450E0C52E50E0D52EEE24E39468E081
:1021B000762E8091330490912C0497FF2AC10E94BF
:1021C000A705682F8FEF0E949F0290909102A92C83
:1021D000B12C80918F02882309F42BC1C5010E9484
:1021E000AF06982E809126049091270480759170F7
:1021F000409729F4809190028F25809390028091DE
:10220000900281111AC00E949B00882339F08091AE
:102210009202882319F08150809392020E948D00CF
:10222000882359F090919202492D4150550B9417F3
:1022300015061CF49F5F90939202C5010E94AF06A1
:102240002091920230E0220F331FC901860F971FA1
:10225000DC01ED91FC91099580912C0485FD09C06C
:10226000809126049091270480759170409709F021
:1022700085C00E94090870921A0460E08EE094E024
:102280000E94C4050E94930260938B0270938C029B
:1022900080938D0290938E0260919102812F902FF6
:1022A0000E94D40A67E172E0CE0109960E942D0BCC
:1022B000612F702FCE0109960E94480A0E948A0859
:1022C000CE0109960E94420B812F902F0E94420B53
:1022D00060919202812F902F0E94D40A64E372E0F1
:1022E000CE0109960E942D0B612F702FCE01099609
:1022F0000E94480A0E948A08CE0109960E94420B59
:10230000812F902F0E94420B6091900270E0812FEC
:10231000902F0E949C0A60E572E0CE0109960E940F
:102320002D0B612F702FCE0109960E94480A0E9442
:102330008A08CE0109960E94420B812F902F0E949D
:10234000420B60918F0270E0812F902F0E949C0AB7
:102350006DE672E0CE0109960E942D0B612F702F61
:10236000CE0109960E94480A0E948A08CE01099669
:102370000E94420B812F902F0E94420B0E949302D9
:1023800080908B0290908C02A0908D02B0908E0273
:102390009B01AC01281939094A095B0949015A0115
:1023A00038E8831633E19306A104B10478F0609312
:1023B0008B0270938C0280938D0290938E02109208
:1023C0001A0460E08EE094E00E94C4050E94220797
:1023D00029873A874B875C876D877E878F878DEE4D
:1023E000850FE0910D01F0910E01833008F060C07F
:1023F000F782F7866EC089EF91E00E94770887E048
:10240000E12FF02FA8E0B1E001900D928A95E1F75D
:10241000C6CE0E94A705A82E809131040E94A70570
:10242000B82E809132040E94A705880F6A2D8B294F
:10243000CACEC5010E94AF06209126043091270420
:102440002075317020313105A1F4882391F0E0929C
:102450008F02B1E09B120DC00E94220729833A83AC
:102460004B835C836D837E838F8350930B016093DA
:102470000C010E949B00882329F0992019F09A945E
:10248000909291020E948D00882339F080919102F0
:10249000833018F48F5F80939102E0919102F0E015
:1024A000EE0FFF1FEF5DFE4F0190F081E02DD3CEC8
:1024B0008FEF850F833058F089EF850F843038F027
:1024C00082EF850F843018F05551533070F5F78244
:1024D0001786912C812C80910A018815190439F1F5
:1024E00034F1C40123E0880F991F2A95E1F7A090E9
:1024F0000D01B0900E01A80EB91EB501812F902FCD
:102500000E94240BD50116968C9116978F831796EF
:102510006C9168876F250E948201812F902F0E9405
:10252000420BBFEF8B1A9B0AD6CF178262CFC11422
:10253000D10409F43ECE0E940405882309F439CE63
:102540000E94000036CE86E094E00E94420B8EEF9F
:1025500093E00C94420BBB274A3031F4992322F4C8
:10256000BDE2909581959F4F0C94B712BB27FB015C
:102570005527AA27880F991FAA1FA41710F0A41B7C
:1025800083955051B9F7A05DAA3308F0A95DA193D6
:10259000009779F7B111B1931192CB010C94D0123D
:1025A000DC01FC01672F71917723E1F7329704C0BA
:1025B0007C916D9370836291AE17BF07C8F3089545
:1025C000F999FECF92BD81BDF89A992780B50895FB
:1025D000262FF999FECF1FBA92BD81BD20BD0FB63F
:1025E000F894FA9AF99A0FBE019608952F923F92A5
:1025F0004F925F926F927F928F929F92AF92BF9213
:10260000CF92DF92EF92FF920F931F93CF93DF93BE
:10261000CDB7DEB7CA1BDB0B0FB6F894DEBF0FBE1B
:10262000CDBF09942A88398848885F846E847D8468
:102630008C849B84AA84B984C884DF80EE80FD806A
:102640000C811B81AA81B981CE0FD11D0FB6F894E0
:10265000DEBF0FBECDBFED010895991B79E004C028
:10266000991F961708F0961B881F7A95C9F78095D1
:102670000895A1E21A2EAA1BBB1BFD010DC0AA1FC3
:10268000BB1FEE1FFF1FA217B307E407F50720F0DB
:10269000A21BB30BE40BF50B661F771F881F991F56
:1026A0001A9469F760957095809590959B01AC019F
:1026B000BD01CF010895EE0FFF1F0590F491E02DAD
:1026C00009940F931F93CF93DF938230910510F4F9
:1026D00082E090E0E0913B04F0913C0430E020E0A7
:1026E000B0E0A0E0309799F42115310509F44AC013
:1026F000281B390B24303105D8F58A819B8161155F
:10270000710589F1FB0193838283FE0111C0408131
:1027100051810281138148175907E0F04817590782
:1027200099F4109761F012960C93129713961C93DC
:102730003296CF01DF91CF911F910F9108950093B1
:102740003B0410933C04F4CF2115310551F042179E
:10275000530738F0A901DB019A01BD01DF01F8013F
:10276000C1CFEF01F9CF90933C0480933B04CDCFD0
:10277000FE01E20FF31F81939193225031093983B7
:102780002883D7CF2091390430913A04232B41F488
:10279000209111013091120130933A0420933904B1
:1027A00020910F01309110012115310541F42DB711
:1027B0003EB74091130150911401241B350BE09159
:1027C0003904F0913A04E217F307A0F42E1B3F0BF3
:1027D0002817390778F0AC014E5F5F4F2417350793
:1027E00048F04E0F5F1F50933A0440933904819391
:1027F00091939FCFF0E0E0E09CCFCF93DF930097E1
:10280000E9F0FC01329713821282A0913B04B0914F
:102810003C04ED0130E020E01097A1F420813181EB
:10282000820F931F2091390430913A0428173907F9
:1028300009F061C0F0933A04E0933904DF91CF913D
:102840000895EA01CE17DF07E8F54A815B819E0112
:1028500041155105B1F7E901FB83EA83499159918B
:10286000C40FD51FEC17FD0761F48081918102969A
:10287000840F951FE90199838883828193819B83CB
:102880008A83F0E0E0E012968D919C911397009777
:10289000B9F52D913C911197CD010296820F931FAE
:1028A0002091390430913A042817390739F63097C6
:1028B00051F510923C0410923B04B0933A04A0935B
:1028C0003904BCCFD383C28340815181840F951FCB
:1028D000C817D90761F44E5F5F4F88819981480F0F
:1028E000591F518340838A819B8193838283211561
:1028F000310509F0B0CFF0933C04E0933B049ECF48
:10290000FD01DC01C0CF13821282D7CFB0E0A0E07E
:10291000ECE8F4E10C94F8128C01009751F4CB012F
:102920000E9461138C01C801CDB7DEB7E0E10C94C1
:102930001413FC01E60FF71F9C0122503109E21726
:10294000F30708F49DC0D901CD91DC911197C6170A
:10295000D70798F0C530D10530F3CE01049786171C
:10296000970708F3C61BD70B2297C193D1936D939A
:102970007C93CF010E94FD13D6CF5B01AC1ABD0A38
:102980004C018C0E9D1EA0913B04B0913C04512C37
:10299000412CF12CE12C109731F580913904909164
:1029A0003A048815990509F05CC04616570608F0E8
:1029B00058C080910F0190911001009741F48DB79C
:1029C0009EB74091130150911401841B950BE81799
:1029D000F90708F055C0F0933A04E0933904F9017F
:1029E00071836083A0CF8D919C91119712966C900A
:1029F000129713967C901397A815B90559F56C0199
:102A000042E0C40ED11CCA14DB0420F1AC014A1907
:102A10005B09DA011296159780F062827382518306
:102A20004083D9016D937C93E114F10471F0D701D7
:102A30001396FC93EE93129776CF22968C0F9D1FE0
:102A4000F90191838083F301EFCFF0933C04E0938D
:102A50003B0469CF4816590608F42C017D01D301C7
:102A60009ACFCB010E9461137C01009749F0AE011F
:102A7000B8010E944315C8010E94FD13870153CF7E
:102A800010E000E050CFFB01DC0102C001900D928C
:102A900041505040D8F70895FB01DC0101900D92A0
:102AA0000020E1F7089510E0C2E6D0E004C0FE0186
:102AB0000E945B132196C336D107C9F7F894FFCF64
:102AC00063093209BC08A1080900000101FE0300E6
:102AD000003D048000000104000000400014005488
:102AE000004A0BA8099E099409000000002A01FD74
:102AF00000AC06D300F600E300D400000000003A6A
:102B0000059A04C7048705F804D604EA0400000007
:102B1000001C089A04AC06AB060D0A0053617665EA
:102B200020616E642045786974004D696E75746526
:102B30002073657474696E6700486F7572207365E1
:102B40007474696E670052656C6179203220536538
:102B50007474696E67730052656C6179203120531B
:102B6000657474696E67730054696D65205365748C
:102B700074696E6773003A004F4E004F464600304E
:102B800000202020202000524C3100524C320053B3
:102B9000657474696E677320757064617465640030
:102BA00053657474696E677320736176656420740D
:102BB0006F20454550524F4D0053657474696E67E0
:102BC000732072656365697665642066726F6D2037
:102BD000454550524F4D006D656E7553657474696F
:102BE0006E67732E6D61696E4D656E75496E6465B5
:102BF000783A20006D656E7553657474696E6773FD
:102C00002E7375624D656E75496E6465783A200065
:102C10006D656E7553657474696E67732E69735351
:102C200075624D656E75456469743A20006D656E18
:102C30007553657474696E67732E69735375624D4D
:062C4000656E753A2000EC
:00000001FF
