:100000000C9462000C948A000C948A000C948A0070
:100010000C948A000C948A000C948A000C948A0038
:100020000C948A000C948A000C948A000C948A0028
:100030000C948A000C948A000C948A000C948A0018
:100040000C94D90D0C948A000C94490E0C94230E38
:100050000C948A000C948A000C948A000C948A00F8
:100060000C94BA0C0C948A000000000024002700B5
:100070002A0000000000250028002B0000000000DE
:1000800023002600290004040404040404040202DA
:100090000202020203030303030301020408102007
:1000A0004080010204081020010204081020000012
:1000B0000008000201000003040700000000000027
:1000C00000007B0E11241FBECFEFD8E0DEBFCDBFF6
:1000D00024E0A0E6B2E001C01D92A330B207E1F730
:1000E00012E0A0E0B1E0E6E7F9E202C005900D926F
:1000F000A036B107D9F710E0C2E6D0E004C02197DE
:10010000FE010E94C112C136D107C9F70E94200F1B
:100110000C94B9140C940000CF92DF92EF92FF92EE
:10012000CF932091EC033091ED0320FD1092E10379
:10013000A9014F715527452B29F0207E3093ED03FF
:100140002093EC032091F20325FF03C02F7D209321
:10015000F2032091EC033091ED0334FB992790F9E1
:10016000962736FF06C03F7B3093ED032093EC03C8
:1001700091E02091EC033091ED0331FD08C099230B
:1001800009F449C032603093ED032093EC032FB79C
:10019000F8944091270350912803609129037091AE
:1001A0002A032FBF2091E2033091E303DA01A21B5F
:1001B000B30B2091EC033091ED03992309F486C031
:1001C00025FD65C09091E80332FD08C0992331F008
:1001D00034603093ED032093EC030FC09A171B0695
:1001E00019F010F091110DC022623093ED032093AD
:1001F000EC035093E5034093E4035093E3034093EF
:10020000E2032091EC033091ED032F71332791E04D
:10021000232B09F490E02091F5033091F60321158A
:10022000310509F4C2C08091F20321FFBAC0806198
:100230008093F2038091F20322FFB5C0886080931F
:10024000F203E3E036952795EA95E1F73093F6035C
:100250002093F5032091EC033091ED0325FF67C156
:1002600030683093ED032093EC032091EC03309140
:10027000ED0333FD05C038603093ED032093EC03AC
:100280008091F20380628093F203C1E091C037FD58
:10029000B8CF26FD0CC0E091EA0390E1E99FF001A0
:1002A0001124AE17BF0708F4ACCF246492CFE091BD
:1002B000EB0327FFE091EA0390E1E99FF0011124AD
:1002C0002868AE17BF0708F084CF9BCF25FF19C061
:1002D0009091E8039A171B0611F008F041C026FD23
:1002E00005C09091E1039F5F9093E10337FD109269
:1002F000E1032F7D206131603093ED032093EC0307
:100300002FC030FF15C037FD05C020613093ED03CD
:100310002093EC032091EC033091ED033E77309372
:10032000ED032093EC035093E3034093E20318C0E2
:100330009091E103992339F1A901407C5527452B80
:10034000D9F44091E903E0E14E9FA0011124A417E4
:10035000B50790F42091E4033091E503232B71F469
:100360002091EC033091ED0332FF4BCF3B7F309374
:10037000ED032093EC0345CF2160BECF1092E5033F
:100380001092E403EDCF31FFEBCF2F733D7F386048
:100390003093ED032093EC031092E5031092E403F5
:1003A000C2CF8F7E45CF877F4ACF87FF11C0C0E085
:1003B000C92BE091E603F091E703309711F0C111EA
:1003C00009958C2FCF91FF90EF90DF90CF900895FB
:1003D000E091F3032E2F2295207F259525952595D5
:1003E0002595022E000C330B482F082E000C550BC0
:1003F00024173507E1F2220F331F220F331F242B5E
:10040000352B220F331F41E656E164E979E404C03D
:1004100075956795579547952A95D2F74370E59559
:10042000E595E595E595E1504E0F4295407F459560
:10043000459545954595242F2295207F382F3F706F
:10044000232B2093F303207F09F4B1CF2091F203F3
:10045000322F3370313009F45BC008F455C03230AC
:1004600009F45AC081E014160CF080E022FB332717
:1004700030F9831709F455C081E03091F3033F70E0
:100480003093F303C82E082E000CDD08EE08FF0899
:100490004091EE035091EF036091F0037091F103EE
:1004A0004C0D5D1D6E1D7F1D4093EE035093EF03B9
:1004B0006093F0037093F1038130A9F520612093DC
:1004C000F2038FB7F894409127035091280360916D
:1004D000290370912A038FBF2091E2033091E30337
:1004E000FA01E21BF30B9F01E091F4038091F20308
:1004F0005093E3034093E203E2171306B1F0A8F030
:1005000088608093F203A6CE833009F050CFAACF43
:10051000882309F4A7CF4BCF8150823008F0A2CFB7
:1005200046CF8FEFAACF2F7ECACF877FEACF109218
:10053000E1039BCE8091F2038073803339F4809184
:10054000ED038095881F8827881F089580E008950F
:100550008091F20384FD09C085FF07C08091ED03FF
:100560008095881F8827881F089580E0089520912E
:10057000DB02260F3327331F21323105ECF42091A3
:100580000103FC0190E080E0243069F082E00895EE
:10059000A091DB022191AC0147545D4FA40FB52F10
:1005A000B11D2C930196861798F38091DB02680F9A
:1005B0006093DB0280E0089581E008950895089536
:1005C0000895E091B0028091AF02E81730F4F0E0B6
:1005D000E157FD4F808190E008958FEF9FEF0895E0
:1005E0009091B0028091AF022FEF3FEF981748F43F
:1005F000E92FF0E0E157FD4F208130E09F5F9093BD
:10060000B002C90108958091AF029091B002891B98
:10061000990B0895CF92DF92EF92FF920F931F9361
:10062000CF93DF937C01CB018A0120918E0222239C
:1006300089F0EB016B01C40ED51ECC15DD0569F008
:100640006991D701ED91FC910190F081E02DC701F6
:100650000995F3CF642F0E94B702C801DF91CF91B3
:100660001F910F91FF90EF90DF90CF900895CF935F
:10067000DF931F92CDB7DEB7698320918E022223CC
:10068000F9F02091B102203258F021E030E0FC0175
:100690003383228390E080E00F90DF91CF91089523
:1006A0008091B202E82FF0E0E259FD4F99819083EA
:1006B0008F5F8093B2028093B10281E090E0ECCF33
:1006C00061E0CE0101960E94B702F7CF833081F03E
:1006D00028F4813099F08230A9F008958730A9F08C
:1006E0008830C9F08430B1F4809180008F7D03C0E0
:1006F000809180008F7780938000089584B58F77F4
:1007000084BD089584B58F7DFBCF8091B0008F7735
:100710008093B00008958091B0008F7DF9CF1F9332
:10072000CF93DF93282F30E0F901E255FF4F8491FA
:10073000F901E656FF4FD491F901EA57FF4FC491F2
:10074000CC23A9F0162F81110E946603EC2FF0E054
:10075000EE0FFF1FEE58FF4FA591B4918FB7F8949D
:10076000EC91111108C0D095DE23DC938FBFDF918F
:10077000CF911F910895DE2BF8CF1092010381E0F5
:10078000809303031092020361E082E10E948F03D1
:1007900061E083E10E948F03E9EBF0E080818E7FCE
:1007A000808380818D7F808388E48093B80085E496
:1007B0008093BC000895CF93DF9391E09093B802AB
:1007C0008823B9F0C091B800D091BA008091BC00E4
:1007D0008A7B8093BC0060E082E10E948F0360E02E
:1007E00083E10E948F030E94BD03D093BA00C0939F
:1007F000B800DF91CF910895CF93DF9390E0FC0193
:10080000E656FF4F24918A579F4FFC01849188231D
:10081000C9F090E0880F991FFC01E859FF4FA5919E
:10082000B491FC01EE58FF4FC591D49161110DC0F8
:100830009FB7F8948C91209582238C9388812823EC
:1008400028839FBFDF91CF910895623051F49FB705
:10085000F8943C91822F809583238C93E8812E2BF2
:10086000EFCF8FB7F894EC912E2B2C938FBFEACF5C
:100870002091FD033091FE032817390749F090932A
:10088000FE038093FD03682F8091FC030C94FC030E
:1008900008953FB7F89480916A0290916B02A091FD
:1008A0006C02B0916D0226B5A89B05C02F3F19F0D0
:1008B0000196A11DB11D3FBFBA2FA92F982F8827E0
:1008C000BC01CD01620F711D811D911D42E0660FBB
:1008D000771F881F991F4A95D1F708958F929F928D
:1008E000AF92BF92CF92DF92EF92FF924B015C01E9
:1008F0000E9449046B017C010E9449046C197D0926
:100900008E099F09683E734081059105A8F321E097
:10091000821A9108A108B10888EEC80E83E0D81E9B
:10092000E11CF11C81149104A104B10429F7FF908A
:10093000EF90DF90CF90BF90AF909F908F900895F1
:10094000DB0114964D915C9115976D917C91DC01C2
:10095000ED91FC910280F381E02D0994AF92BF925A
:10096000CF92DF92EF92FF920F931F93CF93DF937B
:100970006C017B018B01040F151FEB015E01AE18AA
:10098000BF08C017D10759F06991D601ED91FC91CC
:100990000190F081E02DC6010995892B79F7C501F9
:1009A000DF91CF911F910F91FF90EF90DF90CF904B
:1009B000BF90AF900895FC01538D448D252F30E0FA
:1009C000842F90E0821B930B541710F0CF9608955C
:1009D00001970895FC01918D828D981761F0A28D89
:1009E000AE0FBF2FB11D5D968C91928D9F5F9F734F
:1009F000928F90E008958FEF9FEF0895FC01918D05
:100A0000828D981731F0828DE80FF11D858D90E071
:100A100008958FEF9FEF0895FC01918D228D892F0E
:100A200090E0805C9F4F821B91098F7399270895F6
:100A300087E393E00E940C0521E0892B09F420E074
:100A4000822F089580E090E0892B29F00E941805FC
:100A500081110C9400000895FC01A48DA80FB92FFA
:100A6000B11DA35ABF4F2C91848D90E001968F73D6
:100A70009927848FA689B7892C93A089B1898C91F5
:100A8000837080648C93938D848D981306C0028844
:100A9000F389E02D80818F7D80830895EF92FF920E
:100AA0000F931F93CF93DF93EC0181E0888F9B8D91
:100AB0008C8D98131AC0E889F989808185FF15C04B
:100AC0009FB7F894EE89FF896083E889F98980816E
:100AD0008370806480839FBF81E090E0DF91CF913D
:100AE0001F910F91FF90EF900895F62E0B8D10E05F
:100AF0000F5F1F4F0F731127E02E8C8D8E110CC0CE
:100B00000FB607FCFACFE889F989808185FFF5CF18
:100B1000CE010E942C05F1CFEB8DEC0FFD2FF11DC6
:100B2000E35AFF4FF0829FB7F8940B8FEA89FB8955
:100B300080818062CFCFCF93DF93EC01888D8823B3
:100B4000B9F0AA89BB89E889F9898C9185FD03C030
:100B5000808186FD0DC00FB607FCF7CF8C9185FF15
:100B6000F2CF808185FFEDCFCE010E942C05E9CF29
:100B7000DF91CF910895883058F429B130E0A90170
:100B800002C0559547958A95E2F7CA01817008958C
:100B90008E3028F423B130E08850990BF0CF8431A7
:100BA00028F426B130E08E50990BE9CF80E008950B
:100BB000CF92DF92EF92FF920F931F93CF93DF9329
:100BC000FC01C48121E020938E02C0936402109244
:100BD000B2021092B1028485682B8BE293E00E94EE
:100BE0003703D091B102D13208F092C00E9449047B
:100BF0006B017C0180910103811165C082E08093CB
:100C0000010381E0809303038FEF80930003109230
:100C10002503D0932403AEE6B2E0E4E0F3E080E005
:100C2000D81385C01092260380912603CC0FC82BC1
:100C3000C093260380910203813009F07CC010929A
:100C400002030E9449046B017C018091260380937A
:100C5000BB008091B4029091B502A091B602B09110
:100C6000B702892B8A2B8B2B99F00E9449040091A3
:100C7000B4021091B5022091B6023091B7026C19FE
:100C80007D098E099F090617170728073907E0F124
:100C90008091BC0083FDD9CF85EC8093BC000E947D
:100CA00049046B017C0180910103823009F445C045
:100CB000809100038F3F61F180910003803241F108
:100CC0008091000325C08091B4029091B502A0915B
:100CD000B602B091B702892B8A2B8B2B09F48ACFED
:100CE0000E9449040091B4021091B5022091B6020D
:100CF0003091B7026C197D098E099F0906171707F5
:100D00002807390708F076CF8091B3020E94DB03F1
:100D10001092B2021092B10210928E02DF91CF9126
:100D20001F910F91FF90EF90DF90CF9008959D91CC
:100D300091938F5F75CF85EEB0CF8091B402909183
:100D4000B502A091B602B091B702892B8A2B8B2BEA
:100D500009F4A9CF0E9449040091B4021091B50290
:100D60002091B6023091B7026C197D098E099F0956
:100D7000061717072807390708F095CFC5CF08953C
:100D800090E080E00895892B29F464E672E090E019
:100D900080E0089560911401709115018091160111
:100DA000909117010895DF92EF92FF920F931F9396
:100DB000CF93DF93D0E0C0E0E12C01E010E0209180
:100DC000FC0330E0F901E255FF4F8491F901E6564A
:100DD000FF4FF490F901EA57FF4FD490DD20A9F0BE
:100DE00081110E946603ED2DF0E0EE0FFF1FE45825
:100DF000FF4FA591B491EC91FE2239F0C8010C2E61
:100E000001C0880F0A94EAF7E82A61E08091FB03A9
:100E10000E948F0360E08091FB030E948F03219664
:100E2000C830D10509F0CBCF8E2DDF91CF911F9126
:100E30000F91FF90EF90DF900895CF93DF93D82F1D
:100E4000C8E06D2F61708091FC030E948F0361E008
:100E50008091FB030E948F0360E08091FB030E945E
:100E60008F03D695C15069F7DF91CF910895EF9226
:100E7000FF921F93CF93DF93EC0181E090E00E94FB
:100E800038048AEFE82E83E0F82E61E0F7018081D4
:100E90000E948F038FEB0E941D0790E080E00E946C
:100EA00038040E94D306982F929597701AE08F709D
:100EB000919F800D11248D830E94D306982F9295C7
:100EC00097708F70919F800D11248C830E94D306A0
:100ED000982F929593708F70919F800D11248B8322
:100EE0000E94D306982F929593708F70919F800DDA
:100EF00011248A830E94D30684FB992790F98F706E
:100F0000919F800D112489830E94D30687708E8360
:100F10000E94D306982F929597708F70919F800DA5
:100F20001124888360E0F7018081DF91CF911F91C8
:100F3000FF90EF900C948F030F931F93CF938C012E
:100F4000C62F0E94D8056C2F6460C8010E94D80586
:100F50006C2F6B7FC8010E94D80583EC90E001974D
:100F6000F1F7CF911F910F9108950F931F93CF9396
:100F7000DF938C01D62FC42F607F642B0E949C07C7
:100F800080E1D89FB00111246C2BC801DF91CF9173
:100F90001F910F910C949C07CF93DF93CDB7DEB7D1
:100FA00028970FB6F894DEBF0FBECDBF98E0E8E1FA
:100FB000F1E0DE01119601900D929A95E1F7909182
:100FC000DC03961708F46FEF262F30E0220F331F53
:100FD00041E050E04C0F5D1F240F351FF901608187
:100FE000680F606840E084ED93E028960FB6F894AF
:100FF000DEBF0FBECDBFDF91CF910C94B50740E0AF
:1010000061E084ED93E00E94B5078BE39FE10197D7
:10101000F1F78091DD03882321F060E080E00C94FB
:10102000CC07089541E00E94B50781E090E0089563
:10103000FB0101900020E9F73197AF01461B570BE8
:10104000DC01ED91FC910280F381E02D09948F92F7
:101050009F92AF92BF920F931F93CF93DF93CDB721
:10106000DEB7A1970FB6F894DEBF0FBECDBF19A2B1
:10107000423008F44AE08E010F5D1F4F842E912C00
:10108000B12CA12CA50194010E949F12E62FB90159
:10109000CA01EA3004F5E05DD801EE938D01232BFF
:1010A000242B252B79F790E080E0109729F0BD01E3
:1010B00084ED93E00E941808A1960FB6F894DEBF65
:1010C0000FBECDBFDF91CF911F910F91BF90AF9019
:1010D0009F908F900895E95CDFCFCF93DF93BC01A1
:1010E00087E393E00E94A004EC0164E571E087E3EC
:1010F00093E00E9418088C0F9D1FDF91CF910895F7
:10110000CF93DF93BC0187E393E00E941808EC01C2
:1011100064E571E087E393E00E9418088C0F9D1F3F
:10112000DF91CF91089560E081E00E94CC0760E6F6
:1011300071E084ED93E00E9418088091EC03909197
:10114000ED0380759170409741F410926602109201
:10115000650210926702109268020895CF93DF93A0
:1011600060E081E00E94CC0767E571E084ED93E0E8
:101170000E9418088091EC039091ED0380759170A6
:10118000409709F05EC0C0910D01D0910C0181E043
:1011900090E00E94380461E08091FA030E948F037E
:1011A0008EE80E941D0780E00E941D0760E080918C
:1011B000FA030E948F0381E090E00E94380461E00E
:1011C0008091FA030E948F038EEB0E941D0780E03E
:1011D0000E941D078C2F6CE30E949312892FCAE096
:1011E0006C2F0E9493128295807F890F0E941D07A9
:1011F0008D2F68E10E949312892F6C2F0E94931209
:101200008295807F890F0E941D0785E10E941D073E
:1012100089E00E941D0787E00E941D0783E20E946B
:101220001D0780E80E941D0760E08091FA030E947C
:101230008F0310926602109265021092670210925C
:101240006802DF91CF91089560E081E00E94CC07B1
:1012500065E671E084ED93E00E94180861E081E0AA
:101260000E94CC0760910D0170E090E080E04AE0C0
:101270000E942708809166028823B1F00E94A8028C
:10128000882339F080910D01882319F081508093D3
:101290000D010E949A02882339F080910D018C3350
:1012A00018F48F5F80930D01089560E081E00E9443
:1012B000CC0764E771E084ED93E00E94180861E0D8
:1012C00081E00E94CC0760910C0170E090E080E02A
:1012D0004AE00E942708809166028823B1F00E94AC
:1012E000A802882339F080910C01882319F08150DD
:1012F00080930C010E949A02882339F080910C019E
:10130000883118F48F5F80930C01089560E081E0CC
:101310000E94CC0761E871E084ED93E00C9418081A
:1013200085ED8093BC008091B4029091B502A091AC
:10133000B602B091B7020796A11DB11D23E0B69584
:10134000A795979587952A95D1F72091BC0024FD04
:1013500003C01092010308954091B4025091B50268
:101360006091B6027091B702452B462B472B69F36B
:101370000097A105B10541F025E32A95F1F700009A
:101380000197A109B109E1CF8091B3020C94DB036D
:101390000F931F93CF93DF93EC018881998100977E
:1013A00059F02A813B812617370730F081E0DF9121
:1013B000CF911F910F9108958B016F5F7F4F0E9416
:1013C000EC13009759F0998388831B830A832C813F
:1013D0003D81232B59F7FC011082E8CF80E0E7CF55
:1013E000CF93DF93EC0188819981009711F00E94DF
:1013F0006313198218821D821C821B821A82DF915C
:10140000CF9108950F931F93CF93DF93EC010C813D
:101410001D810F5F1F4FB8010E94C809882391F0FA
:10142000288139818C819D8161EA71E0820F931F4F
:101430000E94B2141D830C83CE01DF91CF911F91C6
:101440000F910895CE010E94F009F6CFEF92FF921E
:101450000F931F93CF93DF93EC01FB01E080F180AA
:10146000E114F10411F10481158101151105A9F0B0
:101470008C819D81080F191FB801CE010E94C809F7
:10148000882399F0288139818C819D81B701820F51
:10149000931F0E94B2141D830C83CE01DF91CF9164
:1014A0001F910F91FF90EF900895CE010E94F009D7
:1014B000F4CFEF92FF920F931F93CF93DF93EC0142
:1014C0007B018A01BA010E94C80981110BC0CE01BB
:1014D0000E94F009CE01DF91CF911F910F91FF90F3
:1014E000EF9008951D830C83B701888199810E9434
:1014F000B214F0CFEF92FF920F931F93CF93DF932D
:10150000CDB7DEB729970FB6F894DEBF0FBECDBFBB
:101510008C01862FF80111821082138212821582AB
:1015200014824AE09E012F5F3F4F7901B90190E09C
:101530000E941C12F70101900020E9F73197AF01DA
:101540004E195F09B701C8010E94590A29960FB6C2
:10155000F894DEBF0FBECDBFDF91CF911F910F91E9
:10156000FF90EF900895EF92FF920F931F93CF9308
:10157000DF93CDB7DEB762970FB6F894DEBF0FBE2C
:10158000CDBF8C01CB01F80111821082138212822F
:10159000158214824AE09E012F5F3F4F7901B90105
:1015A0000E941112F70101900020E9F73197AF0175
:1015B0004E195F09B701C8010E94590A62960FB619
:1015C000F894DEBF0FBECDBFDF91CF911F910F9179
:1015D000FF90EF900895CF93DF93EC01FB01861706
:1015E000970749F0608171816115710541F044816F
:1015F00055810E94590ACE01DF91CF9108950E9432
:10160000F009F9CFFC011182108213821282158237
:1016100014826115710551F0FB0101900020E9F77A
:101620003197AF01461B570B0C94590A0895FC01E2
:1016300080819181009711F00C94631308957F923B
:101640008F929F92AF92BF92CF92DF92EF92FF92D2
:101650000F931F93CF93DF93CDB7DEB7AC970FB641
:10166000F894DEBF0FBECDBF2FB7F894809127034B
:1016700090912803A0912903B0912A032FBF409194
:1016800060025091610260916202709163028C016C
:101690009D01041B150B260B370BB901A801483E11
:1016A00053406105710508F446C180936002909330
:1016B0006102A0936202B0936302CE0108960E9479
:1016C000370787E0FE013896DE01119601900D92F2
:1016D0008A95E1F79C80AD80BE8066E571E0CE0121
:1016E00087960E94020B7E0121E2E20EF11C692D19
:1016F000C7010E947A0A6E013BE1C30ED11C6A2D1C
:10170000C6010E947A0A8E010B5E1F4F6B2DC80125
:101710000E947A0A8AE0891508F421C166E971E01D
:10172000CE0108960E94020BB701CE0108960E94D6
:10173000260A782E892E99249394188A1F861A8A4D
:10174000198A1C8A1B8ABE01695D7F4FCE010F96E4
:101750000E94EB0A672D782DCE010F960E94260A73
:101760000E94020ABC01CE0187960E94EB0ACE01BC
:101770000F960E94170B992021F0CE0108960E9427
:10178000170B2AE02A1508F4EEC066E971E0CE01D5
:1017900008960E94020BB601CE0108960E94260A06
:1017A0004C01AA24A394188A1F861A8A198A1C8AB3
:1017B0001B8ABE01695D7F4FCE010F960E94EB0A26
:1017C000B401CE010F960E94260A0E94020ABC01B3
:1017D000CE0187960E94EB0ACE010F960E94170B4E
:1017E000AA2021F0CE0108960E94170B3AE03B1583
:1017F00008F4BCC066E971E0CE0108960E94020BB5
:10180000B801CE0108960E94260A982EA92EBB2464
:10181000B394188A1F861A8A198A1C8A1B8ABE01E9
:10182000695D7F4FCE010F960E94EB0A692D7A2DDC
:10183000CE010F960E94260ABC01CE0187960E9417
:10184000EB0ACE010F960E94170BBB2021F0CE01B0
:1018500008960E94170BC8010E94170BC6010E9430
:10186000170BC7010E94170B60E080E00E94CC07B5
:10187000BE01695D7F4F84ED93E00E94A00468E99A
:1018800071E084ED93E00E94180880910A0162E9FA
:1018900071E0882311F06FE871E0C8010E94020B2B
:1018A00080910B0162E971E0882311F06FE871E02B
:1018B000CE010F960E94020B61E080E00E94CC07EF
:1018C0006EE971E0CE0108960E94020BB801CE01CC
:1018D00008960E94260ABC0184ED93E00E94A004B1
:1018E000CE0108960E94170B6BE971E084ED93E03E
:1018F0000E94180863EA71E0CE0108960E94020B6C
:10190000BE01615F7F4FCE0108960E94260ABC018E
:1019100084ED93E00E94A004CE0108960E94170B6C
:10192000CE010F960E94170BC8010E94170BCE0123
:1019300087960E94170BAC960FB6F894DEBF0FBEC9
:10194000CDBFDF91CF911F910F91FF90EF90DF906E
:10195000CF90BF90AF909F908F907F900895912CE3
:101960007E2C8F2CEACEA12C46011DCFB12C902EBF
:10197000A12E4FCF1F920F920FB60F9211242F93CB
:101980003F934F935F936F937F938F939F93AF9307
:10199000BF93EF93FF938091B900887F803609F45D
:1019A0004AC0F0F5883209F4A7C018F5803109F46F
:1019B0009BC0B8F4882309F4F9C0883009F494C0B6
:1019C000FF91EF91BF91AF919F918F917F916F9117
:1019D0005F914F913F912F910F900FBE0F901F90ED
:1019E0001895883109F488C0803251F7809300033C
:1019F00014C0803409F49DC040F48033B9F38833B7
:101A0000F9F68093000385ECB0C0803509F485C0F9
:101A1000883509F496C0883499F60E949009D0CF91
:101A2000883909F48CC038F5883729F050F48836A5
:101A300011F0803729F683E0809301031092FF02B2
:101A400057C0883809F47BC0803919F0803809F014
:101A5000B7CF8091FF02803208F071C0E091FF02A1
:101A600081E08E0F8093FF028091BB00F0E0E15295
:101A7000FD4F80833DC0803B39F0E0F4803A09F4AB
:101A800079C0883A09F09CCF84E0809301031092DA
:101A9000DC021092DB02E091D902F091DA020995A2
:101AA0008091DB0281110FC081E08093DB021092F4
:101AB000B90209C0803C09F4A6CF883C09F4A3CF41
:101AC000883B09F07DCFE091DC0281E08E0F8093AE
:101AD000DC02F0E0E754FD4F80818093BB009091E1
:101AE000DC028091DB0229C0809126038093BB0039
:101AF00085EC8093BC0064CF9091250380912403F2
:101B0000981758F5E091250381E08E0F8093250307
:101B1000F0E0EC5FFC4F8081E9CFE091250381E0AC
:101B20008E0F809325038091BB00F0E0EC5FFC4FAB
:101B3000808390912503809124039817C8F285E84B
:101B4000D8CFE091250381E08E0F8093250380910B
:101B5000BB00F0E0EC5FFC4F8083809103038111B8
:101B60005CCF81E08093020384EA8093BC001092F2
:101B7000010326CF85EC8093BC0010920103809175
:101B8000FF02803230F4E091FF02F0E0E152FD4FBD
:101B900010826091FF0270E0E091DD02F091DE02C0
:101BA0008FED92E009951092FF020ACF1092000388
:101BB00034CF1F920F920FB60F9211242F933F93A1
:101BC0008F939F93AF93BF938091270390912803A6
:101BD000A0912903B0912A033091690223E0230FD9
:101BE0002D3758F50196A11DB11D209369028093F0
:101BF000270390932803A0932903B0932A0380918D
:101C00006A0290916B02A0916C02B0916D020196F4
:101C1000A11DB11D80936A0290936B02A0936C0288
:101C2000B0936D02BF91AF919F918F913F912F9192
:101C30000F900FBE0F901F90189526E8230F029665
:101C4000A11DB11DD2CF1F920F920FB60F9211247A
:101C50002F933F934F935F936F937F938F939F93B4
:101C6000AF93BF93EF93FF9387E393E00E942C051C
:101C7000FF91EF91BF91AF919F918F917F916F9164
:101C80005F914F913F912F910F900FBE0F901F903A
:101C900018951F920F920FB60F9211242F938F93C6
:101CA0009F93EF93FF93E0914703F0914803808166
:101CB000E0914D03F0914E0382FD1BC09081809115
:101CC00050038F5F8F7320915103821741F0E09191
:101CD0005003F0E0E95CFC4F958F80935003FF9137
:101CE000EF919F918F912F910F900FBE0F901F90AA
:101CF00018958081F4CFEF92FF920F931F93CF93AB
:101D0000DF93EBE2F3E01382128288EE93E0A0E02F
:101D1000B0E084839583A683B78328E231E03183E2
:101D20002083E7E3F3E01382128284839583A68302
:101D3000B7838AE391E09183808385EC90E0958777
:101D4000848784EC90E09787868780EC90E0918B85
:101D5000808B81EC90E0938B828B82EC90E0958B72
:101D6000848B86EC90E0978B868B118E128E138E6F
:101D7000148EE4EDF3E0138212828CE491E09183FF
:101D80008083118687E2848380E1828782E0838773
:101D90001486C1EED3E01A8219821C821B821E8235
:101DA0001D8282E38F838FE1888785E289878CE0BB
:101DB000F82EFA861C861B861D861E861F86188AAC
:101DC000198A03EF13E0F80110828EE18B8B1D8AD4
:101DD0001C8A88E08E8B89E08F8B8AE0888F60E098
:101DE00088E00E94FC0360E08F890E94FC0362E0AF
:101DF000888D0E94FC038B859C8590619C878B87D6
:101E00008E890E94BB05E82E8F890E94BB05880F32
:101E10008E29982F9F70F8018081807F892B808385
:101E2000EAEFF3E0F0828DE081838BE0828314821D
:101E30001382DF91CF911F910F91FF90EF90089542
:101E4000CF93DF93CDB7DEB764970FB6F894DEBFBC
:101E50000FBECDBF789484B5826084BD84B58160A7
:101E600084BD85B5826085BD85B5816085BD809165
:101E70006E00816080936E001092810080918100DD
:101E800082608093810080918100816080938100D5
:101E9000809180008160809380008091B100846097
:101EA0008093B1008091B00081608093B0008091F8
:101EB0007A00846080937A0080917A0082608093B7
:101EC0007A0080917A00816080937A0080917A0014
:101ED000806880937A001092C100E0914703F091EE
:101EE000480382E08083E0914303F0914403108231
:101EF000E0914503F09146038FEC808310924F03ED
:101F0000E0914B03F0914C0386E08083E09149031C
:101F1000F0914A03808180618083E0914903F091D0
:101F20004A03808188608083E0914903F0914A03ED
:101F3000808180688083E0914903F0914A03808129
:101F40008F7D80831092B0021092AF021092B20285
:101F50001092B1020E94BD038EED92E09093DA02DE
:101F60008093D9028FED92E09093DE028093DD02A0
:101F70001092D9038091DF03823018F098E090939B
:101F8000D9038093DC0362E370E080E090E00E947C
:101F90006E046091E00384ED93E00E94D80568EE42
:101FA00073E080E090E00E946E0460E384ED93E0D3
:101FB0000E949C070BE416E4C8010197F1F760E367
:101FC00084ED93E00E949C07C8010197F1F760E35C
:101FD00084ED93E00E949C0783E592E00197F1F77E
:101FE00060E284ED93E00E949C076091D9036062F7
:101FF00040E084ED93E00E94B50784E08093DA032B
:1020000040E06CE084ED93E00E94B5070E94FF077A
:1020100082E08093DB0340E066E084ED93E00E9481
:10202000B50740E062E084ED93E00E94B5078BE3E2
:102030009FE10197F1F761E08091FA030E94FC03B0
:1020400061E08091FB030E94FC036091FD0380919D
:10205000FC030E94FC0360E08091FA030E948F035E
:1020600060E08091FB030E948F0361E08FE00E949B
:10207000FC0361E08EE00E94FC038091EC039091F0
:10208000ED0390619093ED038093EC038FE18093D7
:10209000E90382E38093E80385E28093EA0386E024
:1020A0008093EB038091F203887F8093F2038EE1AB
:1020B0008093F4031092EE031092EF031092F0035A
:1020C0001092F103AE014F5F5F4F7A0101E010E023
:1020D000942E8F2CC8010E944612D7018D937D014A
:1020E0000F5F1F4F07301105A9F729813A818091B1
:1020F000080190910901281739070CF01CC188EAE2
:1021000091E00E94800889EB91E00E94800838E00D
:10211000E32E31E0F32E01E010E0F701D1907F01D2
:10212000C8010E944612D81621F06D2DC8010E94E8
:102130004E120F5F1F4F0730110579F7CC24C3945F
:1021400020E0E22E20E0F22EDD24D3948091F903EA
:102150009091F20397FFFDC00E94BB05682F8FEF9F
:102160000E948C00A090EC03B090ED03F0E5AF224C
:10217000F1E0BF221091670280916502882309F483
:10218000F8C040E1A416B10429F4809166028C25C0
:1021900080936602812F90E00E94C306209168021E
:1021A00030E0220F331FC901860F971FDC01ED912C
:1021B000FC91099580916602811120C00E94A802BD
:1021C000882339F080916802882319F08150809328
:1021D00068028091670290E00E94C306182F0E9457
:1021E0009A02882359F090916802E12FE150FF0B89
:1021F0009E171F061CF49F5F909368028091F20364
:1022000085FD09C08091EC039091ED03807591707C
:10221000409709F078C00E94FF0760916702CE01E5
:1022200008960E947A0A60EF71E0CE010F960E9434
:10223000020BBE01685F7F4FCE010F960E94260AF7
:102240000E946D08CE010F960E94170BCE010896D2
:102250000E94170B60916802CE0108960E947A0ACC
:102260006DE072E0CE010F960E94020BBE01685F26
:102270007F4FCE010F960E94260A0E946D08CE0164
:102280000F960E94170BCE0108960E94170B6091C3
:10229000660270E0CE0108960E94B30A69E272E01D
:1022A000CE010F960E94020BBE01685F7F4FCE01E8
:1022B0000F960E94260A0E946D08CE010F960E947A
:1022C000170BCE0108960E94170B6091650270E013
:1022D000CE0108960E94B30A66E472E0CE010F9622
:1022E0000E94020BBE01685F7F4FCE010F960E94D5
:1022F000260A0E946D08CE010F960E94170BCE0190
:1023000008960E94170BCE0108960E94370787E0B7
:10231000FE013896A92DB82D01900D928A95E1F70E
:102320008C819DEE980F933008F04DC0D0920A0139
:10233000D0920B015BC082ED91E00E94800886E0A4
:10234000E92DF82DA8E0B1E001900D928A95E1F712
:10235000F5CE0E94BB05082F8091F7030E94BB05B4
:10236000182F8091F8030E94BB05880F602F812BE6
:10237000F7CE0E94A802882329F0112319F01150EA
:10238000109367020E949A02882331F080916702BD
:10239000811102C0D09267020091670210E0C8016B
:1023A0000E94C306F0E1AF16B10419F48111D09276
:1023B0006502000F111FF801E05EFE4F0190F081F1
:1023C000E02D09951BCF9FEF980F933058F099EFB0
:1023D000980F943038F092EF980F943018F08551A0
:1023E0008330E0F4D0920A0110920B0160910A014F
:1023F0006C258FE00E948F0360910B016C258EE0AD
:102400000E948F03E114F10409F4A0CE0E94180584
:10241000882309F49BCE0E94000098CE10920A01F6
:1024200087CFBB274A3031F4992322F4BDE290953F
:1024300081959F4F0C941D12BB27FB015527AA279E
:10244000880F991FAA1FA41710F0A41B8395505141
:10245000B9F7A05DAA3308F0A95DA193009779F7B9
:10246000B111B1931192CB010C943612DC01FC0135
:10247000672F71917723E1F7329704C07C916D93B8
:1024800070836291AE17BF07C8F30895F999FECF24
:1024900092BD81BDF89A992780B50895262FF999A4
:1024A000FECF1FBA92BD81BD20BD0FB6F894FA9A37
:1024B000F99A0FBE019608952F923F924F925F9224
:1024C0006F927F928F929F92AF92BF92CF92DF9244
:1024D000EF92FF920F931F93CF93DF93CDB7DEB7A9
:1024E000CA1BDB0B0FB6F894DEBF0FBECDBF09943D
:1024F0002A88398848885F846E847D848C849B8494
:10250000AA84B984C884DF80EE80FD800C811B81A1
:10251000AA81B981CE0FD11D0FB6F894DEBF0FBED0
:10252000CDBFED010895991B79E004C0991F96175E
:1025300008F0961B881F7A95C9F780950895A1E247
:102540001A2EAA1BBB1BFD010DC0AA1FBB1FEE1F2D
:10255000FF1FA217B307E407F50720F0A21BB30B78
:10256000E40BF50B661F771F881F991F1A9469F7F4
:1025700060957095809590959B01AC01BD01CF0150
:102580000895EE0FFF1F0590F491E02D09940F932D
:102590001F93CF93DF938230910510F482E090E097
:1025A000E0910104F091020430E020E0B0E0A0E00E
:1025B000309799F42115310509F44AC0281B390BCD
:1025C00024303105D8F58A819B816115710589F127
:1025D000FB0193838283FE0111C0408151810281FE
:1025E000138148175907E0F04817590799F41097D5
:1025F00061F012960C93129713961C933296CF01AA
:10260000DF91CF911F910F910895009301041093D2
:102610000204F4CF2115310551F04217530738F069
:10262000A901DB019A01BD01DF01F801C1CFEF0172
:10263000F9CF9093020480930104CDCFFE01E20F05
:10264000F31F819391932250310939832883D7CF87
:102650002091FF0330910004232B41F420911001BD
:1026600030911101309300042093FF0320910E015B
:1026700030910F012115310541F42DB73EB740913E
:10268000120150911301241B350BE091FF03F091CF
:102690000004E217F307A0F42E1B3F0B281739079D
:1026A00078F0AC014E5F5F4F2417350748F04E0FAE
:1026B0005F1F509300044093FF03819391939FCF3A
:1026C000F0E0E0E09CCFCF93DF930097E9F0FC01CE
:1026D000329713821282A0910104B0910204ED019D
:1026E00030E020E01097A1F420813181820F931F08
:1026F0002091FF03309100042817390709F061C0C9
:10270000F0930004E093FF03DF91CF910895EA0175
:10271000CE17DF07E8F54A815B819E01411551051F
:10272000B1F7E901FB83EA8349915991C40FD51FA1
:10273000EC17FD0761F4808191810296840F951F4B
:10274000E90199838883828193819B838A83F0E066
:10275000E0E012968D919C9113970097B9F52D9119
:102760003C911197CD010296820F931F2091FF0398
:10277000309100042817390739F6309751F5109237
:10278000020410920104B0930004A093FF03BCCF95
:10279000D383C28340815181840F951FC817D90705
:1027A00061F44E5F5F4F88819981480F591F5183B3
:1027B00040838A819B81938382832115310509F0AF
:1027C000B0CFF0930204E09301049ECFFD01DC0141
:1027D000C0CF13821282D7CFB0E0A0E0E2EFF3E1E6
:1027E0000C945E128C01009751F4CB010E94C71229
:1027F0008C01C801CDB7DEB7E0E10C947A12FC0180
:10280000E60FF71F9C0122503109E217F30708F485
:102810009DC0D901CD91DC911197C617D70798F0CB
:10282000C530D10530F3CE0104978617970708F31A
:10283000C61BD70B2297C193D1936D937C93CF0185
:102840000E946313D6CF5B01AC1ABD0A4C018C0EFB
:102850009D1EA0910104B0910204512C412CF12C39
:10286000E12C109731F58091FF03909100048815B9
:10287000990509F05CC04616570608F058C08091CB
:102880000E0190910F01009741F48DB79EB74091D2
:10289000120150911301841B950BE817F90708F0FA
:1028A00055C0F0930004E093FF03F9017183608346
:1028B000A0CF8D919C91119712966C9012971396C0
:1028C0007C901397A815B90559F56C0142E0C40E28
:1028D000D11CCA14DB0420F1AC014A195B09DA01EE
:1028E0001296159780F06282738251834083D901DA
:1028F0006D937C93E114F10471F0D7011396FC936E
:10290000EE93129776CF22968C0F9D1FF90191833B
:102910008083F301EFCFF0930204E093010469CFC9
:102920004816590608F42C017D01D3019ACFCB013A
:102930000E94C7127C01009749F0AE01B8010E94C5
:10294000A914C8010E946313870153CF10E000E06F
:1029500050CFFB01DC0102C001900D92415050406C
:10296000D8F70895FB01DC0101900D920020E1F7FA
:062970000895F894FFCF6A
:1029760055092409AE089308030000000101000070
:10298600030480000001040000004000140054000D
:102996001F0B86090000000037030A03C006E00289
:1029A6000303F002E102000000004E05AE04DB0462
:1029B6009B050C05EA04FE04000000001208AE04A4
:1029C600C006BF060D0A005361766520616E64205D
:1029D60045786974004D696E757465207365747405
:1029E600696E6700486F75722073657474696E67E7
:1029F6000054696D652053657474696E6773004F82
:102A06004E004F4646003000202020202000524C29
:102A1600313A00524C323A0053657474696E6773EA
:102A260020757064617465640053657474696E67BB
:102A36007320736176656420746F20454550524F4C
:102A46004D0053657474696E6773207265636569BA
:102A56007665642066726F6D20454550524F4D0075
:102A66006D656E7553657474696E67732E6D6169F5
:102A76006E4D656E75496E6465783A20006D656EBB
:102A86007553657474696E67732E7375624D656EE2
:102A960075496E6465783A20006D656E7553657488
:102AA60074696E67732E69735375624D656E7545ED
:102AB6006469743A20006D656E7553657474696E49
:102AC60067732E69735375624D656E753A20000003
:00000001FF
