:100000000C9463000C948B000C948B000C948B006C
:100010000C948B000C948B000C948B000C948B0034
:100020000C948B000C948B000C948B000C948B0024
:100030000C948B000C948B000C948B000C948B0014
:100040000C946C0F0C948B000C94DC0F0C94B60F7A
:100050000C948B000C948B000C948B000C948B00F4
:100060000C944D0E0C948B0000000000240027001F
:100070002A0000000000250028002B0000000000DE
:1000800023002600290004040404040404040202DA
:100090000202020203030303030301020408102007
:1000A0004080010204081020010204081020000012
:1000B0000008000201000003040700000000000027
:1000C00000000E104B1411241FBECFEFD8E0DEBF8E
:1000D000CDBF24E0AAEBB2E001C01D92AD37B2075C
:1000E000E1F712E0A0E0B1E0E8E1FFE202C0059034
:1000F0000D92AA3BB107D9F710E0C2E6D0E004C0E8
:100100002197FE010E948215C136D107C9F70E94CE
:10011000D3100C947F170C94000080916C048073B2
:10012000803339F4809167048095881F8827881F61
:10013000089580E0089580916C0484FD09C085FFD6
:1001400007C0809167048095881F8827881F0895BD
:1001500080E0089520914103260F3327331F213279
:100160003105ECF420916703FC0190E080E024303D
:1001700069F082E00895A09141032191AC01415EB4
:100180005C4FA40FB52FB11D2C930196861798F3E1
:1001900080914103680F6093410380E0089581E0FE
:1001A0000895089508950895E09116038091150328
:1001B000E81730F4F0E0EB50FD4F808190E00895B7
:1001C0008FEF9FEF089590911603809115032FEF05
:1001D0003FEF981748F4E92FF0E0EB50FD4F2081F6
:1001E00030E09F5F90931603C90108958091150335
:1001F00090911603891B990B0895CF92DF92EF928D
:10020000FF920F931F93CF93DF937C01CB018A0161
:100210002091F402222389F0EB016B01C40ED51E5C
:10022000CC15DD0569F06991D701ED91FC91019044
:10023000F081E02DC7010995F3CF642F0E94AA0039
:10024000C801DF91CF911F910F91FF90EF90DF9048
:10025000CF900895CF93DF931F92CDB7DEB7698318
:100260002091F4022223F9F020911703203258F054
:1002700021E030E0FC013383228390E080E00F90A6
:10028000DF91CF91089580911803E82FF0E0EC52B0
:10029000FD4F998190838F5F80931803809317039C
:1002A00081E090E0ECCF61E0CE0101960E94AA00CF
:1002B000F7CF833081F028F4813099F08230A9F0B3
:1002C00008958730A9F08830C9F08430B1F4809166
:1002D00080008F7D03C0809180008F7780938000A5
:1002E000089584B58F7784BD089584B58F7DFBCF45
:1002F0008091B0008F778093B00008958091B00016
:100300008F7DF9CF1F93CF93DF93282F30E0F90132
:10031000E255FF4F8491F901E656FF4FD491F90160
:10032000EA57FF4FC491CC23A9F0162F81110E94E8
:100330005901EC2FF0E0EE0FFF1FEE58FF4FA59193
:10034000B4918FB7F894EC91111108C0D095DE23C9
:10035000DC938FBFDF91CF911F910895DE2BF8CFF3
:100360001092670381E0809369031092680361E053
:1003700082E10E94820161E083E10E948201E9EB57
:10038000F0E080818E7F808380818D7F808388E410
:100390008093B80085E48093BC000895CF93DF93E9
:1003A00091E090931E038823B9F0C091B800D091DA
:1003B000BA008091BC008A7B8093BC0060E082E13F
:1003C0000E94820160E083E10E9482010E94B001EC
:1003D000D093BA00C093B800DF91CF910895CF9326
:1003E000DF9390E0FC01E656FF4F24918A579F4F20
:1003F000FC0184918823C9F090E0880F991FFC01CB
:10040000E859FF4FA591B491FC01EE58FF4FC591FB
:10041000D49161110DC09FB7F8948C9120958223DF
:100420008C938881282328839FBFDF91CF910895E3
:10043000623051F49FB7F8943C91822F80958323CA
:100440008C93E8812E2BEFCF8FB7F894EC912E2B65
:100450002C938FBFEACF209177043091780428172E
:10046000390749F09093780480937704682F80913E
:1004700076040C94EF0108953FB7F8948091D00270
:100480009091D102A091D202B091D30226B5A89B3F
:1004900005C02F3F19F00196A11DB11D3FBFBA2F16
:1004A000A92F982F8827BC01CD01620F711D811DD6
:1004B000911D42E0660F771F881F991F4A95D1F75B
:1004C00008958F929F92AF92BF92CF92DF92EF9258
:1004D000FF924B015C010E943C026B017C010E9477
:1004E0003C026C197D098E099F09683E73408105A5
:1004F0009105A8F321E0821A9108A108B10888EEBD
:10050000C80E83E0D81EE11CF11C81149104A104E3
:10051000B10429F7FF90EF90DF90CF90BF90AF909C
:100520009F908F9008952FB7F8946091CC027091AE
:10053000CD028091CE029091CF022FBF08950F93EC
:100540001F93CF93DF93C82F809166049091670427
:1005500080FD10925B049C012F713327232B29F01F
:10056000807E909367048093660480916C0485FF7D
:1005700003C08F7D80936C04809166049091670422
:1005800094FBDD27D0F9D62796FF06C09F7B90937A
:10059000670480936604D1E08091660490916704BB
:1005A00091FD08C0DD2309F440C092609093670478
:1005B000809366040E94930220915C0430915D0454
:1005C000FB01E21BF30B2091660430916704DD23ED
:1005D00009F485C025FD64C04091620432FD08C065
:1005E000442331F0346030936704209366040FC0D5
:1005F0004E171F0619F010F041110DC02262309302
:1006000067042093660470935F0460935E047093A4
:100610005D0460935C0480916604909167048F711F
:100620009927D1E0892B09F4D0E080916F04909153
:100630007004009709F4C2C020916C0481FFBAC015
:10064000206120936C0420916C0482FFB5C0286067
:1006500020936C0453E0969587955A95E1F7909313
:10066000700480936F04809166049091670485FF05
:100670005EC19068909367048093660480916604DD
:100680009091670493FD05C09860909367048093F0
:10069000660480916C04806280936C0461E091C078
:1006A00037FDB9CF26FD0CC040916404A0E14A9FFC
:1006B000A0011124E417F50708F4ADCF246493CF0B
:1006C0004091650427FF40916404A0E14A9FA00186
:1006D00011242868E417F50708F085CF9CCF25FF83
:1006E00019C0809162048E171F0611F008F041C0F6
:1006F00026FD05C080915B048F5F80935B0437FD0E
:1007000010925B042F7D2061316030936704209349
:1007100066042FC030FF15C037FD05C0206130933F
:1007200067042093660420916604309167043E7745
:10073000309367042093660470935D0460935C04B7
:1007400018C040915B04442339F1C901807C99278A
:10075000892BD9F48091630440E1849FC001112466
:10076000E817F90790F480915E0490915F04892B5B
:1007700071F4809166049091670492FF4CCF9B7F47
:10078000909367048093660446CF2160BECF109299
:100790005F0410925E04EDCF31FFEBCF2F733D7FEE
:1007A0003860309367042093660410925F041092BF
:1007B0005E04C2CF2F7E45CF277F4ACFC7FF10C030
:1007C00060E0D62BE0916004F0916104309711F065
:1007D000D11109958D2FDF91CF911F910F91089520
:1007E00080916D04282F2295207F259525952595AC
:1007F0002595022E000C330B4C2F0C2E000C550BA4
:1008000024173507E9F2220F331F220F331F242B41
:10081000352B220F331F41E656E164E979E404C029
:1008200075956795579547952A95D2F743708595A5
:100830008595859585958150480F4295407F4595D2
:10084000459545954595842F8295807F9C2F9F7077
:10085000892B80936D04807F09F4B2CF80916C0462
:10086000982F9370913009F453C008F44DC0923022
:1008700009F452C091E014160CF090E082FB22279C
:1008800020F9921709F44DC091E020916D042F706A
:1008900020936D04092F092E000C110B220B330B32
:1008A000409168045091690460916A0470916B04EE
:1008B000400F511F621F731F4093680450936904D7
:1008C00060936A0470936B04913069F58061809342
:1008D0006C040E94930220915C0430915D04AB0192
:1008E000421B530B9A0140916E0450916C0470931B
:1008F0005D0460935C04852F42171306B1F0A8F0E5
:10090000886080936C04AFCEC33009F059CFB2CF6A
:10091000CC2309F4AFCF54CFC150C23008F0AACFD6
:100920004FCF9FEFB2CF8F7ED2CF877FEACF10928B
:100930005B04A4CEAF92BF92CF92DF92EF92FF9270
:100940000F931F93CF93DF936C017B018B01040FF7
:10095000151FEB015E01AE18BF08C017D10759F093
:100960006991D601ED91FC910190F081E02DC601D5
:100970000995892B79F7C501DF91CF911F910F91CF
:10098000FF90EF90DF90CF90BF90AF900895FC0163
:10099000538D448D252F30E0842F90E0821B930BE4
:1009A000541710F0CF96089501970895FC01918D8A
:1009B000828D981761F0A28DAE0FBF2FB11D5D968D
:1009C0008C91928D9F5F9F73928F90E008958FEF2F
:1009D0009FEF0895FC01918D828D981731F0828DE3
:1009E000E80FF11D858D90E008958FEF9FEF08953A
:1009F000FC01918D228D892F90E0805C9F4F821B9E
:100A000091098F739927089589E993E00E94F8046A
:100A100021E0892B09F420E0822F089580E090E006
:100A2000892B29F00E94040581110C94000008957F
:100A3000FC01A48DA80FB92FB11DA35ABF4F2C9153
:100A4000848D90E001968F739927848FA689B7894A
:100A50002C93A089B1898C91837080648C93938D41
:100A6000848D981306C00288F389E02D80818F7DE4
:100A700080830895EF92FF920F931F93CF93DF939C
:100A8000EC0181E0888F9B8D8C8D98131AC0E889CA
:100A9000F989808185FF15C09FB7F894EE89FF8999
:100AA0006083E889F98980818370806480839FBF37
:100AB00081E090E0DF91CF911F910F91FF90EF9037
:100AC0000895F62E0B8D10E00F5F1F4F0F73112747
:100AD000E02E8C8D8E110CC00FB607FCFACFE88982
:100AE000F989808185FFF5CFCE010E941805F1CFED
:100AF000EB8DEC0FFD2FF11DE35AFF4FF0829FB7F6
:100B0000F8940B8FEA89FB8980818062CFCFCF93E5
:100B1000DF93EC01888D8823B9F0AA89BB89E88925
:100B2000F9898C9185FD03C0808186FD0DC00FB6CB
:100B300007FCF7CF8C9185FFF2CF808185FFEDCF49
:100B4000CE010E941805E9CFDF91CF91089588303A
:100B500058F429B130E0A90102C0559547958A950E
:100B6000E2F7CA01817008958E3028F423B130E095
:100B70008850990BF0CF843128F426B130E08E50A4
:100B8000990BE9CF80E00895CF92DF92EF92FF9228
:100B90000F931F93CF93DF93FC01C48121E0209337
:100BA000F402C093BE0210921803109217038485BA
:100BB000682B8DE893E00E942A01D0911703D1326F
:100BC00008F092C00E943C026B017C018091670397
:100BD000811165C082E08093670381E0809369039F
:100BE0008FEF8093660310928B03D0938A03A4ED5A
:100BF000B2E0EAE6F3E080E0D81385C010928C03FF
:100C000080918C03CC0FC82BC0938C038091680318
:100C1000813009F07CC0109268030E943C026B0195
:100C20007C0180918C038093BB0080911A0390918A
:100C30001B03A0911C03B0911D03892B8A2B8B2BC6
:100C400099F00E943C0200911A0310911B0320911D
:100C50001C0330911D036C197D098E099F0906172D
:100C6000170728073907E0F18091BC0083FDD9CF31
:100C700085EC8093BC000E943C026B017C0180915A
:100C80006703823009F445C0809166038F3F61F1AC
:100C900080916603803241F18091660325C0809186
:100CA0001A0390911B03A0911C03B0911D03892B83
:100CB0008A2B8B2B09F48ACF0E943C0200911A03E5
:100CC00010911B0320911C0330911D036C197D09A9
:100CD0008E099F09061717072807390708F076CFEE
:100CE000809119030E94CE011092180310921703ED
:100CF0001092F402DF91CF911F910F91FF90EF902E
:100D0000DF90CF9008959D9191938F5F75CF85EE81
:100D1000B0CF80911A0390911B03A0911C03B09156
:100D20001D03892B8A2B8B2B09F4A9CF0E943C022F
:100D300000911A0310911B0320911C0330911D0395
:100D40006C197D098E099F090617170728073907AF
:100D500008F095CFC5CF089590E080E00895E3ECCA
:100D6000F2E011821082128213820895009721F41A
:100D700060E070E0CB0108958130910549F4609105
:100D800025017091260180912701909128010895F5
:100D9000029771F76091290170912A0180912B01CE
:100DA00090912C010895DF92EF92FF920F931F9381
:100DB000CF93DF93D0E0C0E0E12C01E010E0209180
:100DC000760430E0F901E255FF4F8491F901E656CF
:100DD000FF4FF490F901EA57FF4FD490DD20A9F0BE
:100DE00081110E945901ED2DF0E0EE0FFF1FE45834
:100DF000FF4FA591B491EC91FE2239F0C8010C2E61
:100E000001C0880F0A94EAF7E82A61E0809175042E
:100E10000E94820160E0809175040E948201219607
:100E2000C830D10509F0CBCF8E2DDF91CF911F9126
:100E30000F91FF90EF90DF900895CF93DF93D82F1D
:100E4000C8E06D2F6170809176040E94820161E09C
:100E5000809175040E94820160E0809175040E9477
:100E60008201D695C15069F7DF91CF9108959F9285
:100E7000AF92BF92CF92DF92EF92FF920F931F93A8
:100E8000CF93DF9300D000D000D01F92CDB7DEB754
:100E900081E090E00E942B0284E7C82E84E0D82EE7
:100EA00061E0F60180810E9482018FEB0E941D07A4
:100EB00090E080E00E942B020E94D306982F92952A
:100EC00097702AE0E22E8F70182F9E9D100D11242E
:100ED0000E94D306982F929597708F70082F9E9D31
:100EE000000D11240E94D306982F929593708F7055
:100EF000A82E9E9DA00C11240E94D306982F929597
:100F000093708F70B82E9E9DB00C11240E94D30652
:100F100084FB992790F98F70F82E9E9DF00C112478
:100F20000E94D306982E0E94D306982F9295977010
:100F30008F709E9D800D1124E82E60E0F601808167
:100F40000E94820197014B2D5A2DB801892D87707F
:100F500090E027960FB6F894DEBF0FBECDBFDF91AD
:100F6000CF911F910F91FF90EF90DF90CF90BF90A6
:100F7000AF909F9008950F931F93CF938C01C62F2E
:100F80000E94C4056C2F6460C8010E94C4056C2FC8
:100F90006B7FC8010E94C40583EC90E00197F1F7D4
:100FA000CF911F910F9108950F931F93CF93DF93CC
:100FB0008C01D62FC42F607F642B0E94BB0780E179
:100FC000D89FB00111246C2BC801DF91CF911F91E4
:100FD0000F910C94BB07CF93DF93CDB7DEB7289763
:100FE0000FB6F894DEBF0FBECDBF98E0EDE2F1E0A2
:100FF000DE01119601900D929A95E1F790915604B9
:10100000961708F46FEF262F30E0220F331F41E0D0
:1010100050E04C0F5D1F240F351FF9016081680FF0
:10102000606840E08EE494E028960FB6F894DEBF46
:101030000FBECDBFDF91CF910C94D40740E061E0AB
:101040008EE494E00E94D4078BE39FE10197F1F7CF
:1010500080915704882321F060E080E00C94EB0736
:10106000089541E00E94D40781E090E00895FB01DB
:1010700001900020E9F73197AF01461B570BDC01C7
:10108000ED91FC910280F381E02D09948F929F9263
:10109000AF92BF920F931F93CF93DF93CDB7DEB77D
:1010A000A1970FB6F894DEBF0FBECDBF19A2423094
:1010B00008F44AE08E010F5D1F4F842E912CB12C55
:1010C000A12CA50194010E946015E62FB901CA0167
:1010D000EA3004F5E05DD801EE938D01232B242B3B
:1010E000252B79F790E080E0109729F0BD018EE480
:1010F00094E00E943708A1960FB6F894DEBF0FBEA9
:10110000CDBFDF91CF911F910F91BF90AF909F9076
:101110008F900895E95CDFCFCF93DF93BC0189E91D
:1011200093E00E943708EC016DE671E089E993E0F5
:101130000E9437088C0F9D1FDF91CF910895CF93A8
:10114000DF93FC01448155816081718189E993E0DD
:101150000E949A04EC016DE671E089E993E00E9437
:1011600037088C0F9D1FDF91CF910895BC018EE44D
:1011700094E00C94370860E081E00E94EB0789E777
:1011800091E00E94B6088091660490916704807592
:101190009170409711F40C94AF060895CF93DF93AC
:1011A00060E081E00E94EB0780E791E00E94B608D2
:1011B000809166049091670480759170409709F062
:1011C0005AC0C0911401D091130181E090E00E94B7
:1011D0002B0261E0809174040E9482018EE80E94DB
:1011E0001D0780E00E941D0760E0809174040E944A
:1011F000820181E090E00E942B0261E08091740402
:101200000E9482018EEB0E941D0780E00E941D0754
:101210008C2F6CE30E945415892FCAE06C2F0E941A
:1012200054158295807F890F0E941D078D2F68E1DC
:101230000E945415892F6C2F0E9454158295807F2F
:10124000890F0E941D0785E10E941D0789E00E9409
:101250001D0787E00E941D0783E20E941D0780E8AA
:101260000E941D0760E0809174040E948201DF915A
:10127000CF910C94AF06DF91CF91089560E081E0AB
:101280000E94EB078EE791E00E94B60861E081E0E2
:101290000E94EB076091140170E090E080E04AE06A
:1012A0000E9446088091C4028823B1F00E949B00EE
:1012B000882339F080911401882319F0815080939C
:1012C00014010E948D00882339F0809114018C3321
:1012D00018F48F5F80931401089560E081E00E940C
:1012E000EB078DE891E00E94B60861E081E00E9482
:1012F000EB076091130170E090E080E04AE00E940B
:1013000046088091C4028823B1F00E949B00882384
:1013100039F080911301882319F0815080931301D3
:101320000E948D00882339F080911301883118F4D0
:101330008F5F809313010895CF92DF92EF92FF9217
:1013400060E080E00E94EB078AE991E00E94B60825
:1013500061E081E00E94EB076091190170911A0130
:1013600080911B0190911C0120E63AEE40E050E094
:101370000E94601569017A014AE0C701B6010E9426
:1013800046088091C4028823C1F10E949B008823F3
:10139000C1F0C114D104E104F10499F081E0C81A4C
:1013A000D108E108F108A0E6BAEEA70196010E9473
:1013B00003156093190170931A0180931B01909398
:1013C0001C010E948D008823C1F088ECC816D1044E
:1013D000E104F10490F4A70196012F5F3F4F4F4FB6
:1013E0005F4FA0E6BAEE0E94031560931901709357
:1013F0001A0180931B0190931C01FF90EF90DF90E6
:10140000CF900895CF92DF92EF92FF9260E080E05C
:101410000E94EB078CEA91E00E94B60861E081E04F
:101420000E94EB07609115017091160180911701E0
:101430009091180120E63AEE40E050E00E946015DD
:1014400069017A014AE0C701B6010E94460880910D
:10145000C4028823C1F10E949B008823C1F0C114FB
:10146000D104E104F10499F081E0C81AD108E1083F
:10147000F108A0E6BAEEA70196010E940315609359
:1014800015017093160180931701909318010E9423
:101490008D008823C1F088ECC816D104E104F10462
:1014A00090F4A70196012F5F3F4F4F4F5F4FA0E68B
:1014B000BAEE0E9403156093150170931601809394
:1014C000170190931801FF90EF90DF90CF9008954F
:1014D00060E081E00E94EB078DEB91E00C94B60890
:1014E00060E081E00E94EB078EEC91E00C94B6087E
:1014F00060E081E00E94EB078FED91E00C94B6086C
:1015000085ED8093BC0080911A0390911B03A091FC
:101510001C03B0911D030796A11DB11D23E0B695D4
:10152000A795979587952A95D1F72091BC0024FD22
:1015300003C010926703089540911A0350911B0352
:1015400060911C0370911D03452B462B472B69F3BB
:101550000097A105B10541F025E32A95F1F70000B8
:101560000197A109B109E1CF809119030C94CE0133
:101570000F931F93CF93DF93EC018881998100979C
:1015800059F02A813B812617370730F081E0DF913F
:10159000CF911F910F9108958B016F5F7F4F0E9434
:1015A000B216009759F0998388831B830A832C8194
:1015B0003D81232B59F7FC011082E8CF80E0E7CF73
:1015C000CF93DF93EC0188819981009711F00E94FD
:1015D0002916198218821D821C821B821A82DF91B1
:1015E000CF9108950F931F93CF93DF93EC010C815C
:1015F0001D810F5F1F4FB8010E94B80A882391F028
:10160000288139818C819D816DEE71E0820F931F5D
:101610000E9478171D830C83CE01DF91CF911F911B
:101620000F910895CE010E94E00AF6CFEF92FF924B
:101630000F931F93CF93DF93EC01FB01E080F180C8
:10164000E114F10411F10481158101151105A9F0CE
:101650008C819D81080F191FB801CE010E94B80A24
:10166000882399F0288139818C819D81B701820F6F
:10167000931F0E9478171D830C83CE01DF91CF91B9
:101680001F910F91FF90EF900895CE010E94E00A04
:10169000F4CFEF92FF920F931F93CF93DF93EC0160
:1016A0007B018A01BA010E94B80A81110BC0CE01E8
:1016B0000E94E00ACE01DF91CF911F910F91FF9020
:1016C000EF9008951D830C83B701888199810E9452
:1016D0007817F0CFEF92FF920F931F93CF93DF9382
:1016E000CDB7DEB729970FB6F894DEBF0FBECDBFDA
:1016F0008C01862FF80111821082138212821582CA
:1017000014824AE09E012F5F3F4F7901B90190E0BA
:101710000E946214F70101900020E9F73197AF01B0
:101720004E195F09B701C8010E94490B29960FB6EF
:10173000F894DEBF0FBECDBFDF91CF911F910F9107
:10174000FF90EF900895EF92FF920F931F93CF9326
:10175000DF93CDB7DEB762970FB6F894DEBF0FBE4A
:10176000CDBF8C01CB01F80111821082138212824D
:10177000158214824AE09E012F5F3F4F7901B90123
:101780000E945714F70101900020E9F73197AF014B
:101790004E195F09B701C8010E94490B62960FB646
:1017A000F894DEBF0FBECDBFDF91CF911F910F9197
:1017B000FF90EF900895CF93DF93EC01FB01861724
:1017C000970749F0608171816115710541F044818D
:1017D00055810E94490BCE01DF91CF9108950E945F
:1017E000E00AF9CFFC011182108213821282158265
:1017F00014820C94DB0BFC01118210821382128282
:10180000158214826115710551F0FB0101900020D1
:10181000E9F73197AF01461B570B0C94490B08951C
:10182000FC0180819181009711F00C942916089594
:101830007F928F929F92AF92BF92CF92DF92EF9260
:10184000FF920F931F93CF93DF93CDB7DEB7AC9783
:101850000FB6F894DEBF0FBECDBF0E949302009179
:10186000BA021091BB022091BC023091BD026B0103
:101870007C01C01AD10AE20AF30A970186010C32F0
:1018800011402105310508F441C16093BA027093FB
:10189000BB028093BC029093BD020E943707952E35
:1018A0005B0129833A834B835C836D83BE828F8384
:1018B0006FE671E0CE0187960E94FB0B8E010F5DF3
:1018C0001F4F692DC8010E946A0B7E018BE1E80E53
:1018D000F11C6A2DC7010E946A0B6E01E5E1CE0E74
:1018E000D11C6B2DC6010E946A0BF9E0F91508F4B2
:1018F000FEC065EF71E0CE0109960E94FB0BB801B6
:10190000CE0109960E94160B782E892E9924939465
:10191000BE01695D7F4FCE010F960E94F20B672DCD
:10192000782DCE010F960E94160B0E94F20ABC0180
:10193000CE0187960E94DB0BCE010F960E94100C01
:10194000992021F0CE0109960E94100C49E04A1519
:1019500008F4D1C065EF71E0CE0109960E94FB0B3F
:10196000B701CE0109960E94160B4C01AA24A3943C
:10197000BE01695D7F4FCE010F960E94F20BB4014C
:10198000CE010F960E94160B0E94F20ABC01CE01F6
:1019900087960E94DB0BCE010F960E94100CAA20A6
:1019A00021F0CE0109960E94100C89E08B1508F4F5
:1019B000A5C065EF71E0CE0109960E94FB0BB60150
:1019C000CE0109960E94160B982EA92EBB24B39423
:1019D000BE01695D7F4FCE010F960E94F20B692D0B
:1019E0007A2DCE010F960E94160BBC01CE01879670
:1019F0000E94DB0BCE010F960E94100CBB2021F041
:101A0000CE0109960E94100CC6010E94100CC7015D
:101A10000E94100CC8010E94100C60E080E00E943F
:101A2000EB074BA55CA56FA178A58EE494E00E941E
:101A30009A0487EF91E00E94B60861E080E00E947E
:101A4000EB07F12CE12C809112018E151F0409F097
:101A50000CF458C000911D0110911E01C70123E034
:101A6000880F991F2A95E1F7080F191FB801CE01B9
:101A700001960E94F20BF80186818F838781888707
:101A800062EF71E0882311F06FEE71E0CE010F96E6
:101A90000E94FB0BBE016F5F7F4FCE0109960E9433
:101AA000F20BCE0109960E94F20ABE01615F7F4FE0
:101AB0000E94160BFC0144815581608171818EE486
:101AC00094E00E949A04CE0109960E94100C8AEFBD
:101AD00091E00E94B608CE010F960E94100CCE0134
:101AE00001960E94100CFFEFEF1AFF0AACCF912C69
:101AF000702E812E0DCFA12C47013ACFB12C9C2CFA
:101B0000AD2C66CFCE0187960E94100CAC960FB616
:101B1000F894DEBF0FBECDBFDF91CF911F910F9123
:101B2000FF90EF90DF90CF90BF90AF909F908F90FD
:101B30007F900895FF920F931F93CF93DF938DEFC4
:101B400091E00E948C0800E111E0C1E0D0E0F801D2
:101B5000F1908F01CE010E94ED14F81621F06F2D47
:101B6000CE010E94F5142196C031D10581F7DF9195
:101B7000CF911F910F91FF900895CF92DF92EF9236
:101B8000FF920F931F93CF93DF93CDB7DEB72F97BD
:101B90000FB6F894DEBF0FBECDBFCE0101967C011B
:101BA00001E010E06C01C8010E94ED14F70181937F
:101BB0007F010F5F1F4F00311105A9F709811A81BD
:101BC000B801012E000C880B990B0E948E149B010A
:101BD000AC010E948815811107C08091100190917D
:101BE000110108171907A4F486E192E00E948C08FD
:101BF0002F960FB6F894DEBF0FBECDBFDF91CF9109
:101C00001F910F91FF90EF90DF90CF900C949A0D61
:101C100087E292E00E948C088FE0F601A0E1B1E03B
:101C200001900D928A95E1F72F960FB6F894DEBFDA
:101C30000FBECDBFDF91CF911F910F91FF90EF901D
:101C4000DF90CF90089560E081E00E94EB0789E784
:101C500091E00E94B60880916604909167048075B7
:101C60009170409721F40E94BD0D0C94AF06089529
:101C700060E081E00E94EB0780E791E00E94B608F7
:101C8000809166049091670480759170409721F46B
:101C90000E949A0D0C94AF0608951F920F920FB6F2
:101CA0000F9211242F933F934F935F936F937F93E2
:101CB0008F939F93AF93BF93EF93FF938091B9005E
:101CC000887F803609F44AC0F0F5883209F4A7C04D
:101CD00018F5803109F49BC0B8F4882309F4F9C0E1
:101CE000883009F494C0FF91EF91BF91AF919F911B
:101CF0008F917F916F915F914F913F912F910F90B5
:101D00000FBE0F901F901895883109F488C080325B
:101D100051F78093660314C0803409F49DC040F4E9
:101D20008033B9F38833F9F68093660385ECB0C04D
:101D3000803509F485C0883509F496C0883499F651
:101D40000E94800AD0CF883909F48CC038F58837D2
:101D500029F050F4883611F0803729F683E080931B
:101D600067031092650357C0883809F47BC0803937
:101D700019F0803809F0B7CF80916503803208F000
:101D800071C0E091650381E08E0F809365038091BF
:101D9000BB00F0E0EB5BFC4F80833DC0803B39F043
:101DA000E0F4803A09F479C0883A09F09CCF84E0E5
:101DB000809367031092420310924103E0913F0326
:101DC000F091400309958091410381110FC081E09A
:101DD0008093410310921F0309C0803C09F4A6CFF1
:101DE000883C09F4A3CF883B09F07DCFE091420302
:101DF00081E08E0F80934203F0E0E15EFC4F808132
:101E00008093BB00909142038091410329C080914F
:101E10008C038093BB0085EC8093BC0064CF9091D1
:101E20008B0380918A03981758F5E0918B0381E02A
:101E30008E0F80938B03F0E0E659FC4F8081E9CF51
:101E4000E0918B0381E08E0F80938B038091BB0028
:101E5000F0E0E659FC4F808390918B0380918A03D8
:101E60009817C8F285E8D8CFE0918B0381E08E0FF8
:101E700080938B038091BB00F0E0E659FC4F808398
:101E80008091690381115CCF81E08093680384EACB
:101E90008093BC001092670326CF85EC8093BC0032
:101EA0001092670380916503803230F4E0916503FE
:101EB000F0E0EB5BFC4F10826091650370E0E09115
:101EC0004303F091440385E493E009951092650380
:101ED0000ACF1092660334CF1F920F920FB60F9263
:101EE00011242F933F938F939F93AF93BF93809130
:101EF000CC029091CD02A091CE02B091CF02309150
:101F0000CB0223E0230F2D3758F50196A11DB11DFB
:101F10002093CB028093CC029093CD02A093CE026B
:101F2000B093CF028091D0029091D102A091D202C1
:101F3000B091D3020196A11DB11D8093D002909360
:101F4000D102A093D202B093D302BF91AF919F91DF
:101F50008F913F912F910F900FBE0F901F9018956A
:101F600026E8230F0296A11DB11DD2CF1F920F921A
:101F70000FB60F9211242F933F934F935F936F935C
:101F80007F938F939F93AF93BF93EF93FF9389E9D1
:101F900093E00E941805FF91EF91BF91AF919F913F
:101FA0008F917F916F915F914F913F912F910F9002
:101FB0000FBE0F901F9018951F920F920FB60F92A1
:101FC00011242F938F939F93EF93FF93E091A90395
:101FD000F091AA038081E091AF03F091B00382FDFC
:101FE0001BC090818091B2038F5F8F732091B303E8
:101FF000821741F0E091B203F0E0E756FC4F958F75
:102000008093B203FF91EF919F918F912F910F9049
:102010000FBE0F901F9018958081F4CFEF92FF9222
:102020000F931F93CF93DF93EDE8F3E013821282B7
:1020300088EE93E0A0E0B0E084839583A683B78325
:1020400021E431E031832083E9E9F3E01382128255
:1020500084839583A683B78383E591E0918380830E
:1020600085EC90E09587848784EC90E0978786875D
:1020700080EC90E0918B808B81EC90E0938B828B55
:1020800082EC90E0958B848B86EC90E0978B868B2E
:10209000118E128E138E148E65E472E086E394E046
:1020A0000E94FB0BC6E3D4E08FE08E831F8267E4BF
:1020B00072E08EE394E00E94FB0B8EE08E871F8619
:1020C00069E472E086E494E00E94FB0B87E08E8B6B
:1020D0001F8A83E080931201EEE4F4E013821282FF
:1020E00085E691E091838083118687E2848380E195
:1020F000828782E083871486CBE5D4E01A82198236
:102100001C821B821E821D8282E38F838FE188875F
:1021100085E289878CE0F82EFA861C861B861D8650
:102120001E861F86188A198A0DE614E0F8011082AF
:102130008EE18B8B1D8A1C8A88E08E8B89E08F8BC9
:102140008AE0888F60E088E00E94EF0160E08F897C
:102150000E94EF0162E0888D0E94EF018B859C85D3
:1021600090619C878B878E890E94A705E82E8F89B6
:102170000E94A705880F8E29982F9F70F8018081F3
:10218000807F892B8083E4E7F4E0F0828DE0818317
:102190008BE0828314821382DF91CF911F910F9184
:1021A000FF90EF900895CF93DF93CDB7DEB72F97D1
:1021B0000FB6F894DEBF0FBECDBF789484B58260B1
:1021C00084BD84B5816084BD85B5826085BD85B5DB
:1021D000816085BD80916E00816080936E00109259
:1021E00081008091810082608093810080918100D4
:1021F0008160809381008091800081608093800065
:102200008091B10084608093B1008091B0008160C2
:102210008093B00080917A00846080937A008091EE
:102220007A00826080937A0080917A008160809346
:102230007A0080917A00806880937A001092C100C1
:10224000E091A903F091AA0382E08083E091A503C5
:10225000F091A6031082E091A703F091A8038FEC00
:1022600080831092B103E091AD03F091AE0386E05C
:102270008083E091AB03F091AC0380818061808327
:10228000E091AB03F091AC03808188608083E091A2
:10229000AB03F091AC03808180688083E091AB0355
:1022A000F091AC0380818F7D808310921603109291
:1022B000150310921803109217030E94B00181EDCC
:1022C00090E09093400380933F0382ED90E09093E1
:1022D0004403809343031092530480915904823045
:1022E00018F098E0909353048093560462E370E0F2
:1022F00080E090E00E94610260915A048EE494E0D4
:102300000E94C40568EE73E080E090E00E946102E4
:1023100060E38EE494E00E94BB070BE416E4C8017E
:102320000197F1F760E38EE494E00E94BB07C801D7
:102330000197F1F760E38EE494E00E94BB0783E528
:1023400092E00197F1F760E28EE494E00E94BB070F
:1023500060915304606240E08EE494E00E94D407F0
:1023600084E08093540440E06CE08EE494E00E94AA
:10237000D4070E941E0882E08093550440E066E086
:102380008EE494E00E94D40740E062E08EE494E0A2
:102390000E94D4078BE39FE10197F1F761E0809100
:1023A00074040E94EF0161E0809175040E94EF01C6
:1023B00060917704809176040E94EF0160E0809143
:1023C00074040E94820160E0809175040E94820181
:1023D00061E08FE00E94EF0161E08EE00E94EF017A
:1023E00061E087E00E94EF018091660490916704AC
:1023F000906190936704809366048FE180936304F7
:1024000082E38093620485E28093640486E0809393
:10241000650480916C04887F80936C0481E08093D4
:102420006E04109268041092690410926A0410926B
:102430006B040E94BD0D01E050E0C52E50E0D52E8A
:102440003324339468E0262E8091730490916C04B9
:1024500097FF67C10E94A705682F8FEF0E949F0218
:102460001091C502E12EF12C8091C302882309F45A
:1024700068C1C7010E94B606182F8091660490912A
:10248000670480759170409729F48091C402802779
:102490008093C4028091C40281111AC00E949B00E3
:1024A000882339F08091C602882319F081508093E7
:1024B000C6020E948D00882359F09091C602412FD8
:1024C0004150550B941715061CF49F5F9093C6025C
:1024D000C7010E94B6062091C60230E0220F331FCA
:1024E000C901860F971FDC01ED91FC910995809140
:1024F0006C0485FD09C08091660490916704807525
:102500009170409709F089C00E941E0820925A04D9
:1025100060E08EE494E00E94C4050E949302609300
:10252000BF027093C0028093C1029093C202609177
:10253000C502CE0101960E946A0B6BE472E0CE01E7
:1025400009960E94FB0BBE016F5F7F4FCE0109967B
:102550000E94160B0E949F08CE0109960E94100C43
:10256000CE0101960E94100C6091C602CE01019628
:102570000E946A0B68E672E0CE0109960E94FB0B8E
:10258000BE016F5F7F4FCE0109960E94160B0E941D
:102590009F08CE0109960E94100CCE0101960E9460
:1025A000100C6091C40270E0CE0101960E94A30B52
:1025B00064E872E0CE0109960E94FB0BBE016F5FDA
:1025C0007F4FCE0109960E94160B0E949F08CE01F4
:1025D00009960E94100CCE0101960E94100C609189
:1025E000C30270E0CE0101960E94A30B61EA72E083
:1025F000CE0109960E94FB0BBE016F5F7F4FCE019B
:1026000009960E94160B0E949F08CE0109960E940F
:10261000100CCE0101960E94100C0E949302809033
:10262000BF029090C002A090C102B090C2029B0174
:10263000AC01281939094A095B0949015A0138E8EE
:10264000831633E19306A104B10478F06093BF02CE
:102650007093C0028093C1029093C20210925A04F8
:1026600060E08EE494E00E94C4050E943707152FB5
:1026700029873A874B875C876D877E878F87409055
:1026800015015090160160901701709018014114C7
:10269000510461047104C9F18090190190901A01EC
:1026A000A0901B01B0901C0181149104A104B104FD
:1026B00061F1E0901D01F0901E01D70157968C91B9
:1026C000882309F47CC00E9493028090C7029090F6
:1026D000C802A090C902B090CA029B01AC0128199F
:1026E00039094A095B0949015A0184149504A60471
:1026F000B70458F06093C7027093C8028093C90270
:102700009093CA02D70157961C92E0911D01F09157
:102710001E018DEE810F833008F075C00783078797
:1027200083C00E94A705F82E809171040E94A7051E
:10273000182F809172040E94A705880F6F2D812B9E
:102740008DCEC7010E94B6062091660430916704C1
:10275000207531702031310599F4882389F0309249
:10276000C302113069F40E94370729833A834B83EF
:102770005C836D837E838F83509313016093140178
:102780000E949B00882329F0112319F01150109307
:10279000C5020E948D00882339F08091C5028330E4
:1027A00018F48F5F8093C502E091C502F0E0EE0F50
:1027B000FF1FEB5CFE4F0190F081E02D97CE0E9451
:1027C00093024090C7025090C8026090C902709076
:1027D000CA029B01AC012419350946095709290190
:1027E0003A01481459046A047B0408F48ECF6093BC
:1027F000C7027093C8028093C9029093CA02D7019E
:1028000057960C9382CF8FEF810F833058F089EF6A
:10281000810F843038F082EF810F843018F0155129
:10282000133058F507831786B12CA12C8091120123
:102830008A151B0421F11CF1C50123E0880F991FA3
:102840002A95E1F7E0901D01F0901E01E80EF91EB7
:10285000B701CE0101960E94F20BF70186818F83AA
:102860006781688760270E948201CE0101960E94DD
:10287000100CFFEFAF1ABF0AD9CF178250CFC11487
:10288000D10409F4E1CD0E940405882309F4DCCDCC
:102890000E940000D9CD86E494E00E94100C8EE3E3
:1028A00094E00E94100C86E394E00C94100CBB277B
:1028B0004A3031F4992322F4BDE2909581959F4FDF
:1028C0000C946314BB27FB015527AA27880F991F77
:1028D000AA1FA41710F0A41B83955051B9F7A05D4F
:1028E000AA3308F0A95DA193009779F7B111B193CC
:1028F0001192CB010C947C14DC01FC01672F7191C7
:102900007723E1F7329704C07C916D9370836291D5
:10291000AE17BF07C8F30895E89409C097FB3EF4CB
:1029200090958095709561957F4F8F4F9F4F99231C
:10293000A9F0F92F96E9BB279395F695879577959A
:102940006795B795F111F8CFFAF4BB0F11F460FF5A
:102950001BC06F5F7F4F8F4F9F4F16C0882311F0B2
:1029600096E911C0772321F09EE8872F762F05C0C6
:10297000662371F096E8862F70E060E02AF09A9561
:10298000660F771F881FDAF7880F9695879597F956
:102990000895990F0008550FAA0BE0E8FEEF1616F0
:1029A0001706E807F907C0F012161306E407F50743
:1029B00098F0621B730B840B950B39F40A2661F0B7
:1029C000232B242B252B21F408950A2609F4A1405A
:1029D000A6958FEF811D811D0895F999FECF92BDB7
:1029E00081BDF89A992780B50895262FF999FECFD1
:1029F0001FBA92BD81BD20BD0FB6F894FA9AF99A1C
:102A00000FBE019608950E944515A59F900DB49F95
:102A1000900DA49F800D911D112408952F923F9237
:102A20004F925F926F927F928F929F92AF92BF92DE
:102A3000CF92DF92EF92FF920F931F93CF93DF938A
:102A4000CDB7DEB7CA1BDB0B0FB6F894DEBF0FBEE7
:102A5000CDBF09942A88398848885F846E847D8434
:102A60008C849B84AA84B984C884DF80EE80FD8036
:102A70000C811B81AA81B981CE0FD11D0FB6F894AC
:102A8000DEBF0FBECDBFED010895A29FB001B39F81
:102A9000C001A39F700D811D1124911DB29F700D67
:102AA000811D1124911D0895991B79E004C0991F7F
:102AB000961708F0961B881F7A95C9F78095089598
:102AC000A1E21A2EAA1BBB1BFD010DC0AA1FBB1F32
:102AD000EE1FFF1FA217B307E407F50720F0A21BA4
:102AE000B30BE40BF50B661F771F881F991F1A9411
:102AF00069F760957095809590959B01AC01BD013B
:102B0000CF010895EE0FFF1F0590F491E02D099479
:102B10000E94C914880B990B08950F931F93CF93AC
:102B2000DF938230910510F482E090E0E0917B0425
:102B3000F0917C0430E020E0B0E0A0E0309799F420
:102B40002115310509F44AC0281B390B2430310501
:102B5000D8F58A819B816115710589F1FB01938309
:102B60008283FE0111C04081518102811381481787
:102B70005907E0F04817590799F4109761F0129639
:102B80000C93129713961C933296CF01DF91CF913D
:102B90001F910F91089500937B0410937C04F4CF50
:102BA0002115310551F04217530738F0A901DB0117
:102BB0009A01BD01DF01F801C1CFEF01F9CF909378
:102BC0007C0480937B04CDCFFE01E20FF31F819341
:102BD00091932250310939832883D7CF20917904EA
:102BE00030917A04232B41F420912101309122016C
:102BF00030937A042093790420911F0130912001B1
:102C00002115310541F42DB73EB740912301509174
:102C10002401241B350BE0917904F0917A04E2172A
:102C2000F307A0F42E1B3F0B2817390778F0AC01EF
:102C30004E5F5F4F2417350748F04E0F5F1F5093CC
:102C40007A0440937904819391939FCFF0E0E0E080
:102C50009CCFCF93DF930097E9F0FC01329713826A
:102C60001282A0917B04B0917C04ED0130E020E061
:102C70001097A1F420813181820F931F2091790454
:102C800030917A042817390709F061C0F0937A046B
:102C9000E0937904DF91CF910895EA01CE17DF0721
:102CA000E8F54A815B819E0141155105B1F7E901C3
:102CB000FB83EA8349915991C40FD51FEC17FD0797
:102CC00061F4808191810296840F951FE9019983B7
:102CD0008883828193819B838A83F0E0E0E012966F
:102CE0008D919C9113970097B9F52D913C91119777
:102CF000CD010296820F931F2091790430917A04BE
:102D00002817390739F6309751F510927C04109244
:102D10007B04B0937A04A0937904BCCFD383C2839D
:102D200040815181840F951FC817D90761F44E5F08
:102D30005F4F88819981480F591F518340838A8151
:102D40009B81938382832115310509F0B0CFF093E5
:102D50007C04E0937B049ECFFD01DC01C0CF138295
:102D60001282D7CFB0E0A0E0E8EBF6E10C941015AA
:102D70008C01009751F4CB010E948D158C01C80184
:102D8000CDB7DEB7E0E10C942C15FC01E60FF71F80
:102D90009C0122503109E217F30708F49DC0D901C4
:102DA000CD91DC911197C617D70798F0C530D105A2
:102DB00030F3CE0104978617970708F3C61BD70B8D
:102DC0002297C193D1936D937C93CF010E942916D2
:102DD000D6CF5B01AC1ABD0A4C018C0E9D1EA09192
:102DE0007B04B0917C04512C412CF12CE12C1097E8
:102DF00031F58091790490917A048815990509F04C
:102E00005CC04616570608F058C080911F0190918B
:102E10002001009741F48DB79EB740912301509156
:102E20002401841B950BE817F90708F055C0F093AF
:102E30007A04E0937904F90171836083A0CF8D91C6
:102E40009C91119712966C90129713967C90139701
:102E5000A815B90559F56C0142E0C40ED11CCA147D
:102E6000DB0420F1AC014A195B09DA0112961597CF
:102E700080F06282738251834083D9016D937C9389
:102E8000E114F10471F0D7011396FC93EE931297BD
:102E900076CF22968C0F9D1FF90191838083F301D9
:102EA000EFCFF0937C04E0937B0469CF481659067A
:102EB00008F42C017D01D3019ACFCB010E948D151E
:102EC0007C01009749F0AE01B8010E946F17C8015C
:102ED0000E942916870153CF10E000E050CFFB017C
:102EE000DC0102C001900D9241505040D8F7089586
:102EF000FB01DC0101900D920020E1F7089510E044
:102F0000C2E6D0E004C0FE010E9482152196C336BD
:082F1000D107C9F7F894FFCFC7
:102F18006D093E09CE08BB08020A9C09380E230E2B
:102F2800120000010100000000000000003604004B
:102F3800007D048000000104000801040000004036
:102F48000014005400180C780A700A680A0000007F
:102F5800002A01FD00AC06D300F600E300D400000F
:102F68000000003A059A04C7048705F804D604EA65
:102F7800040000000031089A04AC06AB060D0A00F4
:102F88005361766520616E642045786974004D69E7
:102F98006E7574652073657474696E6700486F7523
:102FA800722073657474696E6700524C32206F66C4
:102FB8006620696E7420286D696E2900524C322093
:102FC8006F6E20696E7420286D696E290052656CD9
:102FD800617920322053657474696E677300526595
:102FE8006C617920332053657474696E677300547B
:102FF800696D652053657474696E6773003A004F94
:103008004E004F46003000202020202000536574D9
:1030180074696E677320736176656420746F2045E8
:103028004550524F4D0053657474696E677320752F
:103038007064617465640053657474696E677320A5
:1030480072656365697665642066726F6D204545B3
:1030580050524F4D003100320033006D656E75538C
:10306800657474696E67732E6D61696E4D656E75F2
:10307800496E6465783A20006D656E7553657474A1
:10308800696E67732E7375624D656E75496E6465FA
:10309800783A20006D656E7553657474696E677350
:1030A8002E69735375624D656E75456469743A206F
:1030B800006D656E7553657474696E67732E6973F8
:0A30C8005375624D656E753A2000E5
:00000001FF
